:020000040800F2
:10000000F011002029010008C53200082D02000867
:10001000992F00086D140008915500080000000099
:10002000000000000000000000000000593E000831
:10003000B11A0008000000007B010008B13E000872
:100040004301000843010008430100084301000880
:100050004301000843010008430100084301000870
:10006000430100084301000843010008111600087D
:100070004301000843010008430100084301000850
:100080004301000843010008430100084301000840
:100090004301000843010008430100084301000830
:1000A0004301000843010008430100084301000820
:1000B0004301000843010008430100084301000810
:1000C0004301000843010008430100084301000800
:1000D000155000084301000843010008F91B0008FF
:1000E00043010008430100084301000843010008E0
:1000F000430100084301000843010008954400083B
:10010000E1450008430100084301000843010008DD
:1001100043010008DFF80CD000F042FB0048004724
:1001200009080008F01100200648804706480047EB
:10013000FEE7FEE7FEE7FEE7FEE7FEE7FEE7FEE797
:10014000FEE7FEE72940000815010008EFF31080E4
:1001500072B6704780F310887047424A1368012BCB
:1001600004D04FF0010313603F4A10603F4A116012
:100170003F484FF0805101607047EFF3108272B634
:100180003848016851B34FF00001016036480168FA
:1001900091B1EFF309811EF0100F08BF21ED108B14
:1001A00021E9F00F4FF000041EF0100F08BF0124EA
:1001B00041F8044D006801602C490968096808C9C4
:1001C000B1E8F00F002B18BFB1EC108B81F3098858
:1001D0004EF0100E002B18BF2EF0100E82F3108878
:1001E0004EF0040E704721490860EFF3148222F0AC
:1001F000040282F314881C494FF00000086019497A
:100200004FF0010008601B481B49D0F8002041EA6C
:100210000201016016484FF08051016017480068E4
:10022000006880F3088861B662B670471EF0040F5C
:100230000CBFEFF30880EFF3098020E9F00F40F8DE
:1002400004ED40F804ED1EF0040F0CBF80F30888A5
:1002500080F3098800B506F057FA5DF804EB4EF01C
:10026000040E7047680A00204C0800205408002043
:1002700004ED00E020ED00E00000FFFF08ED00E0ED
:1002800040EA01039B0703D009E008C9121F08C018
:10029000042AFAD203E011F8013B00F8013B521E98
:1002A000F9D27047D2B201E000F8012B491EFBD20F
:1002B00070470022F6E710B513460A460446194671
:1002C000FFF7F0FF204610BD30B50B460146002079
:1002D0002022012409E021FA02F59D4205D303FA08
:1002E00002F5491B04FA02F52844151EA2F1010289
:1002F000F1DC30BD2DE9F05F0546002092469B46BB
:1003000088460646814640241BE02846414647462B
:10031000224600F020F853465A46C01A914110D3A5
:1003200011461846224600F04DFA2D1A67EB0108D7
:100330004F4622460120002100F044FA17EB000945
:100340004E41201EA4F10104DFDC484631462A4616
:100350004346BDE8F09F202A04DB203A21FA02F050
:100360000021704721FA02F3D040C2F120029140EF
:1003700008431946704710B5141E73F1000408DADB
:10038000401C41F1000192185B411A4301D120F059
:10039000010010BD2DE9F04D92469B4611B1B1FA16
:1003A00081F202E0B0FA80F22032904600F00AFAC0
:1003B00004460F4640EA0A0041EA0B0153465A46FA
:1003C000084313D0114653EA010019D0C8F1400286
:1003D0005046FFF7C0FF05460E4650465946424676
:1003E00000F0F0F9084305D0012004E0204639462A
:1003F000BDE8F08D0020054346EAE0762C43374304
:100400000A986305E40AA0EB08000022FD0A44EA0A
:1004100047540A3002D500200146E9E701051019CA
:100420006941DDE9084500196941BDE8F04DA2E7E1
:100430002DE9FE4F804681EA0300C00F0C46009074
:1004400021F0004123F00045B8EB0200A94105D29C
:100450004046214690461C460B46024623F000408B
:10046000104347D0270DC7F30A00C3F30A51029087
:10047000401A019040286BDAC3F3130040F4801B4C
:100480000098924620B10023D2EB030A63EB0B0BDA
:1004900001985946C0F14002504600F093F90646D3
:1004A0000D4650465946019A00F09BF910EB0800A2
:1004B0006141002487EA115284EAE7731A4340D06D
:1004C000009A62B3019A012A4FEA075215DC001B19
:1004D00061EB02014FF0004202EA0752CDE900420F
:1004E000001C41F5801132462B46FFF753FF03B045
:1004F000BDE8F08F40462146F9E7001B61EB0201A1
:10050000001C41F5801300185B412018A2F500176C
:1005100047EB030140EAD570B6196D4111E06D0853
:100520004FEA360645EAC0754FEA0752001B61EBF9
:100530000201001C41F5801149084FEA3000001902
:10054000514132462B4603B0BDE8F04FFFF713BFD1
:100550000098012240000023D0EB020263EBE0731D
:10056000009821464FEAE074B8EB000061EB04010B
:10057000E9E783F000435BE781F0004158E72DE9AC
:10058000FE4F81EA030404F0004421F0004100948E
:100590004FF0000B23F0004350EA01045ED052EA12
:1005A00003045BD0C3F30A54C1F30A552C44A4F2EC
:1005B000F3340194A0FB0254C1F3130141F4801100
:1005C000C3F3130343F4801301FB024400FB034E07
:1005D000840A970A44EA815447EA8357A4FB0768D0
:1005E00002958D0A05FB07854FEA932C04FB0C54FA
:1005F0002705029D4FEA065847EA1637B5EB08056E
:100600006EEB070C870E920E47EA811742EA8312BF
:10061000A7FB0201B6EB0B0164EB00042B0D43EAD0
:100620000C335E1844EB1C50DA465146E7FB0201DE
:10063000C5F313044FEA0B3343EA14534FEA043271
:10064000019C43EA0603A4F10C040294009CCDE94A
:1006500000B4FFF79FFE03B0BDE8F08F0020014615
:10066000F9E72DE9F04D81EA030404F0004B21F095
:10067000004514464FF0000A23F0004150EA0502FD
:1006800020D054EA01021DD0C5F30A570246C5F333
:100690001303C1F31300C1F30A5640F4801543F469
:1006A0008013A7EB0608101BD64608F2FD3873EB43
:1006B000050002D308F1010801E092185B41B8F18E
:1006C000000F03DA00200146BDE8F08D00204FF452
:1006D0008011064684460EE0171B73EB050705D311
:1006E000121B63EB050306434CEA010C49084FEA71
:1006F000300092185B4150EA0107EDD152EA030045
:1007000012D082EA040083EA0501084305D0101BD9
:10071000AB4106D20122002306E000224FF0004345
:1007200002E06FF0010253101AEB06004CEB085187
:1007300010EB0A0041EB0B01BDE8F04DFFF71BBECB
:10074000C1F30A52C1F3130140F2FF3341F48011A7
:100750009A4202DA00200146704740F233439A423F
:10076000A2F2334202DC5242FFF7F5BD00F02AB894
:1007700030B5041E71F1000404DB4FF00044404228
:1007800064EB0101141E73F1000405DB1C464FF0FD
:100790000043524263EB0403994208BF904230BDCC
:1007A000064C074D06E0E06840F0010394E80700BE
:1007B00098471034AC42F6D3FFF7B0FC34980008E9
:1007C00054980008202A04DB203A00FA02F10020A5
:1007D00070479140C2F1200320FA03F3194390407F
:1007E0007047202A06DBCB17203A41FA02F043EA91
:1007F000E07306E041FA02F3D040C2F120029140DA
:10080000084319467047000080B507F0B5FE002088
:1008100080BD000040F65801C4F20201086820F0D3
:10082000100008607047000082B000900098012816
:1008300011D1FFE740F65400C4F20200006848B945
:10084000FFE740F60801C4F20201086840F0040026
:100850000860FFE720E0009802281CD1FFE740F67F
:100860000800C4F202000068400700280FD5FFE727
:1008700040F65400C4F20200006820B1FFE70020F7
:100880008DF807000CE001208DF8070008E000203B
:100890008DF8070004E0FFE700208DF80700FFE770
:1008A0009DF8070002B0704782B08DF807008DF800
:1008B0000610002000909DF8070009281BDCFFE7C8
:1008C0009DF807000090009800EB4001072000FA17
:1008D00001F240F61001C4F202010868904308607A
:1008E0009DF80600009A02EB420200FA02F2086844
:1008F0001043086034E09DF8070011281CDCFFE776
:100900009DF807000A380090009800EB400107208E
:1009100000FA01F240F60C01C4F2020108689043AB
:1009200008609DF80600009A02EB420200FA02F20B
:1009300008681043086012E0009800EB40010720AF
:1009400000FA01F240F65C01C4F20201086890432B
:1009500008609DF80620086810430860FFE7FFE77D
:1009600002B0704780B582B08DF80700009102F0A8
:1009700005FE9DF8070040B9FFE702F009FE009868
:1009800002F0E6FDFFF746FF05E0009802F00AFEE0
:1009900000F0C4F9FFE702B080BD000040F6080196
:1009A000C4F20201086820F00200086070470000ED
:1009B00040F60801C4F20201086840F00200086035
:1009C0007047000040F60801C4F20201086840F4D4
:1009D000807008607047000081B0009040F6080108
:1009E000C4F20201086820F400600860009A0868F8
:1009F0001043086001B0704781B000900098B0F5D6
:100A0000801F09D1FFE7009A40F60801C4F20201F5
:100A10000868104308602EE000986FF48011884247
:100A200009D1FFE7009A40F60801C4F20201086804
:100A3000104008601EE00098B0F5004F09D1FFE7B4
:100A4000009A40F60801C4F20201086810430860E9
:100A50000FE000986FF40041884209D1FFE7009A47
:100A600040F60801C4F20201086810400860FFE780
:100A7000FFE7FFE7FFE701B07047000081B08DF8A6
:100A800002008DF801108DF800209DF80200012869
:100A900012D1FFE740F60000C4F2020000689DF8A2
:100AA0000110084204D0FFE701208DF8030015E093
:100AB00000208DF8030011E040F65800C4F2020057
:100AC00000689DF80010084204D0FFE701208DF86F
:100AD000030003E000208DF80300FFE79DF803000A
:100AE00001B0704780B592B043F60000C4F2020036
:100AF000029003210791002205924FF4005305F064
:100B000007FB059A079943F20040C4F202000190E6
:100B10000823069305F0FCFA0198059A079920230B
:100B200005F0F6FA0198059A0799802305F0F0FA86
:100B30000198059A07990123089305F0E9FA0198AD
:100B4000059A079902230A9305F0E2FA0298059A9A
:100B50004FF48063114605F0DBFA4FF4805002F049
:100B600037FD05980799FFF7FDFE05984FF4F04112
:100B700002F0CEFC0EA8039000F0A2F803980599AD
:100B8000089A8DF838208DF8392010914FF42021E3
:100B90000F914FF4C001119100F06CF80F200490F8
:100BA00005210B91FFF780FE0498059900F020F9CC
:100BB0000B9904200990FFF777FE0899099800F037
:100BC00017F90B9906200D90FFF76EFE0A990D9804
:100BD00000F00EF906980B99FFF766FE0698079944
:100BE00000F006F908980B99FFF75EFE089809993E
:100BF00000F0FEF80A980B99FFF756FE0A980B9939
:100C000000F0F6F80B990C200C90FFF74DFE0C98B5
:100C10000D9900F0EDF8FFF7D5FE4FF48010FFF7C7
:100C2000EBFE00F071F8FFE7022040212022FFF7E1
:100C300025FF08B9FFE7F7E70120FFF7F5FDFFE71C
:100C40000220FFF7F1FD08B1FFE7F9E74FF4A0003C
:100C500000F07EF8FFE749F27F21C0F6000149F27B
:100C6000A122C0F600020020692305F07BFAFFE70D
:100C700012B080BD80B582B001900198007818B1A3
:100C8000FFE700F037F802E000F02AF8FFE70198EC
:100C9000407818B1FFE7FFF78BFE02E0FFF77EFE1A
:100CA000FFE70198406800F093F801988068FFF72B
:100CB00093FE0198C06800F03BF802B080BD0000D0
:100CC00081B0009000990020087000994870009948
:100CD0004860009988600099C86001B070470000C2
:100CE00040F60401C4F20201086820F48070086034
:100CF0007047000040F60401C4F20201086840F4A5
:100D0000807008607047000040F60801C4F20201DC
:100D1000086840F0010008607047000040F6580184
:100D2000C4F20201086840F010000860704700003B
:100D300081B0009040F62C01C4F20201086820F452
:100D400070000860009A08681043086001B070479E
:100D500082B000900098B0F5A00F09D1FFE7009A8B
:100D600040F60801C4F2020108681043086026E05A
:100D700000986FF4A001884209D1FFE7009A40F67D
:100D80000801C4F2020108681040086016E00098EB
:100D9000B0F5800F11D1FFE740F60800C4F2020061
:100DA00000680099084204D0FFE701208DF8070091
:100DB00009E000208DF8070005E0FFE7FFE70020CD
:100DC0008DF80700FFE79DF8070002B070470000AC
:100DD00081B0009040F60801C4F20201086820F4D6
:100DE00060200860009A08681043086001B07047EE
:100DF00081B08DF803008DF802109DF802000528DF
:100E00001ADCFFE79DF8020000EB80011F2000FACA
:100E100001F240F63401C4F2020108689043086010
:100E20009DF803009DF8022002EB820200FA02F214
:100E30000868104308603FE09DF802000B281DDCA5
:100E4000FFE79DF8020000EB8000A0F11E011F20CB
:100E500000FA01F240F63001C4F202010868904342
:100E600008609DF803009DF8022002EB82021E3A02
:100E700000FA02F20868104308601CE09DF80200C6
:100E800000EB8000A0F13C011F2000FA01F240F6C7
:100E90002C01C4F202010868904308609DF8030029
:100EA0009DF8022002EB82023C3A00FA02F2086846
:100EB00010430860FFE7FFE701B0704780B502F01C
:100EC00029FD00F02DFB01F027F880BD82B08DF8E0
:100ED0000700002000909DF8070040F2B861C2F2C0
:100EE000000181F8780002B07047000080B584B03E
:100EF0008DF80F009DF80F0040F24801C2F200018A
:100F00000979884201D1FFE73AE040F24800C2F295
:100F100000000179417100790138014602910428ED
:100F20000ED80299DFE801F0030405080B0008E081
:100F300007E002F0FBF804E001F096FBFFE700E0B9
:100F4000FFE79DF80F0001380146019104280ED8F3
:100F50000199DFE801F0030405080B0008E007E051
:100F600002F0CAF804E001F077FB01E000E0FFE7DF
:100F70009DF80F0040F24801C2F200010871FFE73E
:100F800004B080BD80B549F2F640C0F600000321F0
:100F9000002205F0FBFE40F63001C2F200010860BD
:100FA00080BD000080B584B040F63000C2F2000081
:100FB000006803A9002205F027FF10BBFFE7039894
:100FC000029006281BD80299DFE801F00407100DF3
:100FD00013160A0000F0AEFA12E000F0D1FA0FE0AA
:100FE00001F02CF90CE001F075FB09E001F060FB69
:100FF00006E001F067FB03E001F062FB00E0FFE7C1
:10100000FFE740F24800C2F200000079014601917A
:1010100005280ED80199DFE801F003040C05080B40
:1010200008E007E002F094F804E001F01FFB01E0A3
:1010300000E0FFE704B080BD80B582B000200190E1
:101040008DF8030040F69420C2F20000B0F84A0187
:101050004921414348F26910C6F61600A1FB002061
:10106000091A00EB510080090190BDF804004FF40B
:101070002F6104F0C9FF90B1FFE701208DF8030054
:10108000FFE749F2E931C0F6000149F2AC42C0F68F
:1010900000020320A52305F065F8FFE703E0002028
:1010A0008DF80300FFE79DF8030040F2B861C2F23B
:1010B000000181F830000198486302B080BD000053
:1010C00080B582B0002001908DF8030040F6942096
:1010D000C2F20000B0F84C014921414348F26910C6
:1010E000C6F61600A1FB0020091A00EB510080098A
:1010F0000190BDF8040040F6D86104F085FF90B17E
:10110000FFE701208DF80300FFE749F24741C0F6F1
:10111000000149F28142C0F600020320BA2305F023
:1011200021F8FFE703E000208DF80300FFE79DF8BA
:10113000030040F2B861C2F2000181F83C0001985E
:10114000086402B080BD000080B582B0002001902C
:101150008DF8030040F69420C2F20000B0F844017C
:101160004921414348F26910C6F61600A1FB002050
:10117000091A00EB51008009019040F23C70C2F264
:1011800000000079012804D0FFE700208DF803005B
:101190001AE00198632804D8FFE700208DF80300C7
:1011A00011E0FFE749F21B41C0F6000149F2964207
:1011B000C0F600020320912304F0D4FFFFE70120D2
:1011C0008DF80300FFE7FFE79DF8030040F2B861E8
:1011D000C2F2000181F824000198886202B080BD4B
:1011E00080B543F20040C4F20200102100F0C4FFB9
:1011F00080BD000080B543F20040C4F2020010211F
:1012000000F0C4FF80BD000080B5FFF7F3FF40F29F
:101210003C71C2F200010120087180BD80B5FFF76A
:10122000DFFF40F23C71C2F200010020087180BD76
:1012300080B54FF4617000F05DF880BD80B500208E
:1012400000F058F880BD000080B540F23C70C2F25A
:1012500000000079012812D1FFE740F2B860C2F225
:10126000000090F87800012809D1FFE7FFF7E0FFC0
:1012700040F24471C2F2000101200871FFE780BD15
:1012800080B5FFF7DBFF40F24471C2F2000100209D
:10129000087180BD80B582B040F2CC10C2F200006F
:1012A000C068322824D1FFE740F24470C2F2000047
:1012B00000790146019120B1FFE70198012801D092
:1012C00014E014E040F2B860C2F2000090F824008C
:1012D00040B1FFE740F2B860C2F2000090F8780039
:1012E00018B9FFE7FFF7CCFFFFE700E0FFE7FFE7F4
:1012F00002B080BD80B582B00190019802F010FF6D
:1013000002B080BD80B590B00120029002F060F97B
:1013100005A800902C21FEF7CCFF0820C4F20200A3
:10132000039000F033FB0099039840F64C02C4F29E
:101330000202059240F69422C2F2000206920022B6
:10134000019207928C230893099280230A934FF409
:1013500080730B934FF480630C9320230D934FF411
:1013600040530E930F9200F059FA0199039800F040
:101370000FFA0398022100F08FFA0398042100F07D
:101380008BFA02980B218DF810108DF811008DF852
:1013900012008DF8130004A801F09EFF039800F0DE
:1013A000EDF9FFE749F2F811C0F6000149F21A22FF
:1013B000C0F6000200202A2304F0D4FEFFE710B09C
:1013C00080BD000080B582B00190019802F094FECB
:1013D00002B080BD80B5FFE749F2D211C0F600012E
:1013E00049F2EF12C0F600020020052304F0BAFE15
:1013F000FFE701F0CDFDFFF785FFFFF773FB02F07C
:10140000C5FE02F033FF02F089FF02F0DFFF03F0B8
:101410007FF803F003F900F0C7FC03F045FE01F08C
:101420002BF8FFE749F2B411C0F6000149F2EF12C0
:10143000C0F6000200201E2304F094FEFFE780BDEA
:1014400080B582B00190019802F048FF02B080BDE3
:1014500080B582B00190019802F058FE02B080BDC4
:1014600080B503F005F880BD70470000FFE7FEE798
:1014700080B584B00390029100208DF807000090A1
:10148000FFE70098029988420ED2FFE79DF8070017
:101490000399009A895C00F0A1F88DF80700FFE736
:1014A000009801300090ECE79DF8070004B080BD83
:1014B00080B588B00020079001A802F0ADF841F295
:1014C0000400C4F20200006810F4E06F03D1FFE7EB
:1014D0000398079003E0039840000790FFE7079800
:1014E00008B080BD80B543F20040C4F202004FF462
:1014F000004100F041FE80BD80B543F20040C4F2DF
:1015000002004FF4004100F041FE80BD80B5FFF7BE
:10151000F3FF40F24C71C2F200010120087180BD5E
:1015200080B5FFF7DFFF40F24C71C2F200010020EE
:10153000087180BD80B582B0FFE749F2FA41C0F67C
:10154000000149F28652C0F6000200200C2304F08C
:1015500009FEFFE740F24800C2F2000000790146B0
:101560000191032804D3FFE70198032804D004E085
:101570000320FFF7BBFC01E000E0FFE702B080BD05
:1015800080B582B0FFE749F22651C0F6000149F26A
:101590009952C0F600020020202304F0E3FDFFE78B
:1015A00040F24800C2F200000079032813D1FFE79F
:1015B00040F2F010C2F20000007B014601910228C7
:1015C00004D0FFE70198042803D1FFE701F070FD84
:1015D00000E0FFE700E0FFE702B080BD81B08DF8DA
:1015E00003008DF802109DF803009DF802104140A1
:1015F00049F28900C0F60000405C01B0704700006D
:1016000082B00190009100980199486002B0704743
:1016100080B586B005F0E8F80020C4F2020004218D
:1016200000F0E6F8002847D0FFE70020C4F20200EF
:10163000042100F0D5F800200590FFE70598062862
:1016400039D8FFE7002004900390FFE703980928AA
:1016500014D8FFE70398C0EBC00140F69420C2F213
:10166000000000EB4100059930F81110049808447F
:101670000490FFE7039801300390E7E704984CF6E5
:10168000CD41CCF6CC41A0FB0110C208059B40F631
:101690009421C2F2000101F58C7020F81320059A04
:1016A00030F8120001EB4201A1F83401FFE7059880
:1016B00001300590C2E7FFE70020C4F202000221DA
:1016C00000F096F8002854D0FFE70020C4F2020092
:1016D000022100F085F800200290FFE7029806281A
:1016E00046D8FFE7002001900090FFE70098092806
:1016F00016D8FFE70098C0EBC00140F69420C2F274
:10170000000000EB4100029900EB4100B0F88C10A2
:10171000019808440190FFE7009801300090E5E748
:1017200001984CF6CD41CCF6CC41A0FB0110C1088C
:10173000029B40F69420C2F2000000F5937222F85A
:101740001310029B32F8131000EB4303A3F834117B
:10175000029B00EB4301B1F8180132F8132010444A
:101760004008A1F84201FFE7029801300290B5E776
:1017700000E0FFE705F04AF806B080BD81B00090B8
:101780000099086840F00100086001B0704700004F
:1017900082B00190009100980199086102B07047F1
:1017A00082B0019000910199086820F02000086043
:1017B000009A019908681043086002B07047000061
:1017C00082B0019000910199086820F01000086033
:1017D000009A019908681043086002B07047000041
:1017E00082B00190009100980199486002B0704762
:1017F00083B001900091019800680099084204D1DB
:10180000FFE700208DF80B0003E001208DF80B00AE
:10181000FFE79DF80B0003B07047000080B582B071
:101820000190009101980099096800F087F80198EB
:101830000099496800F05AF8019800998968FFF703
:10184000BFFF01980099C968FFF7DAFE0198009977
:10185000096900F063F801980099496900F036F8C9
:1018600001980099896900F071F801980099C96997
:1018700000F044F801980099096AFFF791FF019878
:101880000099496A00F072F801980099896A00F09D
:101890000DF802B080BD000082B001900091009A66
:1018A000019908681043086002B0704782B0019047
:1018B00000910199086820F480400860009A01991D
:1018C00008681043086002B07047000082B00190C1
:1018D00000910199086820F080000860009A019941
:1018E00008681043086002B07047000082B00190A1
:1018F000009100980199C86002B0704782B00190D1
:1019000000910199086820F440600860009A0199EC
:1019100008681043086002B07047000082B0019070
:1019200000910199086820F040000860009A019930
:1019300008681043086002B07047000082B0019050
:10194000009100980199886002B0704782B00190C0
:1019500000910199086820F440700860009A01998C
:1019600008681043086002B07047000082B0019020
:1019700000910199086820F440500860009A01998C
:1019800008681043086002B07047000081B0009002
:101990000099086820F001000860009900200860A4
:1019A00000994860009988600099C86000980821F3
:1019B000C4F20201884208D1FFE70421C4F2020107
:1019C000086840F00F0008606FE000981C21C4F226
:1019D0000201884208D1FFE70421C4F2020108682D
:1019E00040F0F00008605FE000983021C4F202018E
:1019F000884208D1FFE70421C4F20201086840F4DC
:101A0000706008604FE000984421C4F202018842EF
:101A100008D1FFE70421C4F20201086840F47040D5
:101A200008603FE000985821C4F20201884208D1C2
:101A3000FFE70421C4F20201086840F47020086046
:101A40002FE000986C21C4F20201884208D1FFE720
:101A50000421C4F20201086840F4700008601FE02D
:101A600000988021C4F20201884208D1FFE70421D6
:101A7000C4F20201086840F0706008600FE000984E
:101A80009421C4F20201884208D1FFE70421C4F284
:101A90000201086840F070400860FFE7FFE7FFE7D9
:101AA000FFE7FFE7FFE7FFE7FFE701B07047000050
:101AB0007047000083B080B583B00793069205910C
:101AC000029005A80190029A019B40F25000C2F2D8
:101AD000000000907F2106F055FA009804F058FAB3
:101AE00003B0BDE8804003B07047000082B0002022
:101AF00001908DF8030040F69420C2F20000B0F887
:101B000042014921414348F26910C6F61600A1FB83
:101B10000020091A00EB51008009019040F2547036
:101B2000C2F200000079012804D0FFE700208DF800
:101B300003000DE001980009AE2804D8FFE700205B
:101B40008DF8030003E001208DF80300FFE7FFE7B5
:101B50009DF8030040F2B861C2F2000108700198DC
:101B6000486002B07047000080B540F2E730FFF7F0
:101B700029FC80BD80B50020FFF724FC80BD00005B
:101B800080B5FFF7F1FF40F25471C2F2000101206D
:101B9000087180BD80B5FFF7EDFF40F25471C2F2CD
:101BA00000010020087180BD80B500F043F900F00D
:101BB00099FDFFF783F980BD80B500F05DF9FFF76F
:101BC0005FFB01F0D9FEFFF7E5FF01F0D7F9FFF762
:101BD00025FB01F077FE01F091FC80BD80B500F09F
:101BE00055F900F075FF01F0D9F9FFF753FB01F04B
:101BF000CDFE01F0E3F880BD80B582B04FF4805097
:101C000000F01EF878B1FFE74FF48050019000F02B
:101C10000DF8019800F02CF840F6EC51C2F20001EA
:101C200001200870FFE702B080BD000081B0009085
:101C3000009840F21441C4F20101086001B07047FD
:101C400082B0009040F21440C4F201000068009994
:101C5000084204D0FFE701208DF8070003E00020D0
:101C60008DF80700FFE79DF8070002B070470000FD
:101C700081B00090009840F21441C4F20101086064
:101C800001B0704784B0039002910192002000904F
:101C900040F20040C4F201000090029850B9FFE702
:101CA0000199009808440090039A009908689043AD
:101CB0000860FFE704B0704780B582B001900199D9
:101CC0000868097900F04EF801990868497900F030
:101CD00009F8019A106891791279FFF7D3FF02B0E1
:101CE00080BD000083B0029001910020009040F27E
:101CF0000040C4F201000090029A40F20841C4F290
:101D00000101086890430860029A40F20C41C4F255
:101D100001010868904308600198102811D1FFE77D
:101D2000029A40F20841C4F20101086810430860B9
:101D3000029A40F20C41C4F20101086810430860A5
:101D40000EE040F20040C4F20100009001990098BA
:101D500008440090029A0099086810430860FFE761
:101D600003B0704783B0029001910020009040F2D0
:101D70000041C4F201010091029A08689043086092
:101D8000029A40F20441C4F20101086890430860DD
:101D90000199009808440090029A0099086810433D
:101DA000086003B07047000080B588B043F60000BB
:101DB000C4F20200002201924FF4805303931146B3
:101DC00004F0A6F90120049001F01AFC0C20029006
:101DD000312100F00DF9019A0299039B04980693B2
:101DE0008DF81C208DF81D108DF81E0006A8FFF739
:101DF00063FF0398FFF73CFF049827218DF8141028
:101E00008DF815008DF816008DF8170005A801F063
:101E100063FAFFE749F22721C0F6000149F24A229E
:101E2000C0F6000200203F2304F09CF9FFE708B051
:101E300080BD00007047000080B53C2000F0B6FF78
:101E400080BD000080B5002000F0B0FF80BD000024
:101E500080B540F2B860C2F2000090F87800012826
:101E600009D1FFE7FFF7E8FF40F2D001C2F200011D
:101E700001200871FFE780BD80B5FFF7E3FF40F266
:101E8000D001C2F200010020087180BD80B582B08F
:101E900040F2CC10C2F20000C06832281CD1FFE72B
:101EA00040F2D000C2F2000000790146019120B159
:101EB000FFE70198012801D00CE00CE040F2B86087
:101EC000C2F2000090F8780018B9FFE7FFF7D4FFDE
:101ED000FFE700E0FFE7FFE702B080BD80B544F216
:101EE0000000C4F202004FF4005100F045F980BD3B
:101EF00080B544F20000C4F202004FF4005100F03B
:101F000045F980BD80B5FFF7F3FF40F25C71C2F286
:101F100000010120087180BD80B5FFF7DFFF40F2AE
:101F20005C71C2F200010020087180BD84B0039092
:101F300002910192002000909DF804000007002803
:101F40001BD5FFE70398406A0090019800F0070056
:101F500081000F2000FA01F1009888430090029858
:101F6000019901F00701890000FA01F10098084386
:101F700000900098039948621AE00398006A009064
:101F8000019800F0070081000F2000FA01F100988D
:101F9000884300900298019901F00701890000FA36
:101FA00001F1009808430090009803990862FFE748
:101FB00004B0704784B00390029101920020009019
:101FC0000398C06A009001984100032000FA01F1D3
:101FD00000988843009002980199490000FA01F1A5
:101FE00000980843009000980399C86204B07047B5
:101FF00082B08DF8070000919DF8070000F0030102
:10200000CA003F2101FA02F300F0FC010422C4F2ED
:10201000010288589843885000999DF8070000F005
:102020000303DB0001FA03F300F0FC0188581843B6
:10203000885002B07047000083B00190ADF80210E4
:1020400001980069BDF80210084204D0FFE70120A2
:102050008DF80B0003E000208DF80B00FFE79DF8E2
:102060000B0003B07047000085B00490039102920A
:10207000002001900090049800680190039800F0FF
:102080000300009002984100032000FA01F101983A
:102090008843019000980299490000FA01F10198E3
:1020A00008430190019804990860039801280CD016
:1020B000FFE70398112808D0FFE70398022804D00F
:1020C000FFE70398122817D1FFE7049840680190B2
:1020D0000299012000FA01F10198884301900398C8
:1020E000C0F30010029900FA01F101980843019031
:1020F000019804994860FFE705B0704780B584B047
:1021000003900291002001900090FFE70298006880
:102110000199C84068B3FFE702980068019A01215D
:102120009140084000900098F8B1FFE703980299A9
:102130004969019AFFF7FAFE039802994968019AE2
:10214000FFF792FF039802998968019A00F028F836
:1021500003980299C968019A00F040F8039802991F
:102160000969019AFFF726FFFFE701980130019006
:10217000CCE704B080BD000082B00190ADF8021041
:10218000BDF802000199886202B0704782B00190E8
:10219000ADF80210BDF802000199886102B07047E5
:1021A00084B0039002910192002000900398C068CF
:1021B000009001984100032000FA01F10098884343
:1021C000009002980199490000FA01F10098084333
:1021D000009000980399C86004B0704784B00390E1
:1021E000029101920020009003988068009001996C
:1021F000012000FA01F100988843009002980199AB
:1022000000FA01F100980843009000980399886053
:1022100004B0704781B0009000994FF6FF700860DD
:1022200000990020C86000994860009A0F21516110
:10223000009988600099086101B0704780B5FFE798
:1022400049F25551C0F6000149F2AF52C0F6000202
:102250000020372303F086FFFFE70120FEF746FE4C
:1022600080BD000080B588B040F2E800C2F20000F6
:10227000007C102840F0FC80FFE740F2E800C2F24A
:102280000000B0F87800002801DCFFE7F1E040F240
:10229000E800C2F20000C07C0146079120B1FFE7D0
:1022A0000798012803D00EE0FEF7B8FF0CE040F2DB
:1022B000F010C2F20000007B022803D1FFE7FEF716
:1022C000A3FFFFE700E0FFE740F2E800C2F20000F2
:1022D000007D0146069120B1FFE70698012803D052
:1022E0000EE0FEF7CDFF0CE040F2F010C2F200006D
:1022F000007B022803D1FFE7FEF7A6FFFFE700E01F
:10230000FFE740F2E800C2F20000807D014605913F
:1023100020B1FFE70598012803D00EE001F02CFB67
:102320000CE040F2F010C2F20000007B022803D162
:10233000FFE701F005FBFFE700E0FFE740F2E80000
:10234000C2F20000C07D0146049120B1FFE704986D
:10235000012803D00EE0FFF71DFC0CE040F2F01066
:10236000C2F20000007B022803D1FFE7FFF708FC60
:10237000FFE700E0FFE740F2E800C2F20000007E65
:102380000146039120B1FFE70398012803D00EE036
:1023900000F0F4FD0CE040F2F010C2F20000007B0F
:1023A000022803D1FFE700F0DFFDFFE700E0FFE7D1
:1023B00040F2E800C2F20000407E0146029120B1E6
:1023C000FFE70298012803D00EE001F097F80CE037
:1023D00040F2F010C2F20000007B022803D1FFE7B8
:1023E00001F082F8FFE700E0FFE740F2E800C2F208
:1023F0000000807E0146019120B1FFE7019801288D
:1024000003D00EE001F05EFA0CE040F2F010C2F2F0
:102410000000007B022803D1FFE701F049FAFFE743
:1024200000E0FFE740F2E800C2F20000C07E014693
:10243000009120B1FFE70098012803D00EE0FFF7DC
:102440001BFD0CE040F2F010C2F20000007B0228FD
:1024500003D1FFE7FFF7FCFCFFE700E0FFE740F6F2
:102460003000C2F200000068002104F077FD00E0B7
:10247000FFE708B080BD000080B58CB043F200409B
:10248000C4F2020007904FF400710191FFF774FE4F
:10249000019B0798012106910022089203F038FE63
:1024A00043F60000C4F202000A9008210291FFF7EF
:1024B00063FE029B0699089A0A9803F029FE079882
:1024C0004FF400410491FFF757FE049B06990798CB
:1024D000089A03F01DFE44F20000C4F202000390CB
:1024E0004FF400510991FFF747FE03980699089AA7
:1024F000099B03F00DFE04990798FFF73DFE049B2E
:1025000006990798089A03F003FE0A9804210B9194
:10251000FFF732FE0699089A0A980B9B03F0F8FD24
:102520000A9802210591FFF727FE059B0699089A54
:102530000A9803F0EDFD05990A98FFF71DFE06992C
:102540000798089A102303F0E3FD05990A98FFF70E
:1025500013FE06990798089A402303F0D9FD089ABC
:102560000A984FF40063114603F0D2FD0798089AC9
:102570000B9B114603F0CCFD089A099B43F60040E3
:10258000C4F20200114603F0C3FD0A980B99FFF74D
:10259000FDFDFFE749F25421C0F6000149F2772220
:1025A000C0F600020020402303F0DCFDFFE70CB082
:1025B00080BD000080B582B040F2E801C2F20001A7
:1025C000019101F10E00B1F878100531FEF750FFCE
:1025D000019981F87A0091F8770091F87A10884291
:1025E00009D0FFE740F2E800C2F2000090F877005F
:1025F00008B1FFE72EE040F2E800C2F20000807B65
:1026000004280BD1FFE740F2E800C2F20000C07BD3
:10261000062803D1FFE700F08FF914E040F2E8004C
:10262000C2F20000807B02280BD1FFE740F2E800F5
:10263000C2F20000C07B062803D1FFE7FFF712FEBD
:1026400000E007E0FFE740F2E801C2F200010020ED
:102650004860FFE702B080BD40F2E001C2F2000135
:1026600000200860704700007047000070470000BD
:1026700083B0029001910198B0F86A0002998880B5
:1026800000200090FFE700980199B1F86A10884295
:102690000CD2FFE70198009A104440790299114446
:1026A0008871FFE7009801300090ECE703B07047B5
:1026B00080B50220FEF71AFC00F0E4FA80BD0000AD
:1026C0007047000080B50420FEF710FC00F0DAFA35
:1026D00080BD000080B50120FEF708FC00F0D2FAB2
:1026E00080BD00007047000080B582B0019000916D
:1026F0000198009902F02AFD02B080BD80B584B037
:10270000039000200290029B591C029140F2641138
:10271000C2F200014A1CA521D15403990978029BF9
:1027200003F1010CCDF808C0D15403994978029BFC
:1027300003F1010CCDF808C0D15403998978029BAC
:1027400003F1010CCDF808C0D15403994979029BDB
:1027500003F1010CCDF808C0D15403998988029B7C
:1027600003F1010CCDF808C0D1540190FFE70198A6
:1027700003998988884212D2FFE703980199084497
:102780008079029A511C029140F26411C2F2000158
:1027900011444870FFE7019801300190E7E7029883
:1027A000411E40F26410C2F2000000900230FEF7B9
:1027B0005FFE014600980130029A8154029901316E
:1027C00002910299FFF790FF04B080BD80B582B0FE
:1027D0008DF8070040F2E800C2F20000002101601D
:1027E000007B01460091072800F29B800099DFE8FA
:1027F00001F004141E283241718A9DF80700A528B3
:1028000003D0FFE700F090F806E040F2E801C2F2E2
:10281000000101200873FFE784E09DF8070040F203
:10282000E801C2F200018873022008737AE09DF883
:10283000070040F2E801C2F20001C87303200873E8
:1028400070E09DF8070040F2E801C2F20001087450
:102850000420087366E09DF8070040F2E801C2F228
:10286000000148749DF807000002A1F878000520D7
:10287000087357E09DF8071040F2E800C2F200002C
:1028800081749DF80720B0F878101144A0F87810F2
:10289000B0F8780038B9FFE740F2E801C2F2000171
:1028A0000720087315E040F2E800C2F20000B0F81B
:1028B0007800642809DCFFE740F2E801C2F2000179
:1028C000002088600620087302E000F02DF8FFE782
:1028D000FFE727E09DF8070040F2E801C2F200019F
:1028E0008A68531C8B600A44D0748868B1F87810E9
:1028F000884207D1FFE740F2E801C2F20001072059
:102900000873FFE70EE09DF8070040F2E801C2F20D
:10291000000181F87700012081F87B0000F004F8C5
:1029200000E0FFE702B080BD40F2E801C2F2000122
:10293000002008737047000080B584B040F2480062
:10294000C2F20000007901460391042804D0FFE799
:10295000039805280AD00AE040F2E800C2F200001D
:10296000007CB02801DBFFE7AFE00AE009E040F2BD
:10297000E800C2F20000007C102801D0FFE7A4E0CC
:10298000FFE740F2E800C2F20000007C1038014688
:102990000291312800F298800299DFE801F019498C
:1029A0004C95959595959595959595959595959520
:1029B00095959595959595959595959595959595C7
:1029C00095959595959595959595959595954F7220
:1029D00040F2E800C2F20000B0F87800002801DC04
:1029E000FFE772E040F2E800C2F20000C07C01465E
:1029F000019140B1FFE7019801280DD0FFE7019850
:102A0000022812D012E040F63000C2F20000006846
:102A1000032104F0A3FA0AE040F63000C2F20000FD
:102A20000068042104F09AFA01E000E0FFE74CE0BE
:102A300000F028F949E000F025F946E040F2E8000E
:102A4000C2F20000B0F87800012801DCFFE73CE0AA
:102A500040F2E800C2F20000C07C70B9FFE740F22B
:102A6000E800C2F20000007D18B9FFE7FEF7D6FBD0
:102A700002E0FEF7C9FBFFE700E0FFE700F002F924
:102A800023E040F2E800C2F20000B0F8780001282C
:102A900001DCFFE719E040F2E800C2F20000C07C70
:102AA00070B9FFE740F2E800C2F20000007D18B9FB
:102AB000FFE7FEF7E5FB02E0FEF7C6FBFFE700E0FD
:102AC000FFE700F0DFF800E0FFE704B080BD0000A2
:102AD00080B540F24800C2F20000007904380128B5
:102AE00001D8FFE714E040F2D800C2F2000001680C
:102AF000013101600068C82809D3FFE740F2D8011E
:102B0000C2F200010020086000F04CF8FFE7FFE788
:102B100040F2E800C2F2000000684F280FD8FFE73B
:102B200040F2E800C2F20000016801310160006873
:102B3000502803D3FFE7FFF7F7FEFFE7FFE740F278
:102B4000E800C2F200004068C0087C2816D8FFE701
:102B500040F2E800C2F20000416801314160406883
:102B6000B0F57A7F09D3FFE740F63000C2F20000EB
:102B70000068012104F0F2F9FFE7FFE740F2E80006
:102B8000C2F2000090F87B0050B1FFE740F2E8018C
:102B9000C2F20001002081F87B00FFF70BFDFFE788
:102BA00080BD000080B582B0642003F0A9FF0190D1
:102BB000019906200870019902204870019910209F
:102BC000887001990B20888040F23C70C2F20000AE
:102BD00000790199887140F24470C2F200000079D6
:102BE0000199C87101990020087240F2F010C2F2F8
:102BF0000000407B0199487240F68C20C2F2000030
:102C000000790199887240F25470C2F20000007994
:102C10000199C87240F62400C2F2000000790199BF
:102C2000087340F63800C2F2000000790199487339
:102C300040F67C20C2F2000000790199887340F2CE
:102C4000D000C2F2000000790199C87340F2B86266
:102C5000C2F2000292F83C0092F8483092F8541008
:102C600092F8602040EA430040EA820040EAC10056
:102C7000019908740198FFF741FD019803F0C4FC25
:102C800002B080BD80B58AB0642003F039FF09909E
:102C900040F2E800C2F20000C17B099A1170817B0A
:102CA000099A5170017C099A9170099A00219180CA
:102CB000007C01460791102811D0FFE707981128E2
:102CC00030D0FFE7079812284BD0FFE7079840382D
:102CD000022859D3FFE70798B22823D05DE009986E
:102CE00040F2E801C2F200010E31FFF7C1FC40F2F0
:102CF0004800C2F20000007901460691042804D081
:102D0000FFE70698052804D007E00999012088719B
:102D100007E009990220887103E009990020887171
:102D2000FFE73BE00998063049F2D041C0F60001C8
:102D30006A4611610021D1600123936051601160E6
:102D400049F2E141C0F6000149F2D942C0F6000261
:102D500049F2C443C0F6000304F066FC0999888078
:102D60001CE00999042088800020089040F2D001DE
:102D7000C2F2000109798DF820108DF8220009991E
:102D80000898C1F8060009E0099840F2E801C2F28B
:102D900000010E31FFF76CFC00E0FFE70998FFF738
:102DA000ADFC099803F030FC0AB080BD80B582B05C
:102DB0000190019801F064FB02B080BD80B584B041
:102DC00040F2CC10C2F20000C068322875D1FFE793
:102DD00040F68420C2F2000000790146039120B140
:102DE000FFE7039801280DD018E040F2B860C2F266
:102DF000000090F85400012803D1FFE700F080FDA7
:102E0000FFE70CE040F2B860C2F2000090F8540016
:102E100018B9FFE700F07EFDFFE700E0FFE740F2B2
:102E20004C70C2F2000000790146029120B1FFE728
:102E3000029801280CD017E040F2F010C2F2000016
:102E4000007B022803D1FFE7FEF760FBFFE70CE001
:102E500040F2F010C2F20000007B022803D0FFE72E
:102E6000FEF75EFBFFE700E0FFE740F25C70C2F2B6
:102E7000000000790146019120B1FFE70198012887
:102E80000DD018E040F2B860C2F2000090F83000B7
:102E9000012803D1FFE7FFF735F8FFE70CE040F228
:102EA000B860C2F2000090F8300018B9FFE7FFF7F1
:102EB00033F8FFE700E0FFE7FFE704B080BD000064
:102EC00080B586B000F092FD49F2AD71C0F6000108
:102ED0000020059000F00CFE059841F22401C4F298
:102EE00002010A6849F22371C0F6000100F000FEF9
:102EF000059849F26571C0F6000100F0F9FD059BE7
:102F000049F60100C0F600006946C86049F2F57054
:102F1000C0F6000088604B600120086049F2E7615C
:102F2000C0F6000118461A4600F0E2FD059849F285
:102F30009E61C0F6000100F0DBFD06B080BD000020
:102F400080B543F60000C4F202000221FFF71EF92B
:102F500080BD000080B543F60000C4F202000221EB
:102F6000FFF70AF980BD000080B5FFF7E9FF40F6E2
:102F70002401C2F200010120087180BD80B5FFF775
:102F8000E9FF40F62401C2F200010020087180BD73
:102F900080B500F029FC80BDFFE7FEE780B540F278
:102FA000CC10C2F20000C068322869D1FFE7FEF7FA
:102FB0009DFD00F04FFA00F02BFCFEF7C5F8FEF780
:102FC0003BF8FEF77DF801F0D1FF03F095F80128FA
:102FD00017D1FFE740F2B861C2F20001C86D0130BD
:102FE000C8653D280CD3FFE701F09CFF022005F0E7
:102FF000D9FA40F2B861C2F200010020C865FFE7CB
:10300000FFE703F07FF801281DD1FFE740F2EC1045
:10301000C2F20000007870B9FFE740F2EC11C2F292
:1030200000010120087040F2B861C2F200010020E6
:10303000C1F8800003E00120FDF748FFFFE7022010
:1030400005F0BCFA1BE040F2B861C2F20001D1F811
:1030500080000130C1F8800015280FD3FFE740F24F
:10306000EC11C2F200010020087040F2B861C2F217
:103070000001C1F88000FDF729FFFFE7FFE7FFE748
:1030800080BD000080B582B08DF8070040F2F011DD
:10309000C2F2000100910020086000F039F80099A8
:1030A0009DF8070048730320087302B080BD00003C
:1030B00080B540F2F011C2F200010020086040F239
:1030C0003C70C2F20000007901280BD1FFE700F04C
:1030D00023F840F2F011C2F20001002048730420EE
:1030E000087308E040F63000C2F2000000680621D4
:1030F00003F034FFFFE780BD40F2F011C2F200019F
:103100000020086001220A73486088607047000050
:1031100080B5FEF751FD80BD80B5FEF74DFDFEF791
:1031200097FEFEF771F800F0C3FB80BD80B582B05A
:1031300040F2F011C2F200010091002001900860FD
:10314000FFF7E6FF009901984873087302B080BD4D
:1031500080B582B040F2F010C2F20000007B014660
:103160000191042800F2AA800199DFE801F003042C
:1031700037617300A3E0FFE749F2E551C0F60001B3
:1031800049F25D62C0F600020020522302F0EAFF1D
:10319000FFE740F2B860C2F2000090F8300001286A
:1031A00012D1FFE7FFE749F22E61C0F6000149F2B4
:1031B0005D62C0F600020320552302F0D3FFFFE753
:1031C0000120FFF75FFF08E040F2F011C2F20001BA
:1031D0000020086002200873FFE770E0FFE749F273
:1031E000C251C0F6000149F25D62C0F60002002043
:1031F000622302F0B7FFFFE740F2B860C2F20000BE
:1032000090F83000012812D1FFE7FFE749F22E6164
:10321000C0F6000149F25D62C0F60002032065239A
:1032200002F0A0FFFFE70120FFF72CFFFFE746E0D9
:1032300040F2B860C2F2000090F8300048B9FFE7F1
:1032400040F63000C2F200000068062103F086FE5E
:10325000FFE734E040F2F011C2F2000108680130EB
:103260000860FFE749F20A61C0F6000149F25D62B9
:10327000C0F600020020752302F074FFFFE740F261
:10328000F010C2F200000068B0F57A7F15D3FFE7B6
:1032900040F2F011C2F2000100200860FEF7ECFDE0
:1032A000FDF7BCFF00F00EFB40F63000C2F200005C
:1032B0000068062103F052FEFFE700E0FFE702B0DE
:1032C00080BD00007047000080B54FF00060002115
:1032D00000F058F880BD000084B0039000200290F8
:1032E00001900F2000900398C078C0B3FFE74EF61E
:1032F0000C50CEF200000068C043C0F302200290E0
:103300000298C0F10400019000980299C840009012
:10331000039840780199884002900398807800993A
:10332000014002980843029002980001029002981E
:10333000039909784EF20042CEF2000288540398B5
:10334000027802F01F01012088404EF20011CEF2F7
:10335000000141EAD20121F0030108600FE0039867
:10336000027802F01F01012088404EF28011CEF257
:10337000000141EAD20121F003010860FFE704B037
:103380007047000082B001900091019800994FF6BB
:103390008072C1F6FF72114008434EF60851CEF21A
:1033A0000001086002B0704780B586B040F2A520E9
:1033B000C1F6FF70059000200490009042F20001D9
:1033C000C4F20201086820F080000860086840F03C
:1033D00040000860059A4FF22000C1F6FF7004A972
:1033E00090479DF81000052828D8FFE7059A4FF26E
:1033F0003020C1F6FF7004A990479DF81300039098
:103400009DF812000004000A02909DF811000004CB
:10341000019003980299084301990843049041F6EA
:103420000401C4F20001086800F07F400090049A93
:103430000098104300900098086000E0FFE742F217
:103440000001C4F20201086840F08000086006B084
:1034500080BD000082B0002001908DF8030040F68E
:103460009420C2F20000B0F848014921414348F2DB
:103470006910C6F61600A1FB0020091A00EB5100E6
:103480008009019040F63800C2F20000007901285E
:1034900004D0FFE700208DF803000DE0019800093B
:1034A000AE2804D8FFE700208DF8030003E00120D8
:1034B0008DF80300FFE7FFE79DF8030040F2B861D5
:1034C000C2F2000108730198086102B07047000061
:1034D00080B50020FDF7B4FF80BD000080B54FF43B
:1034E0001670FDF7ADFF80BD80B5FFF7F7FF40F622
:1034F0003801C2F200010120087180BD80B5FFF7DC
:10350000E7FF40F63801C2F200010020087180BDDB
:1035100083B0029001910020009041F22C01C4F28E
:10352000020108680090009820F4806000900098E4
:1035300020F478400090029A009810430090019A7D
:103540000098104300900098086003B07047000096
:1035500082B001900020009041F22C01C4F20201DF
:1035600008680090009820F00F000090019A0098E1
:10357000104300900098086002B0704741F280014B
:10358000C4F20201086840F00100086070470000C2
:1035900041F22C01C4F20201086820F48070086036
:1035A0007047000082B001900020009041F22C0191
:1035B000C4F2020108680090009820F4F8700090AE
:1035C000019A0098104300900098086002B070477C
:1035D00081B00090009A41F21401C4F2020108681F
:1035E0001043086001B0704781B00090009A41F22A
:1035F0001C01C4F2020108681043086001B0704762
:1036000081B00090009A41F21801C4F202010868EA
:103610001043086001B0704787B006900020059005
:10362000049003900290019041F20400C4F2020061
:1036300001680022C0F63C0211400391006800F4CA
:10364000803002909DF80F000007002806D4FFE7A5
:103650000399022000EB9140039006E003996FF478
:10366000F77000EB91400390FFE70298C8B9FFE7BD
:1036700041F24000C4F202000068C00740B1FFE719
:10368000039840F60011C0F23D014843049007E062
:10369000039841F20021C0F27A0148430490FFE709
:1036A00019E041F20400C4F202000068800300281F
:1036B00008D5FFE7039840F60011C0F23D014843EA
:1036C000049007E0039841F20021C0F27A014843D8
:1036D0000490FFE7FFE741F20400C4F20200006833
:1036E00000F00C0005900598009040B1FFE70098AD
:1036F00004280BD0FFE7009808280ED011E00699A7
:1037000041F20020C0F27A00086011E0069941F20F
:103710000020C0F27A0008600AE004980699086068
:1037200006E0069941F20020C0F27A000860FFE747
:1037300041F20401C4F202010868C0B20009059018
:10374000059A48F65870C0F60000825C0192069B0C
:103750001A68DDF804C022FA0CF25A600A68C2F353
:1037600002220592059A825C0192069B5A68DDF856
:1037700004C022FA0CF29A600968C1F3C2210591D3
:103780000599405C019006994868019AD040C8604C
:1037900041F22C00C4F20200016801F00F01059112
:1037A000059A48F62871C0F60001895C0191069AD5
:1037B0005168019BB1FBF3F151610068C0F3041043
:1037C0000590059800F00F0148F63870C0F600002B
:1037D00030F81100019004980199B0FBF1F00699BE
:1037E000086107B07047000080B58020FFF7F0FE49
:1037F0004FF48070FFF7ECFE4FF40070FFF7E8FE27
:103800004FF48060FFF7E4FE0120FFF7F9FE80BD72
:1038100082B0002001908DF8030040F69420C2F29F
:103820000000B0F846014921414348F26910C6F64C
:103830001600A1FB0020091A00EB5100800901903D
:1038400040F67C20C2F200000079012804D0FFE796
:1038500000208DF803000CE00198632804D8FFE7EE
:1038600000208DF8030003E001208DF80300FFE73E
:10387000FFE79DF8030040F2B861C2F2000108764C
:103880000198C86102B0704780B543F20040C4F2AD
:1038900002004021FEF77AFC80BD000080B543F2B3
:1038A0000040C4F202004021FEF766FC80BD00002B
:1038B00080B5FFF7E9FF40F67C21C2F2000101204C
:1038C000087180BD80B5FFF7E9FF40F67C21C2F2A8
:1038D00000010020087180BD80B543F60000C4F2ED
:1038E00002000821FEF748FC80BD000080B543F6C9
:1038F0000000C4F202000821FEF748FC80BD000071
:1039000080B5FFF7F3FF40F68421C2F200010120E9
:10391000087180BD80B5FFF7DFFF40F68421C2F259
:1039200000010020087180BD80B54FF4AF70FDF735
:103930008FFD80BD80B50020FDF78AFD80BD0000B1
:1039400080B540F67C20C2F200000079012812D137
:10395000FFE740F2B860C2F2000090F8780001285A
:1039600009D1FFE7FFF7E0FF40F68C21C2F200012A
:1039700001200871FFE780BD80B5FFF7DBFF40F64F
:103980008C21C2F200010020087180BD80B582B098
:1039900040F2CC10C2F20000C068322823D1FFE709
:1039A00040F68C20C2F2000000790146019120B15E
:1039B000FFE70198012801D013E013E040F2B8605E
:1039C000C2F20000007E40B1FFE740F2B860C2F2F0
:1039D000000090F8780018B9FFE7FFF7CDFFFFE788
:1039E00000E0FFE7FFE702B080BD000080B501F016
:1039F0007BFE80BD80B586B005900491039240F2B5
:103A00000020C2F200000190FFE70198007818B989
:103A1000FFE701F069FEFFE7FFE7EFF311804FF0EA
:103A2000200181F31188009005980499039A00F011
:103A300007F80290009880F31188029806B080BDC4
:103A400080B58AB009900891079208980490099867
:103A500000EB400140F20020C2F2000000EBC10088
:103A60001830039003984069029040B1FFE7029834
:103A7000012819D0FFE7029802282CD032E00398E1
:103A800001F084FE059005980799884203D2FFE76C
:103A90000020069007E00798069003980499079A7B
:103AA00002F0FEF8FFE720E0039801F06FFE0590BA
:103AB00005980799884203D2FFE70598019002E034
:103AC00007980190FFE70198069003980499069AD9
:103AD00002F0E6F809E003980499079A02F06EF8FC
:103AE000069002E000200690FFE706980AB080BD2D
:103AF00082B080B584B0079306920390029106A825
:103B00000090039802996A4600F008F80190019825
:103B100004B0BDE8804002B07047000080B5A4B09A
:103B200023902291219207A81B9040201C900020F6
:103B30001D9023991F911E90FFE7229800788DF821
:103B400083002298013022909DF8830008B9FFE796
:103B50006DE19DF88300252840F05C81FFE700209F
:103B6000189001201A90FFE7229800788DF88300C2
:103B70009DF883002338014604910D2829D8049923
:103B8000DFE801F01F2727272727272717270727E1
:103B9000270F189840F001001890229801302290C9
:103BA0001AE0189840F002001890229801302290F4
:103BB00012E0189840F004001890229801302290EA
:103BC0000AE0189840F008001890229801302290DE
:103BD00002E000201A90FFE7FFE71A980028C3D1FF
:103BE000FFE700201790FFE7229800788DF8830008
:103BF0009DF88300302805DBFFE79DF883003A2815
:103C000001DBFFE710E0229801302290179800EBCB
:103C100080019DF8830000EB410030381790FFE7EA
:103C200001200028E0D1FFE70020199022980078B9
:103C30008DF883009DF883002E2825D1FFE7229878
:103C400001302290FFE7229800788DF883009DF8DC
:103C50008300302805DBFFE79DF883003A2801DB6D
:103C6000FFE710E0229801302290199800EB8001C4
:103C70009DF8830000EB410030381990FFE70120E8
:103C80000028E0D1FFE7FFE7229800788DF8830055
:103C9000FFE79DF883006C2805D0FFE79DF88300BF
:103CA000682808D1FFE722980130229022980078F6
:103CB0008DF8830000E004E0FFE701200028E8D150
:103CC000FFE79DF8830001460391252800F09880C6
:103CD000FFE7039858284FD0FFE70398632814D0D4
:103CE000FFE7039864281FD0FFE70398702876D079
:103CF000FFE70398732853D0FFE70398752827D070
:103D0000FFE70398782837D07FE0219A1068011DDB
:103D1000116000681A901A988DF81B009DF81B100E
:103D20001BA801F00FFF71E0219A1068011D1160BE
:103D300000681A901A99199B1798DDF860C06A46B6
:103D4000C2F804C010601BA80A2201F03FFD5DE02C
:103D5000219A1068011D116000681A901A99199B28
:103D60001798DDF860C06A46C2F804C010601BA84E
:103D70000A2201F011FE49E0219A1068011D11602C
:103D800000681A901A99199B1798DDF860C06A4666
:103D9000C2F804C010601BA8102201F0FDFD35E040
:103DA000219A1068011D116000680590FFE70598D1
:103DB00000788DF883000598013005909DF8830008
:103DC00008B9FFE70AE09DF883101BA801F0BAFECE
:103DD000FFE71E98B0F1FF3FE9DCFFE716E0219A0C
:103DE0001068011D116000681A901A996846002237
:103DF0004260082303601BA8102201F0CDFD05E0FE
:103E00001BA8252101F09EFE00E0FFE7229801306B
:103E1000229005E09DF883101BA801F093FEFFE7B8
:103E2000FFE71E98B0F1FF3F3FF787AEFFE71E9810
:103E300001280EDBFFE71D9830B1FFE723981D9A9C
:103E400007A9FFF7D7FDFFE71D991E9808441E90AC
:103E5000FFE71E9824B080BD7047000080B582B097
:103E6000009000980138B0F1807F03D3FFE7012074
:103E7000019019E0009801384EF21401CEF20001D1
:103E800008604FF0FF300F2101F050FF4EF2180193
:103E9000CEF20001002008604EF21002CEF20002C5
:103EA000072111600190FFE7019802B080BD00007A
:103EB00080B502F099FC03F09FFE02F0A7FC80BDE4
:103EC00080B586B0002004908DF80F00029041F27A
:103ED0000001C4F20201086840F001000860FFE739
:103EE00041F20000C4F202000068C0F340008DF807
:103EF0000F00029801300290FFE79DF80F1000209C
:103F0000C907019039B9FFE70298B0F5A06018BF62
:103F100001200190FFE70198C0070028E0D1FFE7EA
:103F200041F20000C4F202000068C0F340008DF8C6
:103F30000F009DF80F00C00750B9FFE740F20001E5
:103F4000C2F2000141F20020C0F27A00086069E08C
:103F500042F20001C4F20201086820F00700086084
:103F6000086840F00300086041F20401C4F2020155
:103F7000009108680860086840F40050086008680C
:103F800040F4A0600860FFF70FFA009A10684FF63F
:103F9000FF71CFF2C0710840106041F24001C4F2DD
:103FA0000201086820F0010008601068059005987B
:103FB0000590049840F00100049005980023C0F695
:103FC0003C0318430590059810600498086041F27E
:103FD0000001C4F20201086840F080700860FFE749
:103FE00041F20000C4F2020000688001002801D400
:103FF000FFE7F5E741F20401C4F20201086820F08E
:1040000003000860086840F002000860FFE741F222
:104010000400C4F20200006800F00C00082801D07F
:10402000FFE7F4E706B080BD80B54EF68851CEF2CA
:104030000001086840F47000086041F20002C4F218
:104040000202106840F00100106041F20401C4F265
:10405000020108684CF20C03CFF67F031840086099
:1040600010684FF6FF73CFF6F663184010601068C3
:1040700020F48020106008684FF6FF72CFF2C07203
:104080001040086041F22C01C4F202014FF460506C
:10409000086041F24001C4F20201086840F00100EA
:1040A000086041F20801C4F202010020C0F29F4002
:1040B000086041F21C01C4F20201086840F080501F
:1040C0000860086820F08050086042F20001C4F2E5
:1040D0000201086840F080000860086820F01000C5
:1040E0000860FFF7EDFE4EF60851CEF200014FF0EA
:1040F0000060086080BD000081B00090009842F62A
:104100003441C4F20101086001B0704781B00090F1
:10411000009842F63C41C4F20101086001B07047CA
:1041200081B00090009842F64041C4F2010108605D
:1041300001B0704780B58AB004A80390FEF76AF812
:1041400003990220059008904FF48070049003209A
:104150000190099043F20040C4F202000290FDF782
:10416000CDFF019A029803994FF48063049309925A
:10417000FDF7C4FF019A029803994FF4006304937A
:104180000992FDF7BBFF0AB080BD000080B58EB07C
:104190004FF40060FFF734FA01200190FFF730FA86
:1041A000FFF7C8FF40F2E730ADF82C0040F2000006
:1041B000C2F20000006844F6D351C1F26201A0FBD4
:1041C00001208009A0FB01014FF0FF3000EB9110AE
:1041D000ADF8280000200290ADF82E00ADF82A00BE
:1041E00042F60040C4F2010005900AA900F0ECFA82
:1041F00006A8039000F074FE019B029A03990598AB
:104200004FF0600CADF818C0ADF81A30ADF82020B2
:1042100000F03EFC05980821049100F0B7FC0399DA
:10422000059800F0D1FC0499059800F04FFD039922
:10423000059800F069FD0499059800F0F5FD0598D2
:1042400000F01CFC059800F061FEFFE749F2AA218E
:10425000C0F6000149F2CD22C0F6000200204E2334
:1042600001F080FFFFE70EB080BD000080B586B092
:104270000120FFF7B9F94FF6FF70ADF80C00FDF71C
:1042800017F944F6D351C1F26201A0FB0120800965
:10429000A0FB01014FF0FF3000EB9110ADF80800DA
:1042A0000020ADF80E00ADF80A004FF080400190FC
:1042B00002A900F089FA019800F0E0FBFFE749F25B
:1042C000D721C0F6000149F2FA22C0F60002002010
:1042D000152301F047FFFFE706B080BD81B00090D5
:1042E000009840F23C41C4F20001086001B0704700
:1042F00080B588B002A80190FDF78CFF01990220DB
:1043000003900690012002900320079043F60000DE
:10431000C4F20200FDF7F2FE08B080BD80B58CB09B
:10432000002000900B90FFF7E3FF0220FFF75CF9FD
:1043300040F2E730ADF82000FDF7BAF801460098EA
:1043400044F6D352C1F26202A1FB02318909A1FBFA
:1043500002124FF0FF3101EB9211ADF81C10ADF8D5
:104360002200ADF81E0040F20040C4F200000290AE
:1043700007A900F029FA03A8019000F0B1FD009A06
:10438000019902986023ADF80C300123ADF80E308E
:10439000ADF8142000F018FC0298082100F096FCFB
:1043A000029800F06BFB029800F0B0FDFFE749F2C5
:1043B0000431C0F6000149F22732C0F600020020A5
:1043C000342301F0CFFEFFE70CB080BD80B58AB08A
:1043D0000420FFF709F93120ADF81C00FDF768F85B
:1043E00044F6D351C1F26201A0FB01208009A0FB79
:1043F00001014FF0FF3000EB9110ADF818000020E4
:104400000090ADF81E00ADF81A0040F60000C4F2AE
:104410000000019006A900F0D7F9009901986022E8
:10442000ADF808200122ADF80A20ADF8101002A95D
:1044300000F06AFC0198082100F0F6FC019800F0F9
:1044400039F940F64001C4F200010A200860FFE794
:1044500049F23131C0F6000149F25432C0F600028F
:104460000020242301F07EFEFFE70AB080BD00009B
:1044700080B540F60000C4F2000000F0FFFA80BDF5
:1044800081B00090009840F63441C4F20001086009
:1044900001B0704780B540F60040C4F20000022130
:1044A00000F0CAFA80B1FFE740F60040C4F2000015
:1044B000022100F0B7FA43F20040C4F202004FF4C8
:1044C0000071FDF759FE21E040F60040C4F2000003
:1044D000012100F0B1FAC0B1FFE740F60040C4F29C
:1044E0000000012100F09EFA40F63440C4F20000C2
:1044F000006848B1FFE743F20040C4F202004FF405
:104500000071FDF743FEFFE7FFE7FFE780BD000016
:1045100080B586B00820FFF767F801200090FFF70C
:104520006FF86320ADF80C00FCF7C2FF44F6D351DE
:10453000C1F26201A0FB01208009A0FB01014FF044
:10454000FF3000EB9110ADF808000020ADF80E0030
:10455000ADF80A0040F60040C4F20000019002A944
:1045600000F032F90198032100F050FA00992F2051
:1045700000F014F8019800F081FAFFE749F25E318B
:10458000C0F6000149F28132C0F60002002031235A
:1045900001F0E8FDFFE706B080BD000080B582B005
:1045A0008DF807008DF806109DF807008DF80000C3
:1045B00000208DF8010001208DF802009DF8060012
:1045C000012804D1FFE701208DF8030003E000205B
:1045D0008DF80300FFE76846FEF77EFE02B080BD5F
:1045E00080B502F001F941F20000C4F2000001219F
:1045F00000F022FA78B1FFE740F6E430C2F20000A2
:10460000006802F085FF41F20000C4F200000121C1
:1046100000F008FAFFE702F0F9F880BD80B58CB031
:104620001020FEF7E1FF40F2E730ADF82400FCF780
:104630003FFF44F6D351C1F26201A0FB0120800983
:10464000A0FB01014FF0FF3000EB9110ADF820000E
:104650000020ADF82600ADF8220041F20000C4F2BF
:104660000000029008A900F0AFF802980121019122
:1046700000F0CCF9019830218DF80C108DF80D0068
:104680008DF80E008DF80F0003A8FEF725FE0298A6
:1046900000F0F4F9FFE749F28B31C0F6000149F26E
:1046A000AE32C0F6000200201E2301F05BFDFFE7E2
:1046B0000CB080BD81B000900099086840F0800087
:1046C000086001B07047000082B00190ADF80210A0
:1046D000BDF802000199888502B0704782B0019050
:1046E0008DF803109DF80300C00730B1FFE7019972
:1046F000086840F40060086005E00199086820F44B
:1047000000600860FFE702B07047000082B00190CF
:104710008DF803109DF80300C00730B1FFE7019941
:10472000086840F48050086005E00199086820F4AA
:1047300080500860FFE702B07047000082B001902F
:104740008DF803109DF80300C00730B1FFE7019911
:10475000086840F40050086005E00199086820F4FA
:1047600000500860FFE702B07047000082B001907F
:104770008DF803109DF80300C00730B1FFE70199E1
:10478000086840F48040086005E00199086820F45A
:1047900080400860FFE702B07047000083B00290DD
:1047A000019100200090029800680090009820F08D
:1047B00070000090019900980843009000980299B9
:1047C000086003B07047000080B582B0019000918E
:1047D000019841F20001C4F2000188420BD0FFE7CA
:1047E000019800994988FFF7D9FF01980099C98875
:1047F00000F0FAF800E0FFE7019800998988FFF7D8
:1048000063FF01980099098800F090F8019842F63A
:104810000041C4F20101884208D0FFE7019843F249
:104820000041C4F20101884206D1FFE701980099D6
:10483000097A00F08FF800E0FFE70198012100F00D
:104840007FF8019841F20001C4F20001884208D0CB
:10485000FFE701980099497A01F00101FFF73EFF57
:1048600000E0FFE7019842F60041C4F201018842EE
:104870001DD0FFE7019843F20041C4F201018842D4
:1048800015D0FFE70198B0F1804F10D0FFE70198F5
:1048900040F20041C4F20001884208D0FFE70198CD
:1048A00040F60001C4F20001884208D1FFE70198F8
:1048B0000099497B01F0010100F020F800E0FFE7DA
:1048C0000198B0F1804F16D1FFE701980099897ADD
:1048D00001F00101FFF71AFF01980099C97A01F070
:1048E0000101FFF72BFF01980099097B01F00101FD
:1048F000FFF73CFF00E0FFE702B080BD82B001900F
:104900008DF803109DF80300C00730B1FFE701994F
:10491000086840F40040086005E00199086820F448
:1049200000400860FFE702B07047000082B00190CD
:10493000ADF80210BDF802000199088502B0704779
:1049400082B00190ADF80210BDF802000199888292
:1049500002B0704782B001908DF803109DF80300FB
:104960000199088602B0704782B00190ADF802103C
:10497000BDF80210012000FA01F20199086A904383
:10498000086202B07047000082B00190ADF80210DA
:10499000BDF80210012000FA01F20199086A1043E3
:1049A000086202B07047000082B00190ADF80210BA
:1049B000BDF80210042000FA01F20199086A904340
:1049C000086202B07047000082B00190ADF802109A
:1049D000BDF80210042000FA01F20199086A1043A0
:1049E000086202B07047000082B00190ADF802107A
:1049F0000199086820F440700860BDF80220019910
:104A000008681043086002B07047000082B001904F
:104A1000ADF80210BDF80220019988891043888101
:104A200002B0704782B0019000910098C043019994
:104A3000086102B07047000085B003900291002029
:104A40000190009003980069029908400190039832
:104A50008089029908400090019838B1FFE70098DA
:104A600020B1FFE701208DF8130003E000208DF84E
:104A70001300FFE79DF8130005B0704781B0009068
:104A80000099086840F00100086001B0704700001C
:104A900080B586B00590049100210191ADF80E100B
:104AA00002910598FFF760FF019A0598406802900F
:104AB0000598008BADF80E00BDF80E0020F07000D8
:104AC000ADF80E00BDF80E0020F00300ADF80E00AA
:104AD00004980188BDF80E000843ADF80E00059853
:104AE0000499098900F0DEF90498408828B1FFE7AD
:104AF00005980021FFF748FF04E005980021FFF723
:104B000033FFFFE7059842F60041C4F201018842F5
:104B100008D0FFE7059843F20041C4F20101884242
:104B200027D1FFE7059804994989002200F09CF9F4
:104B30000498808828B1FFE705980021FFF744FF1B
:104B400004E005980021FFF72FFFFFE7029820F40B
:104B500080700290029820F400700290049881897D
:104B60000298084302900498C18902980843029071
:104B7000FFE7029805994860BDF80E000599088383
:104B80000498C0880599486306B080BD82B0019042
:104B9000ADF802100020ADF800000198008BADF8D0
:104BA0000000BDF8000020F00800ADF80000BDF8DE
:104BB0000210BDF800000843ADF80000BDF8000089
:104BC0000199088302B0704780B586B005900491C2
:104BD0000020ADF80E000290059808210191FFF722
:104BE000C3FE019A0598406802900598C069ADF827
:104BF0000E00BDF80E0020F07000ADF80E00BDF8FC
:104C00000E0020F00300ADF80E0004980188BDF8F6
:104C10000E000843ADF80E0005980499098900F0CC
:104C200041F90498408828B1FFE705980821FFF76B
:104C3000ABFE04E005980821FFF796FEFFE7059814
:104C400042F60041C4F20101884208D0FFE705980E
:104C500043F20041C4F20101884229D1FFE70598DF
:104C600004994989082200F0FFF80498808828B147
:104C7000FFE705980821FFF7A7FE04E00598082143
:104C8000FFF792FEFFE7029820F48050029002980E
:104C900020F40050029004988189029840EA0110A3
:104CA00002900498C189029840EA01100290FFE73F
:104CB000029805994860BDF80E000599C8610498EE
:104CC000C0880599C86306B080BD000082B001901D
:104CD000ADF802100020ADF800000198C069ADF8F1
:104CE0000000BDF8000020F00800ADF80000BDF89D
:104CF0000210BDF800000843ADF80000BDF8000048
:104D00000199C86102B0704780B586B005900491E2
:104D10000020ADF80E00029005980C210191FFF7DC
:104D200023FE019A0598406802900598C069ADF885
:104D30000E00BDF80E0020F4E040ADF80E00BDF806
:104D40000E0020F44070ADF80E0004980188BDF804
:104D50000E0040EA0120ADF80E000598049909897B
:104D600000F0A0F80498408828B1FFE705980C21CE
:104D7000FFF70AFE04E005980C21FFF7F5FDFFE7B9
:104D8000059842F60041C4F20101884229D1FFE7AB
:104D90000598049949890C2200F066F804988088E7
:104DA00028B1FFE705980C21FFF70EFE04E00598F7
:104DB0000C21FFF7F9FDFFE7029820F480400290F4
:104DC000029820F40030029004988189029840EA09
:104DD000811002900498C189029840EA0120029053
:104DE00014E0059843F20041C4F2010188420BD15E
:104DF000FFE7029820F4804002900498818902988D
:104E000040EA8110029000E0FFE7FFE70298059971
:104E10004860BDF80E000599C8610498C0880599DE
:104E2000086406B080BD000082B00190ADF80210A9
:104E30000020ADF800000198C069ADF80000BDF891
:104E4000000020F40060ADF80000BDF80210BDF8CD
:104E5000000040EA0120ADF80000BDF80000019913
:104E6000C86102B07047000084B003900291ADF8B1
:104E700006200398006A0090BDF80610082000FA8A
:104E800001F10098884300900298BDF8061000FADE
:104E900001F100980843009000980399086204B05B
:104EA0007047000084B003900291ADF8062003988B
:104EB000006A0090BDF80610022000FA01F1009887
:104EC000884300900298BDF8061000FA01F100989E
:104ED0000843009000980399086204B070470000EE
:104EE00081B00090009900200880009948800099C6
:104EF00088800099C88000990881009948810099AC
:104F000088810099C88101B07047000081B000908D
:104F10000099B1F8440040F40040A1F8440001B009
:104F20007047000080B582B0002001908DF803002A
:104F300043F60000C4F202004FF48061FDF77CF8F4
:104F4000012804D1FFE700208DF8030003E00120D1
:104F50008DF80300FFE79DF8030040F2B861C2F24C
:104F6000000181F8540002B080BD000080B582B01D
:104F7000002001908DF8030043F60040C4F20200C7
:104F80004FF40051FDF758F8012804D1FFE7002045
:104F90008DF8030003E001208DF80300FFE79DF882
:104FA000030040F2B861C2F2000181F8480002B08B
:104FB00080BD000081B00090009810F1030F04D86C
:104FC000FFE7009801300090FFE7009801B07047BC
:104FD00080B58AB004A80390FDF71CF9039902205C
:104FE00005904020049001200190099043F60000B4
:104FF000C4F202000290FDF781F8019A0298039929
:1050000000230593802304930992FDF777F80AB0F3
:1050100080BD000080B582B043F60000C4F20100FC
:1050200040F2255100F0F2F9D8B3FFE743F6000053
:10503000C4F2010000F02AF98DF8070040F2A470D4
:10504000C2F200000088B0F5007F0FD1FFE740F208
:10505000A471C2F200010020088040F6E830C2F2DC
:1050600000004FF40071FBF724F9FFE79DF80700FB
:1050700040F2A473C2F200031A88511C198040F652
:10508000E831C2F2000188549DF8070000F090F862
:1050900043F60000C4F2010040F2255100F09CF9F3
:1050A000FFE702B080BD000080B588B04FF48040BB
:1050B000FEF7A6FAFFF78CFF04A8019000F03CFA77
:1050C00001994FF4E13004900020ADF81400ADF8E0
:1050D0001600ADF81800ADF81C000C20ADF81A0051
:1050E00043F60000C4F20100029000F01DF902989E
:1050F000802100F0BFF83020C4F20200FCF73EFB34
:10510000029840F2255100F033F924208DF80C006C
:1051100001208DF80D008DF80E008DF80F0003A80A
:10512000FEF7DAF8029800F0C5F8FFE749F2B83167
:10513000C0F6000149F2DD32C0F600020020412332
:1051400001F010F8FFE708B080BD000080B584B022
:105150000390029100200190FFE701980299884294
:105160000AD2FFE703980199405C00F007F8FFE7D7
:10517000019801300190F0E704B080BD80B582B0A5
:105180008DF807009DF8071043F60000C4F20100F7
:1051900000F084F8FFE743F60000C4F2010040216C
:1051A00000F092F808B9FFE7F5E702B080BD000013
:1051B00080B582B08DF807009DF80700FDF706FB6B
:1051C00002B080BD80B58EB00D900C9100200B9088
:1051D0000A900990089007900D98079001A8FEF793
:1051E0001BFA079843F60001C4F20101884210D06F
:1051F000FFE7079845F20001C4F20101884208D098
:10520000FFE7079845F20041C4F20101884203D14B
:10521000FFE704980A9002E003980A90FFE70A98D3
:10522000192148430C998900B0FBF1F009900998C5
:1052300048F21F51C5F2EB11A0FB01026FF00F0005
:1052400000EA52000B90099B0B980009642200FBB6
:1052500012300890089A322000EB0210A0FB0110D7
:10526000C0F343110B9808430B900B980D990881DC
:105270000EB080BD82B00190ADF80210BDF80220E2
:105280000199888A1043888202B0704781B00090EB
:10529000009880886FF35F2001B0704782B0019062
:1052A000ADF80210BDF802006FF35F20019988800D
:1052B00002B0704781B000900099888940F4005096
:1052C000888101B07047000083B00190ADF80210F2
:1052D00001980088BDF802100840000420B1FFE7E3
:1052E00001208DF80B0003E000208DF80B00FFE794
:1052F0009DF80B0003B0704783B00290ADF8061024
:10530000002000900298808A0090009820F440705D
:105310000090BDF80610009808430090009802998C
:10532000888203B07047000080B582B00190009180
:10533000019800990968FFF745FF0198009989884D
:1053400000F00EF901980099C98800F0DDF8019885
:105350000099098900F0C0F801980099498900F086
:10536000A3F8019800998989FFF7C6FF02B080BDB4
:1053700086B00590ADF812100020039002900190C5
:105380000090059800909DF8120040090390BDF828
:10539000120000F01F000290029901208840019045
:1053A0000398012804D1FFE700980C3000900CE02E
:1053B0000398022804D1FFE700981030009003E022
:1053C000009814300090FFE7FFE7019A0099086801
:1053D0001043086006B0704783B00290ADF8061025
:1053E0000020ADF80400ADF802009DF80700ADF80C
:1053F0000400BDF8041001208840ADF80200BDF89B
:105400000200C0430299088003B0704786B0049040
:10541000ADF80E1000200290019000909DF80E0053
:1054200040090090BDF80E0000F01F0001900199A6
:105430000120884001900098012806D1FFE70498D8
:10544000818901980840019010E00098022806D157
:10545000FFE70498018A01980840019005E004984C
:10546000818A019808400190FFE7FFE79DF80F004F
:1054700002900299012088400290049801880298C5
:1054800008400290019838B1FFE7029820B1FFE789
:1054900001208DF8170003E000208DF81700FFE7CA
:1054A0009DF8170006B0704783B00290ADF8061063
:1054B00000200090029880890090009820F00C0055
:1054C0000090BDF8061000980843009000980299DB
:1054D000888103B07047000083B00290ADF80610D9
:1054E00000200090029880890090009820F4C0600D
:1054F0000090BDF8061000980843009000980299AB
:10550000888103B07047000083B00290ADF80610A8
:10551000002000900298008A0090009820F44050EB
:105520000090BDF80610009808430090009802997A
:10553000088203B07047000081B0009000994FF4DA
:10554000165008600099002088800099C880009952
:105550000881009A0C2151810099888101B070471F
:1055600083B00290ADF80610002000900298808968
:105570000090009820F480500090BDF8061000982C
:105580000843009000980299888103B0704700009A
:10559000FFE7FEE780B584B049F29660C0F60000F0
:1055A0000022114601F078FF40F6E431C2F200011A
:1055B0000860FDF785FCFBF70DFFFCF7F5FAFBF73C
:1055C000E1FCFBF74DFFFFE740F6E430C2F20000DC
:1055D00000684FF0FF3101F0D5FFFBF745FFFCF706
:1055E000FDFAFBF7DFFC40F2CC10C2F200000390A2
:1055F0000068FFF7DFFC0146039801604168013154
:1056000041608068082808D8FFE740F2CC11C2F258
:10561000000188680130886006E040F2CC11C2F2D7
:10562000000100208860FFE740F2CC10C2F20000C9
:10563000C068622808D8FFE740F2CC11C2F200012E
:10564000C8680130C86006E040F2CC11C2F2000127
:105650000020C860FFE740F2CC10C2F200000069F1
:1056600040F2E631884208D8FFE740F2CC11C2F29E
:10567000000108690130086134E040F2CC11C2F247
:10568000000102910020086140F24800C2F20000CF
:1056900001900068FFF78EFC019A014602981160A4
:1056A0004069012808D8FFE740F2CC11C2F200019E
:1056B00048690130486114E0FFE749F26661C0F6CD
:1056C000000149F28D62C0F600020020522300F072
:1056D00049FDFFE740F2CC11C2F200010020486111
:1056E000FFE7FFE770E7000080B582B040F20020DE
:1056F000C2F2000001900198A821FAF7DAFD0199A1
:105700000320086101994861019849F2AB11C0F684
:1057100000018161019A40F2B820C2F20000D0611C
:10572000019A4FF480601062019A00209062019A01
:105730005062019AD062019A1166019A40F2A82142
:10574000C2F200015166019A102191660199086721
:105750000199C86601994867BFF35F8F0090FFE722
:1057600000980F280ED8FFE7009A48F66870C0F638
:105770000000801AC07B01998854FFE7009801302F
:105780000090EDE7BFF35F8F02B080BD84B003905F
:105790000398006902900398C068019002980199EB
:1057A000884209D8FFE7039880680199401A029956
:1057B00008440138009005E002990198C04308446C
:1057C0000090FFE7009804B07047000010B58CB05F
:1057D000DDF83CC0DDF838C00B900A9109920893BF
:1057E0000A98B0F1FF3F04DCFFE70A9840420590B9
:1057F00002E00A980590FFE70598069001200790BF
:10580000FFE706980999884209DBFFE7069809999E
:1058100090FBF1F00690079801300790F1E70898A7
:105820000799884203D9FFE708980790FFE70E9889
:1058300070B1FFE70A98002806D4FFE79DF83C0006
:105840004007002804D5FFE70E9801380E90FFE7C7
:105850009DF83C008007002803D5FFE7089858B35F
:10586000FFE79DF83C00C00730BBFFE70E9810B380
:10587000FFE7FFE70E990020049041B1FFE7079989
:105880000E9A0020914238BF01200490FFE704984F
:10589000C00778B1FFE70E9801380E900B982021D1
:1058A00000F050F90B98C068B0F1FF3F01DCFFE752
:1058B00000E0DFE7FFE7FFE70B98C068002869D446
:1058C000FFE70A98B0F1FF3F08DCFFE70A98404283
:1058D0000A900B982D2100F035F90CE09DF83C0062
:1058E0004007002805D5FFE70B982B2100F02AF987
:1058F00000E0FFE7FFE70B98C068002849D4FFE706
:105900009DF83C00800700282ED5FFE79DF83C005D
:10591000C00748BBFFE7089830BBFFE70E9810B3FD
:10592000FFE7FFE70E990020039041B1FFE70799D9
:105930000E9A0020914238BF01200390FFE70398A0
:10594000C00778B1FFE70E9801380E900B98302110
:1059500000F0F8F80B98C068B0F1FF3F01DCFFE7FA
:1059600000E0DFE7FFE7FFE70B98C06800280FD4EF
:10597000FFE70B980A99099A089BDDF838C00F9C3D
:10598000EE46CEF80440CEF800C000F005F8FFE780
:10599000FFE7FFE70CB010BD80B58CB0DDF83CC070
:1059A000DDF838C00B900A91099208930A98059087
:1059B000012006900490FFE705980999884209D3D1
:1059C000FFE705980999B0FBF1F0059004980130C4
:1059D0000490F1E708980499884203D9FFE70898F2
:1059E0000490FFE79DF83C00C007C0BBFFE70E989E
:1059F000A0B3FFE79DF83C008007002807D5FFE72C
:105A0000089820B9FFE730208DF80F0003E0202030
:105A10008DF80F00FFE7FFE70E990020029041B1DB
:105A2000FFE704990E9A0020914238BF01200290AE
:105A3000FFE70298C00780B1FFE70E9801380E908B
:105A40000B989DF80F1000F07DF80B98C068B0F12E
:105A5000FF3F01DCFFE700E0DEE7FFE7FFE70B9831
:105A6000C06800286CD4FFE7FFE70898022804D339
:105A7000FFE70898013808900BE00A980699B0FBF8
:105A8000F1F0079007980999884201D2FFE705E0F5
:105A9000FFE70999069848430690E6E7FFE70A986A
:105AA0000699B0FBF1F00790079806990A9A00FB57
:105AB00011200A900B98079A48F67971C0F60001F8
:105AC000895C00F03FF80B98C068B0F1FF3F01DC43
:105AD000FFE709E009990698B0FBF1F00690FFE7AF
