:020000040800F2
:100000008010002029010008312600082D02000878
:10001000752400088D120008A53D000800000000AE
:100020000000000000000000000000002D2F00086C
:1000300055180008000000007B010008852F00080B
:100040004301000843010008430100084301000880
:100050004301000843010008430100084301000870
:10006000430100084301000843010008A9130008E8
:100070004301000843010008430100084301000850
:100080004301000843010008430100084301000840
:100090004301000843010008430100084301000830
:1000A0004301000843010008430100084301000820
:1000B0004301000843010008430100084301000810
:1000C0004301000843010008430100084301000800
:1000D00045380008430100084301000843010008B7
:1000E00043010008430100084301000843010008E0
:1000F00043010008430100084301000843010008D0
:1001000043010008430100084301000843010008BF
:1001100043010008DFF80CD000F042FB0048004724
:10012000090800088010002006488047064800475C
:10013000FEE7FEE7FEE7FEE7FEE7FEE7FEE7FEE797
:10014000FEE7FEE7FD30000815010008EFF3108020
:1001500072B6704780F310887047424A1368012BCB
:1001600004D04FF0010313603F4A10603F4A116012
:100170003F484FF0805101607047EFF3108272B634
:100180003848016851B34FF00001016036480168FA
:1001900091B1EFF309811EF0100F08BF21ED108B14
:1001A00021E9F00F4FF000041EF0100F08BF0124EA
:1001B00041F8044D006801602C490968096808C9C4
:1001C000B1E8F00F002B18BFB1EC108B81F3098858
:1001D0004EF0100E002B18BF2EF0100E82F3108878
:1001E0004EF0040E704721490860EFF3148222F0AC
:1001F000040282F314881C494FF00000086019497A
:100200004FF0010008601B481B49D0F8002041EA6C
:100210000201016016484FF08051016017480068E4
:10022000006880F3088861B662B670471EF0040F5C
:100230000CBFEFF30880EFF3098020E9F00F40F8DE
:1002400004ED40F804ED1EF0040F0CBF80F30888A5
:1002500080F3098800B504F055FE5DF804EB4EF01C
:10026000040E7047D4090020B8070020C007002002
:1002700004ED00E020ED00E00000FFFF08ED00E0ED
:1002800040EA01039B0703D009E008C9121F08C018
:10029000042AFAD203E011F8013B00F8013B521E98
:1002A000F9D27047D2B201E000F8012B491EFBD20F
:1002B00070470022F6E710B513460A460446194671
:1002C000FFF7F0FF204610BD30B50B460146002079
:1002D0002022012409E021FA02F59D4205D303FA08
:1002E00002F5491B04FA02F52844151EA2F1010289
:1002F000F1DC30BD2DE9F05F0546002092469B46BB
:1003000088460646814640241BE02846414647462B
:10031000224600F020F853465A46C01A914110D3A5
:1003200011461846224600F04DFA2D1A67EB0108D7
:100330004F4622460120002100F044FA17EB000945
:100340004E41201EA4F10104DFDC484631462A4616
:100350004346BDE8F09F202A04DB203A21FA02F050
:100360000021704721FA02F3D040C2F120029140EF
:1003700008431946704710B5141E73F1000408DADB
:10038000401C41F1000192185B411A4301D120F059
:10039000010010BD2DE9F04D92469B4611B1B1FA16
:1003A00081F202E0B0FA80F22032904600F00AFAC0
:1003B00004460F4640EA0A0041EA0B0153465A46FA
:1003C000084313D0114653EA010019D0C8F1400286
:1003D0005046FFF7C0FF05460E4650465946424676
:1003E00000F0F0F9084305D0012004E0204639462A
:1003F000BDE8F08D0020054346EAE0762C43374304
:100400000A986305E40AA0EB08000022FD0A44EA0A
:1004100047540A3002D500200146E9E701051019CA
:100420006941DDE9084500196941BDE8F04DA2E7E1
:100430002DE9FE4F804681EA0300C00F0C46009074
:1004400021F0004123F00045B8EB0200A94105D29C
:100450004046214690461C460B46024623F000408B
:10046000104347D0270DC7F30A00C3F30A51029087
:10047000401A019040286BDAC3F3130040F4801B4C
:100480000098924620B10023D2EB030A63EB0B0BDA
:1004900001985946C0F14002504600F093F90646D3
:1004A0000D4650465946019A00F09BF910EB0800A2
:1004B0006141002487EA115284EAE7731A4340D06D
:1004C000009A62B3019A012A4FEA075215DC001B19
:1004D00061EB02014FF0004202EA0752CDE900420F
:1004E000001C41F5801132462B46FFF753FF03B045
:1004F000BDE8F08F40462146F9E7001B61EB0201A1
:10050000001C41F5801300185B412018A2F500176C
:1005100047EB030140EAD570B6196D4111E06D0853
:100520004FEA360645EAC0754FEA0752001B61EBF9
:100530000201001C41F5801149084FEA3000001902
:10054000514132462B4603B0BDE8F04FFFF713BFD1
:100550000098012240000023D0EB020263EBE0731D
:10056000009821464FEAE074B8EB000061EB04010B
:10057000E9E783F000435BE781F0004158E72DE9AC
:10058000FE4F81EA030404F0004421F0004100948E
:100590004FF0000B23F0004350EA01045ED052EA12
:1005A00003045BD0C3F30A54C1F30A552C44A4F2EC
:1005B000F3340194A0FB0254C1F3130141F4801100
:1005C000C3F3130343F4801301FB024400FB034E07
:1005D000840A970A44EA815447EA8357A4FB0768D0
:1005E00002958D0A05FB07854FEA932C04FB0C54FA
:1005F0002705029D4FEA065847EA1637B5EB08056E
:100600006EEB070C870E920E47EA811742EA8312BF
:10061000A7FB0201B6EB0B0164EB00042B0D43EAD0
:100620000C335E1844EB1C50DA465146E7FB0201DE
:10063000C5F313044FEA0B3343EA14534FEA043271
:10064000019C43EA0603A4F10C040294009CCDE94A
:1006500000B4FFF79FFE03B0BDE8F08F0020014615
:10066000F9E72DE9F04D81EA030404F0004B21F095
:10067000004514464FF0000A23F0004150EA0502FD
:1006800020D054EA01021DD0C5F30A570246C5F333
:100690001303C1F31300C1F30A5640F4801543F469
:1006A0008013A7EB0608101BD64608F2FD3873EB43
:1006B000050002D308F1010801E092185B41B8F18E
:1006C000000F03DA00200146BDE8F08D00204FF452
:1006D0008011064684460EE0171B73EB050705D311
:1006E000121B63EB050306434CEA010C49084FEA71
:1006F000300092185B4150EA0107EDD152EA030045
:1007000012D082EA040083EA0501084305D0101BD9
:10071000AB4106D20122002306E000224FF0004345
:1007200002E06FF0010253101AEB06004CEB085187
:1007300010EB0A0041EB0B01BDE8F04DFFF71BBECB
:10074000C1F30A52C1F3130140F2FF3341F48011A7
:100750009A4202DA00200146704740F233439A423F
:10076000A2F2334202DC5242FFF7F5BD00F02AB894
:1007700030B5041E71F1000404DB4FF00044404228
:1007800064EB0101141E73F1000405DB1C464FF0FD
:100790000043524263EB0403994208BF904230BDCC
:1007A000064C074D06E0E06840F0010394E80700BE
:1007B00098471034AC42F6D3FFF7B0FC847B0008B6
:1007C000A47B0008202A04DB203A00FA02F1002072
:1007D00070479140C2F1200320FA03F3194390407F
:1007E0007047202A06DBCB17203A41FA02F043EA91
:1007F000E07306E041FA02F3D040C2F120029140DA
:10080000084319467047000080B506F0B3FA00208F
:1008100080BD000040F65801C4F20201086820F0D3
:10082000100008607047000082B000900098012816
:1008300011D1FFE740F65400C4F20200006848B945
:10084000FFE740F60801C4F20201086840F0040026
:100850000860FFE720E0009802281CD1FFE740F67F
:100860000800C4F202000068400700280FD5FFE727
:1008700040F65400C4F20200006820B1FFE70020F7
:100880008DF807000CE001208DF8070008E000203B
:100890008DF8070004E0FFE700208DF80700FFE770
:1008A0009DF8070002B0704782B08DF807008DF800
:1008B0000610002000909DF8070009281BDCFFE7C8
:1008C0009DF807000090009800EB4001072000FA17
:1008D00001F240F61001C4F202010868904308607A
:1008E0009DF80600009A02EB420200FA02F2086844
:1008F0001043086034E09DF8070011281CDCFFE776
:100900009DF807000A380090009800EB400107208E
:1009100000FA01F240F60C01C4F2020108689043AB
:1009200008609DF80600009A02EB420200FA02F20B
:1009300008681043086012E0009800EB40010720AF
:1009400000FA01F240F65C01C4F20201086890432B
:1009500008609DF80620086810430860FFE7FFE77D
:1009600002B0704780B582B08DF80700009101F0A9
:100970005DFF9DF8070040B9FFE701F061FF0098B7
:1009800001F03EFFFFF746FF05E0009801F062FF2F
:1009900000F078F9FFE702B080BD000040F60801E2
:1009A000C4F20201086820F00200086070470000ED
:1009B00040F60801C4F20201086840F00200086035
:1009C0007047000040F60801C4F20201086840F4D4
:1009D000807008607047000081B0009040F6080108
:1009E000C4F20201086820F400600860009A0868F8
:1009F0001043086001B0704781B000900098B0F5D6
:100A0000801F09D1FFE7009A40F60801C4F20201F5
:100A10000868104308602EE000986FF48011884247
:100A200009D1FFE7009A40F60801C4F20201086804
:100A3000104008601EE00098B0F5004F09D1FFE7B4
:100A4000009A40F60801C4F20201086810430860E9
:100A50000FE000986FF40041884209D1FFE7009A47
:100A600040F60801C4F20201086810400860FFE780
:100A7000FFE7FFE7FFE701B07047000081B08DF8A6
:100A800002008DF801108DF800209DF80200012869
:100A900012D1FFE740F60000C4F2020000689DF8A2
:100AA0000110084204D0FFE701208DF8030015E093
:100AB00000208DF8030011E040F65800C4F2020057
:100AC00000689DF80010084204D0FFE701208DF86F
:100AD000030003E000208DF80300FFE79DF803000A
:100AE00001B0704780B58CB043F20040C4F2020000
:100AF00000900321039100220292102303F0F4FEE0
:100B00000098029A0399042303F0EEFE029A0399D7
:100B100043F60000C4F202000223079303F0E4FE50
:100B20004FF4805001F0ACFE02980399FFF71AFFD2
:100B300002984FF4F04101F043FE08A8019000F044
:100B400073F801980299012204928DF820208DF803
:100B500021200A914FF4202109914FF4C0010B91FB
:100B600000F03CF8052105910846FFF79DFE02992B
:100B7000059800F0F1F803980599FFF795FE0398A2
:100B8000049900F0E9F805990A200690FFF78CFE19
:100B90000698079900F0E0F8FFF714FF4FF4801073
:100BA000FFF72AFF00F064F8FFE70220402120222F
:100BB000FFF764FF08B9FFE7F7E70120FFF734FE0E
:100BC000FFE70220FFF730FE08B1FFE7F9E74FF437
:100BD000A00000F071F80CB080BD000080B582B0BC
:100BE00001900198007818B1FFE700F037F802E0B3
:100BF00000F02AF8FFE70198407818B1FFE7FFF707
:100C0000D7FE02E0FFF7CAFEFFE70198406800F058
:100C100093F801988068FFF7DFFE0198C06800F044
:100C20003BF802B080BD000081B000900099002028
:100C30000870009948700099486000998860009990
:100C4000C86001B07047000040F60401C4F2020120
:100C5000086820F4807008607047000040F60401C6
:100C6000C4F20201086840F4807008607047000018
:100C700040F60801C4F20201086840F00100086073
:100C80007047000040F65801C4F20201086840F0C5
:100C9000100008607047000081B0009040F62C0101
:100CA000C4F20201086820F470000860009A086825
:100CB0001043086001B0704782B000900098B0F512
:100CC000A00F09D1FFE7009A40F60801C4F2020123
:100CD00008681043086026E000986FF4A00188427D
:100CE00009D1FFE7009A40F60801C4F20201086842
:100CF0001040086016E00098B0F5800F11D1FFE7B2
:100D000040F60800C4F2020000680099084204D0CE
:100D1000FFE701208DF8070009E000208DF80700AB
:100D200005E0FFE7FFE700208DF80700FFE79DF8EB
:100D3000070002B07047000081B0009040F6080143
:100D4000C4F20201086820F460200860009A086874
:100D50001043086001B0704781B08DF803008DF832
:100D600002109DF8020005281ADCFFE79DF802003A
:100D700000EB80011F2000FA01F240F63401C4F2BA
:100D800002010868904308609DF803009DF8022066
:100D900002EB820200FA02F20868104308603FE0AA
:100DA0009DF802000B281DDCFFE79DF8020000EB18
:100DB0008000A0F11E011F2000FA01F240F6300170
:100DC000C4F202010868904308609DF803009DF892
:100DD000022002EB82021E3A00FA02F20868104377
:100DE00008601CE09DF8020000EB8000A0F13C01CF
:100DF0001F2000FA01F240F62C01C4F2020108683B
:100E0000904308609DF803009DF8022002EB8202E7
:100E10003C3A00FA02F2086810430860FFE7FFE777
:100E200001B0704780B584B08DF80F009DF80F00B9
:100E300040F24801C2F200010979884201D1FFE77E
:100E40003AE040F24800C2F20000017941710079B5
:100E500001380146029104280ED80299DFE801F01A
:100E6000030405080B0008E007E001F067FB04E05D
:100E700000F04AFFFFE700E0FFE79DF80F000138B0
:100E80000146019104280ED80199DFE801F003041E
:100E900005080B0008E007E001F03AFB04E000F071
:100EA0002BFF01E000E0FFE79DF80F0040F2480152
:100EB000C2F200010871FFE704B080BD80B547F6BB
:100EC000B210C0F600000321002204F05DFB40F2E6
:100ED000A471C2F20001086080BD000080B584B03A
:100EE00040F2A470C2F20000006803A9002204F0DE
:100EF00089FB10BBFFE70398029006281BD80299D4
:100F0000DFE801F00407100D13160A0000F0FAF9EB
:100F100012E000F00FFA0FE000F018FE0CE000F015
:100F200029FF09E000F014FF06E000F01BFF03E0DA
:100F300000F016FF00E0FFE7FFE740F24800C2F2D2
:100F4000000000790146019105280ED80199DFE8DB
:100F500001F003040C05080B08E007E001F000FBBA
:100F600004E000F0D3FE01E000E0FFE704B080BD44
:100F700080B582B0002001908DF8030040F6E810A3
:100F8000C2F20000B0F88C004921414348F26910D8
:100F9000C6F61600A1FB0020091A00EB51008009DB
:100FA0000190BDF804004FF42F6103F025FC20B13F
:100FB000FFE701208DF8030003E000208DF8030017
:100FC000FFE79DF8030040F2AC61C2F20001087334
:100FD0000198086102B080BD80B582B00020019008
:100FE0008DF8030040F6E810C2F20000B0F88E0061
:100FF0004921414348F26910C6F61600A1FB0020C2
:10100000091A00EB510080090190BDF8040040F678
:10101000D86103F0F1FB20B1FFE701208DF8030058
:1010200003E000208DF80300FFE79DF8030040F285
:10103000AC61C2F2000108760198C86102B080BDBF
:1010400082B0002001908DF8030040F6E810C2F253
:101050000000B0F88A004921414348F26910C6F601
:101060001600A1FB0020091A00EB51008009019035
:1010700040F2D060C2F200000079012804D0FFE7FE
:1010800000208DF803000CE00198632804D8FFE7E6
:1010900000208DF8030003E001208DF80300FFE736
:1010A000FFE79DF8030040F2AC61C2F20001087056
:1010B0000198486002B0704780B543F20040C4F226
:1010C0000200102100F0E0FC80BD000080B543F27A
:1010D0000040C4F20200102100F0E0FC80BD0000DE
:1010E00080B5FFF7F3FF40F2D061C2F200010120AA
:1010F000087180BD80B5FFF7DFFF40F2D061C2F21A
:1011000000010020087180BD80B543F20040C4F2A8
:1011100002004FF4004100F0B7FC80BD80B543F2FF
:101120000040C4F202004FF4004100F0B7FC80BD63
:1011300080B540F2D060C2F200000079012809D1E8
:10114000FFE7FFF7EBFF40F2D861C2F20001012098
:101150000871FFE780BD000080B5FFF7D5FF40F2C2
:10116000D861C2F200010020087180BD80B582B054
:1011700040F2C410C2F20000C06832281BD1FFE761
:1011800040F2D860C2F2000000790146019120B11E
:10119000FFE70198012801D00BE00BE040F2AC60C2
:1011A000C2F20000007818B9FFE7FFF7D5FFFFE7AC
:1011B00000E0FFE7FFE702B080BD000080B590B01F
:1011C0000120029001F05CFB05A800902C21FFF7A4
:1011D00070F80820C4F20200039000F0A9FA009908
:1011E000039840F64C02C4F20202059240F6E8125F
:1011F000C2F2000206920022019207923C23089359
:10120000099280230A934FF480730B934FF4806309
:101210000C9320230D934FF440530E930F9200F044
:10122000CFF90199039800F085F90398022100F0A5
:1012300005FA0398042100F001FA02980B218DF8B9
:1012400010108DF811008DF812008DF8130004A80D
:1012500001F0F8F9039800F063F910B080BD0000C8
:1012600080B501F003F9FFF7A9FFFFF73BFC01F0A0
:10127000ADFF01F0D5FF02F02FFB00F0C9FC80BDEF
:1012800080B502F005F880BD70470000FFE7FEE77B
:1012900080B584B00390029100208DF80700009083
:1012A000FFE70098029988420ED2FFE79DF80700F9
:1012B0000399009A895C00F05DF88DF80700FFE75C
:1012C000009801300090ECE79DF8070004B080BD65
:1012D00080B588B00020079001A801F0F5FA41F22E
:1012E0000400C4F20200006810F4E06F03D1FFE7CD
:1012F0000398079003E0039840000790FFE70798E2
:1013000008B080BD80B582B040F24800C2F2000053
:10131000007901460191032804D3FFE701980328CF
:1013200004D004E00320FFF77DFD01E000E0FFE7CB
:1013300002B080BD80B582B040F24800C2F2000029
:101340000079032813D1FFE740F2E410C2F2000055
:10135000007B01460191022804D0FFE70198042890
:1013600003D1FFE701F0B0F800E0FFE700E0FFE79E
:1013700002B080BD81B08DF803008DF802109DF899
:1013800003009DF80210414047F65500C0F60000EA
:10139000405C01B07047000082B00190009100985D
:1013A0000199486002B0704780B586B003F01AFE1C
:1013B0000020C4F20200042100F0ECF8002847D01D
:1013C000FFE70020C4F20200042100F0DBF8002057
:1013D0000590FFE70598022839D8FFE70020049020
:1013E0000390FFE70398092814D8FFE7039800EB60
:1013F000400140F6E810C2F2000000EB4100059900
:1014000030F81110049808440490FFE70398013065
:101410000390E7E704984CF6CD41CCF6CC41A0FB15
:101420000110C208059B40F6E811C2F2000101F16B
:10143000780020F81320059A30F8120001EB4201E1
:10144000A1F88400FFE7059801300590C2E7FFE7A7
:101450000020C4F20200022100F09CF800285AD0BB
:10146000FFE70020C4F20200022100F08BF8002008
:101470000290FFE70298022845D8FFE7002001907C
:101480000090FFE70098092815D8FFE7009800EBC7
:10149000400140F6E810C2F2000000EB4100029962
:1014A00000EB4100818F019808440190FFE700980C
:1014B00001300090E6E701984CF6CD41CCF6CC41E6
:1014C000A0FB0110C108029B40F6E810C2F2000028
:1014D00000F17E0222F81310029B32F8131000EB89
:1014E0004303A3F88410029B00EB4301B1F878009A
:1014F00032F8132010444008A1F88A00FFE7029850
:1015000001300290B6E740F67820C2F20000006891
:1015100004F0FCFB00E0FFE703F076FD06B080BDC1
:1015200081B000900099086840F00100086001B0A7
:101530007047000082B00190009100980199086105
:1015400002B0704782B0019000910199086820F0C4
:1015500020000860009A019908681043086002B0F2
:101560007047000082B0019000910199086820F056
:1015700010000860009A019908681043086002B0E2
:101580007047000082B00190009100980199486076
:1015900002B0704783B001900091019800680099F3
:1015A000084204D1FFE700208DF80B0003E0012082
:1015B0008DF80B00FFE79DF80B0003B070470000AB
:1015C00080B582B00190009101980099096800F0FF
:1015D00087F801980099496800F05AF80198009935
:1015E0008968FFF7BFFF01980099C968FFF7D4FE2B
:1015F00001980099096900F063F801980099496918
:1016000000F036F801980099896900F071F80198A6
:101610000099C96900F044F801980099096AFFF738
:1016200091FF01980099496A00F072F801980099B9
:10163000896A00F00DF802B080BD000082B0019010
:101640000091009A019908681043086002B0704741
:1016500082B0019000910199086820F480400860F0
:10166000009A019908681043086002B070470000B2
:1016700082B0019000910199086820F08000086014
:10168000009A019908681043086002B07047000092
:1016900082B00190009100980199C86002B0704733
:1016A00082B0019000910199086820F440600860C0
:1016B000009A019908681043086002B07047000062
:1016C00082B0019000910199086820F04000086004
:1016D000009A019908681043086002B07047000042
:1016E00082B00190009100980199886002B0704723
:1016F00082B0019000910199086820F44070086060
:10170000009A019908681043086002B07047000011
:1017100082B0019000910199086820F4405008605F
:10172000009A019908681043086002B070470000F1
:1017300081B000900099086820F0010008600099CD
:101740000020086000994860009988600099C8608E
:1017500000980821C4F20201884208D1FFE7042161
:10176000C4F20201086840F00F0008606FE00098C2
:101770001C21C4F20201884208D1FFE70421C4F20F
:101780000201086840F0F00008605FE00098302136
:10179000C4F20201884208D1FFE70421C4F2020129
:1017A000086840F4706008604FE000984421C4F27B
:1017B0000201884208D1FFE70421C4F2020108684F
:1017C00040F4704008603FE000985821C4F20201E4
:1017D000884208D1FFE70421C4F20201086840F4FE
:1017E000702008602FE000986C21C4F2020188424A
:1017F00008D1FFE70421C4F20201086840F4700038
:1018000008601FE000988021C4F20201884208D1DC
:10181000FFE70421C4F20201086840F0706008602C
:101820000FE000989421C4F20201884208D1FFE73A
:101830000421C4F20201086840F070400860FFE72C
:10184000FFE7FFE7FFE7FFE7FFE7FFE7FFE701B09D
:10185000704700007047000083B080B583B00793E5
:1018600006920591029005A80190029A019B40F210
:101870005000C2F2000000907F2104F081FF009828
:1018800003F02EFB03B0BDE8804003B070470000BA
:1018900080B500F077FA80BD80B5FFF75DFCFFF7FB
:1018A00029FC80BD80B500F063FC00F0E5FDFFF78A
:1018B0005DFC80BD84B003900291019200200090F5
:1018C0009DF80400000700281BD5FFE70398406A35
:1018D0000090019800F0070081000F2000FA01F14C
:1018E0000098884300900298019901F0070189004F
:1018F00000FA01F1009808430090009803994862AB
:101900001AE00398006A0090019800F00700810037
:101910000F2000FA01F10098884300900298019985
:1019200001F00701890000FA01F1009808430090D6
:10193000009803990862FFE704B0704784B00390F1
:1019400002910192002000900398C06A00900198D3
:101950004100032000FA01F10098884300900298AA
:101960000199490000FA01F100980843009000989D
:101970000399C86204B0704785B004900391029245
:10198000002001900090049800680190039800F0F6
:101990000300009002984100032000FA01F1019831
:1019A0008843019000980299490000FA01F10198DA
:1019B00008430190019804990860039801280CD00D
:1019C000FFE70398112808D0FFE70398022804D006
:1019D000FFE70398122817D1FFE7049840680190A9
:1019E0000299012000FA01F10198884301900398BF
:1019F000C0F30010029900FA01F101980843019028
:101A0000019804994860FFE705B0704780B584B03D
:101A100003900291002001900090FFE70298006877
:101A20000199C84068B3FFE702980068019A012154
:101A30009140084000900098F8B1FFE703980299A0
:101A40004969019AFFF736FF039802994968019A9C
:101A5000FFF792FF039802998968019A00F028F82D
:101A600003980299C968019A00F040F80398029916
:101A70000969019AFFF762FFFFE7019801300190C1
:101A8000CCE704B080BD000082B00190ADF8021038
:101A9000BDF802000199886202B0704782B00190DF
:101AA000ADF80210BDF802000199886102B07047DC
:101AB00084B0039002910192002000900398C068C6
:101AC000009001984100032000FA01F1009888433A
:101AD000009002980199490000FA01F1009808432A
:101AE000009000980399C86004B0704784B00390D8
:101AF0000291019200200090039880680090019963
:101B0000012000FA01F100988843009002980199A1
:101B100000FA01F10098084300900098039988604A
:101B200004B0704781B0009000994FF6FF700860D4
:101B300000990020C86000994860009A0F21516107
:101B4000009988600099086101B0704780B5012054
:101B5000FFF768F980BD000080B582B040F2E00078
:101B6000C2F20000007C10284FD1FFE740F2E000F5
:101B7000C2F20000B0F87800002801DCFFE745E081
:101B800040F2E000C2F20000C07C0146019120B1A9
:101B9000FFE70198012803D00FE0FFF7ABFA0DE053
:101BA00040F2E410C2F20000007B022803D1FFE7FC
:101BB000FFF796FA00E0FFE700E0FFE740F2E00001
:101BC000C2F20000007D0146009120B1FFE70098BD
:101BD000012803D00FE0FFF7BFFA0DE040F2E41058
:101BE000C2F20000007B022803D1FFE7FFF7A0FA52
:101BF00000E0FFE700E0FFE740F2A470C2F200005F
:101C00000068002103F0A8FD00E0FFE702B080BDFE
:101C100080B586B043F20040C4F2020002904FF457
:101C200000410191FFF730FF019B029801210391D0
:101C30000022049202F058FE029810210591FFF74D
:101C400023FF02980399049A059B02F04DFE06B00B
:101C500080BD000080B582B040F2E001C2F2000118
:101C6000019101F10E00B1F878100531FFF710FB7A
:101C7000019981F87A0091F8770091F87A108842FA
:101C800009D0FFE740F2E000C2F2000090F87700D0
:101C900008B1FFE72EE040F2E000C2F20000807BD6
:101CA00004280BD1FFE740F2E000C2F20000C07B45
:101CB000062803D1FFE700F08FF914E040F2E000BE
:101CC000C2F20000807B02280BD1FFE740F2E00067
:101CD000C2F20000C07B062803D1FFE7FFF73CFFFC
:101CE00000E007E0FFE740F2E001C2F2000100205F
:101CF0004860FFE702B080BD40F2D801C2F20001A7
:101D00000020086070470000704700007047000026
:101D100083B0029001910198B0F86A00029988801E
:101D200000200090FFE700980199B1F86A108842FE
:101D30000CD2FFE70198009A1044407902991144AF
:101D40008871FFE7009801300090ECE703B070471E
:101D500080B50220FFF766F800F0A6FA80BD00000B
:101D60007047000080B50420FFF75CF800F09CFA93
:101D700080BD000080B50120FFF754F800F094FA10
:101D800080BD00007047000080B582B001900091D6
:101D90000198009901F0E4FD02B080BD80B584B0E7
:101DA000039000200290029B591C029140F25C11AA
:101DB000C2F200014A1CA521D15403990978029B63
:101DC00003F1010CCDF808C0D15403994978029B66
:101DD00003F1010CCDF808C0D15403998978029B16
:101DE00003F1010CCDF808C0D15403994979029B45
:101DF00003F1010CCDF808C0D15403998988029BE6
:101E000003F1010CCDF808C0D1540190FFE701980F
:101E100003998988884212D2FFE703980199084400
:101E20008079029A511C029140F25C11C2F20001C9
:101E300011444870FFE7019801300190E7E70298EC
:101E4000411E40F25C10C2F2000000900230FFF729
:101E50001FFA014600980130029A8154029901311B
:101E600002910299FFF790FF04B080BD80B582B067
:101E70008DF8070040F2E000C2F20000002101608E
:101E8000007B01460091072800F29B800099DFE863
:101E900001F004141E283241718A9DF80700A5281C
:101EA00003D0FFE700F090F806E040F2E001C2F254
:101EB000000101200873FFE784E09DF8070040F26D
:101EC000E001C2F200018873022008737AE09DF8F5
:101ED000070040F2E001C2F20001C873032008735A
:101EE00070E09DF8070040F2E001C2F200010874C2
:101EF0000420087366E09DF8070040F2E001C2F29A
:101F0000000148749DF807000002A1F87800052040
:101F1000087357E09DF8071040F2E000C2F200009D
:101F200081749DF80720B0F878101144A0F878105B
:101F3000B0F8780038B9FFE740F2E001C2F20001E2
:101F40000720087315E040F2E000C2F20000B0F88C
:101F50007800642809DCFFE740F2E001C2F20001EA
:101F6000002088600620087302E000F02DF8FFE7EB
:101F7000FFE727E09DF8070040F2E001C2F2000110
:101F80008A68531C8B600A44D0748868B1F8781052
:101F9000884207D1FFE740F2E001C2F200010720CA
:101FA0000873FFE70EE09DF8070040F2E001C2F27F
:101FB000000181F87700012081F87B0000F004F82F
:101FC00000E0FFE702B080BD40F2E001C2F2000194
:101FD000002008737047000080B584B040F24800CC
:101FE000C2F20000007901460391042804D0FFE703
:101FF000039805280AD00AE040F2E000C2F200008F
:10200000007CB02801DBFFE7AFE00AE009E040F226
:10201000E000C2F20000007C102801D0FFE7A4E03D
:10202000FFE740F2E000C2F20000007C10380146F9
:102030000291312800F298800299DFE801F01949F5
:102040004C95959595959595959595959595959589
:102050009595959595959595959595959595959530
:1020600095959595959595959595959595954F7289
:1020700040F2E000C2F20000B0F87800002801DC75
:10208000FFE772E040F2E000C2F20000C07C0146CF
:10209000019140B1FFE7019801280DD0FFE70198B9
:1020A000022812D012E040F2A470C2F200000068D0
:1020B000032103F051FB0AE040F2A470C2F20000D9
:1020C0000068042103F048FB01E000E0FFE74CE07A
:1020D00000F0EAF849E000F0E7F846E040F2E000FE
:1020E000C2F20000B0F87800012801DCFFE73CE014
:1020F00040F2E000C2F20000C07C70B9FFE740F29D
:10210000E000C2F20000007D18B9FFE7FEF7F2FF21
:1021100002E0FEF7E5FFFFE700E0FFE700F0C4F8AC
:1021200023E040F2E000C2F20000B0F8780001289D
:1021300001DCFFE719E040F2E000C2F20000C07CE1
:1021400070B9FFE740F2E000C2F20000007D18B96C
:10215000FFE7FFF701F802E0FEF7EAFFFFE700E024
:10216000FFE700F0A1F800E0FFE704B080BD000049
:1021700080B540F24800C2F200000079043801281E
:1021800001D8FFE714E040F2D000C2F2000001687D
:10219000013101600068C82809D3FFE740F2D0018F
:1021A000C2F200010020086000F04CF8FFE7FFE7F2
:1021B00040F2E000C2F2000000684F280FD8FFE7AD
:1021C00040F2E000C2F200000168013101600068E5
:1021D000502803D3FFE7FFF7F7FEFFE7FFE740F2E2
:1021E000E000C2F200004068C0087C2816D8FFE773
:1021F00040F2E000C2F200004168013141604068F5
:10220000B0F57A7F09D3FFE740F2A470C2F2000074
:102210000068012103F0A0FAFFE7FFE740F2E000C9
:10222000C2F2000090F87B0050B1FFE740F2E001FD
:10223000C2F20001002081F87B00FFF70BFDFFE7F1
:1022400080BD000080B582B0642003F057F8019093
:102250000199062008700199022048700199102008
:10226000887001990B20888040F2D060C2F2000093
:1022700000790199887140F2D860C2F200000079BB
:102280000199C87101990020087240F2E410C2F26D
:102290000000407B019948720198FFF77FFD01988B
:1022A00002F09EFD02B080BD80B58AB0642003F0CC
:1022B00025F8099040F2E000C2F20000C17B099AC3
:1022C0001170817B099A5170017C099A9170099A69
:1022D00000219180007C01460791102811D0FFE772
:1022E0000798112830D0FFE7079812284BD0FFE756
:1022F00007984038022867D3FFE70798B22823D011
:102300006BE0099840F2E001C2F200010E31FFF7E4
:10231000FFFC40F24800C2F200000079014606913D
:10232000042804D0FFE70698052804D007E009999F
:102330000120887107E009990220887103E009995A
:1023400000208871FFE749E00998063047F68C11B4
:10235000C0F600016A4611610021D160022393603A
:102360005160116047F69D11C0F6000147F69512C5
:10237000C0F6000247F68013C0F6000303F052FDDA
:10238000099988802AE00999042088800020089013
:1023900040F2D061C2F2000109798DF8201040F2BC
:1023A000D861C2F2000109798DF821108DF8220060
:1023B00040F2E410C2F20000407B8DF8230009993E
:1023C0000898C1F8060009E0099840F2E001C2F25D
:1023D00000010E31FFF79CFC00E0FFE70998FFF7D2
:1023E000DDFC099802F0FCFC0AB080BD80B586B027
:1023F00000F066FB47F6FD21C0F6000100200590C5
:1024000000F0E0FB059841F22401C4F202010A68E1
:1024100047F67321C0F6000100F0D4FB059847F69B
:10242000B521C0F6000100F0CDFB059B47F6513009
:10243000C0F600006946C86047F64530C0F60000A7
:1024400088604B600220086047F63721C0F6000123
:1024500018461A4600F0B6FB059847F6EE11C0F68E
:10246000000100F0AFFB06B080BD000080B500F0B9
:1024700013FB80BDFFE7FEE780B540F2C410C2F257
:102480000000C068322807D1FFE7FEF7D9FDFEF74C
:102490006FFDFEF7A1FDFFE780BD000080B582B0B3
:1024A0008DF8070040F2E411C2F200010091002013
:1024B000086000F039F800999DF807004873032080
:1024C000087302B080BD000080B540F2E411C2F292
:1024D00000010020086040F2D060C2F200000079E4
:1024E00001280BD1FFE700F023F840F2E411C2F21B
:1024F0000001002048730420087308E040F2A47033
:10250000C2F200000068062103F026F9FFE780BD53
:1025100040F2E411C2F200010020086001220A73B7
:10252000486088607047000080B5FFF7B5F980BD4E
:1025300080B5FEF711FEFEF7D3FD80BD80B582B0F9
:1025400040F2E411C2F20001009100200190086005
:10255000FFF7EAFF009901984873087302B080BD45
:1025600080B582B040F2E410C2F20000007B014668
:102570000191042858D80199DFE801F003041A27D3
:10258000380052E040F2AC60C2F20000007B01284B
:1025900004D1FFE70120FFF781FF08E040F2E411DA
:1025A000C2F200010020086002200873FFE73CE04F
:1025B00040F2AC60C2F20000007B012804D1FFE7CA
:1025C0000120FFF76BFFFFE72FE040F2AC60C2F2A3
:1025D0000000007B48B9FFE740F2A470C2F200009F
:1025E0000068062103F0B8F8FFE71EE040F2E410AF
:1025F000C2F200000168013101600068B0F57A7F25
:1026000011D3FFE740F2E411C2F20001002008609C
:10261000FEF770FD40F2A470C2F2000000680621CF
:1026200003F09AF8FFE700E0FFE702B080BD00008A
:102630007047000080B54FF00060002100F058F8AE
:1026400080BD000084B003900020029001900F2014
:1026500000900398C078C0B3FFE74EF60C50CEF25E
:1026600000000068C043C0F3022002900298C0F14D
:102670000400019000980299C840009003984078A7
:10268000019988400290039880780099014002984F
:102690000843029002980001029002980399097879
:1026A0004EF20042CEF2000288540398027802F003
:1026B0001F01012088404EF20011CEF2000141EAD4
:1026C000D20121F0030108600FE00398027802F0C4
:1026D0001F01012088404EF28011CEF2000141EA34
:1026E000D20121F003010860FFE704B07047000049
:1026F00082B001900091019800994FF68072C1F666
:10270000FF72114008434EF60851CEF200010860F6
:1027100002B0704780B586B040F2A520C1F6FF70C8
:10272000059000200490009042F20001C4F20201E2
:10273000086820F080000860086840F040000860E9
:10274000059A4FF22000C1F6FF7004A990479DF84A
:102750001000052828D8FFE7059A4FF23020C1F66F
:10276000FF7004A990479DF8130003909DF8120094
:102770000004000A02909DF81100000401900398E3
:102780000299084301990843049041F60401C4F2F8
:102790000001086800F07F400090049A0098104300
:1027A00000900098086000E0FFE742F20001C4F2E8
:1027B0000201086840F08000086006B080BD00009B
:1027C00083B0029001910020009041F22C01C4F2EC
:1027D000020108680090009820F480600090009842
:1027E00020F478400090029A009810430090019ADB
:1027F0000098104300900098086003B070470000F4
:1028000082B001900020009041F22C01C4F202013C
:1028100008680090009820F00F000090019A00983E
:10282000104300900098086002B0704741F28001A8
:10283000C4F20201086840F001000860704700001F
:1028400041F22C01C4F20201086820F48070086093
:102850007047000082B001900020009041F22C01EE
:10286000C4F2020108680090009820F4F87000900B
:10287000019A0098104300900098086002B07047D9
:1028800081B00090009A41F21401C4F2020108687C
:102890001043086001B0704781B00090009A41F287
:1028A0001C01C4F2020108681043086001B07047BF
:1028B00081B00090009A41F21801C4F20201086848
:1028C0001043086001B0704787B006900020059063
:1028D000049003900290019041F20400C4F20200BF
:1028E00001680022C0F63C0211400391006800F428
:1028F000803002909DF80F000007002806D4FFE703
:102900000399022000EB9140039006E003996FF4D5
:10291000F77000EB91400390FFE70298C8B9FFE71A
:1029200041F24000C4F202000068C00740B1FFE776
:10293000039840F60011C0F23D014843049007E0BF
:10294000039841F20021C0F27A0148430490FFE766
:1029500019E041F20400C4F202000068800300287C
:1029600008D5FFE7039840F60011C0F23D01484347
:10297000049007E0039841F20021C0F27A01484335
:102980000490FFE7FFE741F20400C4F20200006890
:1029900000F00C0005900598009040B1FFE700980A
:1029A00004280BD0FFE7009808280ED011E0069904
:1029B00041F20020C0F27A00086011E0069941F26D
:1029C0000020C0F27A0008600AE0049806990860C6
:1029D00006E0069941F20020C0F27A000860FFE7A5
:1029E00041F20401C4F202010868C0B20009059076
:1029F000059A47F22470C0F60000825C0192069BA3
:102A00001A68DDF804C022FA0CF25A600A68C2F3B0
:102A100002220592059A825C0192069B5A68DDF8B3
:102A200004C022FA0CF29A600968C1F3C221059130
:102A30000599405C019006994868019AD040C860A9
:102A400041F22C00C4F20200016801F00F0105916F
:102A5000059A47F2F461C0F60001895C0191069A7B
:102A60005168019BB1FBF3F151610068C0F30410A0
:102A70000590059800F00F0147F20470C0F60000C1
:102A800030F81100019004980199B0FBF1F006991B
:102A9000086107B07047000080B58020FFF7F0FEA6
:102AA0004FF48070FFF7ECFE4FF40070FFF7E8FE84
:102AB0004FF48060FFF7E4FE0120FFF7F9FE80BDD0
:102AC00080B501F01BFA80BD80B586B005900491F9
:102AD000039240F2F410C2F200000190FFE7019867
:102AE000007818B9FFE701F009FAFFE7FFE7EFF315
:102AF00011804FF0200181F311880090059804990E
:102B0000039A00F007F80290009880F31188029869
:102B100006B080BD80B58AB00990089107920898E8
:102B20000490099800EB400140F2F410C2F200005A
:102B300000EBC1001830039003984069029040B147
:102B4000FFE70298012819D0FFE7029802282CD04D
:102B500032E0039801F024FA05900598079988421D
:102B600003D2FFE70020069007E00798069003983D
:102B70000499079A01F09EFCFFE720E0039801F01A
:102B80000FFA059005980799884203D2FFE7059848
:102B9000019002E007980190FFE7019806900398E2
:102BA0000499069A01F086FC09E003980499079AB3
:102BB00001F00EFC069002E000200690FFE7069868
:102BC0000AB080BD82B080B584B0079306920390AE
:102BD000029106A80090039802996A4600F008F84E
:102BE0000190019804B0BDE8804002B07047000039
:102BF00080B5A4B023902291219207A81B90402079
:102C00001C9000201D9023991F911E90FFE7229891
:102C100000788DF883002298013022909DF883007F
:102C200008B9FFE76DE19DF88300252840F05C813D
:102C3000FFE70020189001201A90FFE72298007803
:102C40008DF883009DF883002338014604910D28F8
:102C500029D80499DFE801F01F27272727272727EE
:102C600017270727270F189840F00100189022987F
:102C7000013022901AE0189840F002001890229833
:102C80000130229012E0189840F004001890229829
:102C9000013022900AE0189840F00800189022981D
:102CA0000130229002E000201A90FFE7FFE71A9817
:102CB0000028C3D1FFE700201790FFE72298007893
:102CC0008DF883009DF88300302805DBFFE79DF831
:102CD00083003A2801DBFFE710E0229801302290C0
:102CE000179800EB80019DF8830000EB410030381D
:102CF0001790FFE701200028E0D1FFE7002019909E
:102D0000229800788DF883009DF883002E2825D125
:102D1000FFE7229801302290FFE7229800788DF893
:102D200083009DF88300302805DBFFE79DF88300D2
:102D30003A2801DBFFE710E0229801302290199831
:102D400000EB80019DF8830000EB410030381990C2
:102D5000FFE701200028E0D1FFE7FFE72298007895
:102D60008DF88300FFE79DF883006C2805D0FFE70E
:102D70009DF88300682808D1FFE72298013022904F
:102D8000229800788DF8830000E004E0FFE701203E
:102D90000028E8D1FFE79DF883000146039125282C
:102DA00000F09880FFE7039858284FD0FFE703987A
:102DB000632814D0FFE7039864281FD0FFE7039827
:102DC000702876D0FFE70398732853D0FFE7039865
:102DD000752827D0FFE70398782837D07FE0219A1D
:102DE0001068011D116000681A901A988DF81B0078
:102DF0009DF81B101BA801F0AFFA71E0219A106832
:102E0000011D116000681A901A99199B1798DDF836
:102E100060C06A46C2F804C010601BA80A2201F014
:102E2000DFF85DE0219A1068011D116000681A90BA
:102E30001A99199B1798DDF860C06A46C2F804C059
:102E400010601BA80A2201F0B1F949E0219A10682C
:102E5000011D116000681A901A99199B1798DDF8E6
:102E600060C06A46C2F804C010601BA8102201F0BE
:102E70009DF935E0219A1068011D116000680590E8
:102E8000FFE7059800788DF88300059801300590DC
:102E90009DF8830008B9FFE70AE09DF883101BA89E
:102EA00001F05AFAFFE71E98B0F1FF3FE9DCFFE7B7
:102EB00016E0219A1068011D116000681A901A9995
:102EC000684600224260082303601BA8102201F01C
:102ED0006DF905E01BA8252101F03EFA00E0FFE7AF
:102EE00022980130229005E09DF883101BA801F084
:102EF00033FAFFE7FFE71E98B0F1FF3F3FF787AED9
:102F0000FFE71E9801280EDBFFE71D9830B1FFE7B1
:102F100023981D9A07A9FFF7D7FDFFE71D991E9873
:102F200008441E90FFE71E9824B080BD7047000043
:102F300080B582B0009000980138B0F1807F03D353
:102F4000FFE70120019019E0009801384EF21401CA
:102F5000CEF2000108604FF0FF300F2101F0F0FACF
:102F60004EF21801CEF20001002008604EF210026D
:102F7000CEF20002072111600190FFE7019802B034
:102F800080BD000080B502F02DF803F033FA02F0A6
:102F90003BF880BD80B586B0002004908DF80F000E
:102FA000029041F20001C4F20201086840F0010001
:102FB0000860FFE741F20000C4F202000068C0F3BD
:102FC00040008DF80F00029801300290FFE79DF855
:102FD0000F100020C907019039B9FFE70298B0F53A
:102FE000A06018BF01200190FFE70198C0070028EA
:102FF000E0D1FFE741F20000C4F202000068C0F334
:1030000040008DF80F009DF80F00C00750B9FFE792
:1030100040F20001C2F2000141F20020C0F27A0049
:10302000086069E042F20001C4F20201086820F081
:1030300007000860086840F00300086041F20401DE
:10304000C4F20201009108680860086840F400506A
:103050000860086840F4A0600860FFF75BFB009A16
:1030600010684FF6FF71CFF2C0710840106041F256
:103070004001C4F20201086820F0010008601068F5
:10308000059005980590049840F00100049005987B
:103090000023C0F63C03184305900598106004987F
:1030A000086041F20001C4F20201086840F080703B
:1030B0000860FFE741F20000C4F2020000688001EE
:1030C000002801D4FFE7F5E741F20401C4F2020150
:1030D000086820F003000860086840F002000860FB
:1030E000FFE741F20400C4F20200006800F00C00A7
:1030F000082801D0FFE7F4E706B080BD80B54EF6A2
:103100008851CEF20001086840F47000086041F276
:103110000002C4F20202106840F00100106041F2A7
:103120000401C4F2020108684CF20C03CFF67F03DD
:103130001840086010684FF6FF73CFF6F66318402A
:103140001060106820F48020106008684FF6FF724D
:10315000CFF2C0721040086041F22C01C4F20201AB
:103160004FF46050086041F24001C4F20201086867
:1031700040F00100086041F20801C4F202010020A1
:10318000C0F29F40086041F21C01C4F202010868CD
:1031900040F080500860086820F08050086042F2DB
:1031A0000001C4F20201086840F08000086008686D
:1031B00020F010000860FFF7EDFE4EF60851CEF249
:1031C00000014FF00060086080BD000080B586B04F
:1031D0000120FFF761FB4FF6FF70ADF80C00FEF722
:1031E00077F844F6D351C1F26201A0FB01208009B7
:1031F000A0FB01014FF0FF3000EB9110ADF808008B
:103200000020ADF80E00ADF80A004FF080400190AC
:1032100002A900F0CFF8019800F0EEF906B080BDE9
:1032200080B58AB00420FFF737FB3120ADF81C00D1
:10323000FEF74EF80138ADF8180000200090ADF808
:103240001E00ADF81A0040F60000C4F20000019024
:1032500006A900F0AFF8009901986022ADF80820A7
:103260000122ADF80A20ADF8101002A900F0CEF945
:103270000198082100F05AFA019800F011F840F680
:103280004001C4F200010A2008600AB080BD0000BD
:1032900080B540F60000C4F2000000F0ADF980BD3A
:1032A00081B000900099086840F08000086001B08B
:1032B0007047000082B00190ADF80210BDF8020026
:1032C0000199888502B0704782B001908DF8031093
:1032D0009DF80300C00730B1FFE70199086840F48A
:1032E0000060086005E00199086820F4006008604B
:1032F000FFE702B07047000082B001908DF8031024
:103300009DF80300C00730B1FFE70199086840F459
:103310008050086005E00199086820F4805008603A
:10332000FFE702B07047000082B001908DF80310F3
:103330009DF80300C00730B1FFE70199086840F429
:103340000050086005E00199086820F4005008600A
:10335000FFE702B07047000082B001908DF80310C3
:103360009DF80300C00730B1FFE70199086840F4F9
:103370008040086005E00199086820F480400860FA
:10338000FFE702B07047000083B002900191002077
:103390000090029800680090009820F07000009063
:1033A000019900980843009000980299086003B0C2
:1033B0007047000080B582B001900091019841F201
:1033C0000001C4F2000188420BD0FFE70198009988
:1033D0004988FFF7D9FF01980099C98800F0FAF8E9
:1033E00000E0FFE7019800998988FFF763FF0198E3
:1033F0000099098800F090F8019842F60041C4F263
:103400000101884208D0FFE7019843F20041C4F26D
:103410000101884206D1FFE701980099097A00F07E
:103420008FF800E0FFE70198012100F07FF8019894
:1034300041F20001C4F20001884208D0FFE7019880
:103440000099497A01F00101FFF73EFF00E0FFE734
:10345000019842F60041C4F2010188421DD0FFE705
:10346000019843F20041C4F20101884215D0FFE700
:103470000198B0F1804F10D0FFE7019840F2004171
:10348000C4F20001884208D0FFE7019840F600012D
:10349000C4F20001884208D1FFE701980099497BF6
:1034A00001F0010100F020F800E0FFE70198B0F121
:1034B000804F16D1FFE701980099897A01F0010148
:1034C000FFF71AFF01980099C97A01F00101FFF78F
:1034D0002BFF01980099097B01F00101FFF73CFFE8
:1034E00000E0FFE702B080BD82B001908DF80310CC
:1034F0009DF80300C00730B1FFE70199086840F468
:103500000040086005E00199086820F40040086068
:10351000FFE702B07047000082B00190ADF80210E2
:10352000BDF802000199088502B0704782B0019091
:10353000ADF80210BDF802000199888202B0704710
:1035400082B001908DF803109DF803000199088660
:1035500002B0704782B00190ADF80210BDF80210C1
:10356000012000FA01F20199086A9043086202B052
:103570007047000082B00190ADF80210BDF8021053
:10358000012000FA01F20199086A1043086202B0B2
:103590007047000082B00190ADF80210BDF8021033
:1035A000042000FA01F20199086A9043086202B00F
:1035B0007047000082B00190ADF80210BDF8021013
:1035C000042000FA01F20199086A1043086202B06F
:1035D0007047000082B00190ADF8021001990868B0
:1035E00020F440700860BDF802200199086810437B
:1035F000086002B07047000081B000900099086830
:1036000040F00100086001B07047000080B586B04E
:10361000059004910020ADF80E00029005980C2151
:103620000191FFF797FF019A05984068029005986D
:10363000C069ADF80E00BDF80E0020F4E040ADF812
:103640000E00BDF80E0020F44070ADF80E00049896
:103650000188BDF80E0040EA0120ADF80E00059883
:103660000499098900F0A0F80498408828B1FFE780
:1036700005980C21FFF77EFF04E005980C21FFF769
:1036800069FFFFE7059842F60041C4F20101884254
:1036900029D1FFE70598049949890C2200F066F8C2
:1036A0000498808828B1FFE705980C21FFF782FF76
:1036B00004E005980C21FFF76DFFFFE7029820F466
:1036C00080400290029820F4003002900498818992
:1036D000029840EA811002900498C189029840EA59
:1036E0000120029014E0059843F20041C4F2010168
:1036F00088420BD1FFE7029820F4804002900498A2
:103700008189029840EA8110029000E0FFE7FFE71C
:10371000029805994860BDF80E000599C8610498A3
:10372000C0880599086406B080BD000082B0019091
:10373000ADF802100020ADF800000198C069ADF8A6
:103740000000BDF8000020F40060ADF80000BDF8F6
:103750000210BDF8000040EA0120ADF80000BDF8FD
:1037600000000199C86102B07047000084B0039066
:103770000291ADF806200398006A0090BDF806108B
:10378000082000FA01F10098884300900298BDF8E3
:10379000061000FA01F10098084300900098039980
:1037A000086204B07047000084B003900291ADF845
:1037B00006200398006A0090BDF80610022000FA67
:1037C00001F10098884300900298BDF8061000FAB5
:1037D00001F100980843009000980399086204B032
:1037E0007047000081B00090009810F1030F04D8DA
:1037F000FFE7009801300090FFE7009801B07047A4
:1038000080B58AB004A80390FEF78CF903990220D2
:1038100005904020049001200190099043F600009B
:10382000C4F202000290FEF7F1F8019A029803999F
:1038300000230593802304930992FEF7E7F80AB06A
:1038400080BD000080B582B043F60000C4F20100E4
:1038500040F2255100F0E4F9D8B3FFE743F6000049
:10386000C4F2010000F01CF98DF8070040F220704E
:10387000C2F200000088B0F5007F0FD1FFE740F2F0
:103880002071C2F200010020088040F67C20C2F2C4
:1038900000004FF40071FCF70CFDFFE79DF80700F6
:1038A00040F22073C2F200031A88511C198040F6BE
:1038B0007C21C2F2000188549DF8070000F082F8D4
:1038C00043F60000C4F2010040F2255100F08EF9E9
:1038D000FFE702B080BD000080B588B04FF48040A3
:1038E000FEF7E6FFFFF78CFF04A8019000F02EFA28
:1038F00001994FF4E13004900020ADF81400ADF8C8
:103900001600ADF81800ADF81C000C20ADF81A0038
:1039100043F60000C4F20100029000F00FF9029893
:10392000802100F0B1F83020C4F20200FDF7F8FD6C
:10393000029840F2255100F025F924208DF80C0062
:1039400001208DF80D008DF80E008DF80F0003A8F2
:10395000FEF778FE029800F0B7F808B080BD0000CE
:1039600080B584B00390029100200190FFE7019898
:10397000029988420AD2FFE703980199405C00F05F
:1039800007F8FFE7019801300190F0E704B080BD2F
:1039900080B582B08DF807009DF8071043F600004F
:1039A000C4F2010000F084F8FFE743F60000C4F21F
:1039B0000100402100F092F808B9FFE7F5E702B0F6
:1039C00080BD000080B582B08DF807009DF807002B
:1039D000FEF74CFA02B080BD80B58EB00D900C9110
:1039E00000200B900A900990089007900D9807907E
:1039F00001A8FEF769FF079843F60001C4F2010130
:103A0000884210D0FFE7079845F20001C4F2010197
:103A1000884208D0FFE7079845F20041C4F201014F
:103A2000884203D1FFE704980A9002E003980A90C5
:103A3000FFE70A98192148430C998900B0FBF1F07F
:103A40000990099848F21F51C5F2EB11A0FB010241
:103A50006FF00F0000EA52000B90099B0B980009D1
:103A6000642200FB12300890089A322000EB02100A
:103A7000A0FB0110C0F343110B9808430B900B9867
:103A80000D9908810EB080BD82B00190ADF8021092
:103A9000BDF802200199888A1043888202B07047DD
:103AA00081B00090009880886FF35F2001B070476C
:103AB00082B00190ADF80210BDF802006FF35F20F4
:103AC0000199888002B0704781B000900099888980
:103AD00040F40050888101B07047000083B001902D
:103AE000ADF8021001980088BDF8021008400004EB
:103AF00020B1FFE701208DF80B0003E000208DF8D6
:103B00000B00FFE79DF80B0003B0704783B00290F5
:103B1000ADF80610002000900298808A009000986E
:103B200020F440700090BDF8061000980843009003
:103B300000980299888203B07047000080B582B077
:103B400001900091019800990968FFF745FF0198DD
:103B50000099898800F00EF901980099C98800F051
:103B6000DDF801980099098900F0C0F801980099E2
:103B7000498900F0A3F8019800998989FFF7C6FFE9
:103B800002B080BD86B00590ADF812100020039001
:103B9000029001900090059800909DF81200400955
:103BA0000390BDF8120000F01F000290029901205E
:103BB000884001900398012804D1FFE700980C3059
:103BC00000900CE00398022804D1FFE70098103021
:103BD000009003E0009814300090FFE7FFE7019A9F
:103BE000009908681043086006B0704783B00290DF
:103BF000ADF806100020ADF80400ADF802009DF805
:103C00000700ADF80400BDF8041001208840ADF8AD
:103C10000200BDF80200C0430299088003B070475B
:103C200086B00490ADF80E10002002900190009034
:103C30009DF80E0040090090BDF80E0000F01F0036
:103C4000019001990120884001900098012806D137
:103C5000FFE70498818901980840019010E00098DE
:103C6000022806D1FFE70498018A019808400190D4
:103C700005E00498818A019808400190FFE7FFE77A
:103C80009DF80F000290029901208840029004984C
:103C90000188029808400290019838B1FFE7029825
:103CA00020B1FFE701208DF8170003E000208DF818
:103CB0001700FFE79DF8170006B0704783B0029029
:103CC000ADF80610002000900298808900900098BE
:103CD00020F00C000090BDF80610009808430090FA
:103CE00000980299888103B07047000083B0029069
:103CF000ADF806100020009002988089009000988E
:103D000020F4C0600090BDF80610009808430090B1
:103D100000980299888103B07047000083B0029038
:103D2000ADF80610002000900298008A00900098DC
:103D300020F440500090BDF8061000980843009011
:103D400000980299088203B07047000081B000908B
:103D500000994FF41650086000990020888000995F
:103D6000C88000990881009A0C21518100998881AE
:103D700001B0704783B00290ADF8061000200090AB
:103D8000029880890090009820F480500090BDF83F
:103D9000061000980843009000980299888103B0AB
:103DA00070470000FFE7FEE780B584B047F6E610F5
:103DB000C0F600000022114601F06CFF40F67821A9
:103DC000C2F200010860FEF711FBFDF749FAFDF7AA
:103DD0005FFDFDF773F8FDF753FAFFE740F6782033
:103DE000C2F2000000684FF0FF3101F0C9FFFDF79B
:103DF0004BFAFDF757FDFDF771F840F2C410C2F21F
:103E0000000003900068FFF7EDFC01460398016095
:103E10004168013141608068082808D8FFE740F216
:103E2000C411C2F2000188680130886006E040F2E7
:103E3000C411C2F2000100208860FFE740F2C41004
:103E4000C2F20000C068622808D8FFE740F2C4113F
:103E5000C2F20001C8680130C86006E040F2C41137
:103E6000C2F200010020C860FFE740F2C410C2F2B5
:103E70000000006940F2E631884208D8FFE740F2CE
:103E8000C411C2F2000108690130086134E040F257
:103E9000C411C2F2000102910020086140F2480002
:103EA000C2F2000001900068FFF79CFC019A0146F5
:103EB000029811604069012808D8FFE740F2C41158
:103EC000C2F2000148690130486114E0FFE747F69B
:103ED000B611C0F6000147F6DD12C0F60002002060
:103EE000532300F02BFDFFE740F2C411C2F20001A2
:103EF00000204861FFE7FFE770E7000080B582B06F
:103F000040F2F410C2F2000001900198A821FCF7E1
:103F1000D0F901990320086101994861019847F699
:103F20007711C0F600018161019A40F2AC20C2F223
:103F30000000D061019A4FF480601062019A002065
:103F40009062019A5062019AD062019A1166019AB8
:103F500040F29C21C2F200015166019A1021916643
:103F6000019908670199C86601994867BFF35F8F97
:103F70000090FFE700980F280ED8FFE7009A47F25D
:103F80003470C0F60000801AC07B01998854FFE7A6
:103F9000009801300090EDE7BFF35F8F02B080BD65
:103FA00084B003900398006902900398C068019060
:103FB00002980199884209D8FFE70398806801991F
:103FC000401A029908440138009005E002990198CE
:103FD000C04308440090FFE7009804B07047000019
:103FE00010B58CB0DDF83CC0DDF838C00B900A91FC
:103FF000099208930A98B0F1FF3F04DCFFE70A98A2
:104000004042059002E00A980590FFE70598069067
:1040100001200790FFE706980999884209DBFFE72E
:104020000698099990FBF1F00690079801300790E7
:10403000F1E708980799884203D9FFE708980790A5
:10404000FFE70E9870B1FFE70A98002806D4FFE753
:104050009DF83C004007002804D5FFE70E98013882
:104060000E90FFE79DF83C008007002803D5FFE78E
:10407000089858B3FFE79DF83C00C00730BBFFE746
:104080000E9810B3FFE7FFE70E990020049041B1AE
:10409000FFE707990E9A0020914238BF0120049053
:1040A000FFE70498C00778B1FFE70E9801380E903B
:1040B0000B98202100F050F90B98C068B0F1FF3F39
:1040C00001DCFFE700E0DFE7FFE7FFE70B98C068F0
:1040D000002869D4FFE70A98B0F1FF3F08DCFFE74A
:1040E0000A9840420A900B982D2100F035F90CE017
:1040F0009DF83C004007002805D5FFE70B982B21D1
:1041000000F02AF900E0FFE7FFE70B98C0680028FD
:1041100049D4FFE79DF83C00800700282ED5FFE733
:104120009DF83C00C00748BBFFE7089830BBFFE79D
:104130000E9810B3FFE7FFE70E990020039041B1FE
:10414000FFE707990E9A0020914238BF01200390A3
:10415000FFE70398C00778B1FFE70E9801380E908B
:104160000B98302100F0F8F80B98C068B0F1FF3FD1
:1041700001DCFFE700E0DFE7FFE7FFE70B98C0683F
:1041800000280FD4FFE70B980A99099A089BDDF8DD
:1041900038C00F9CEE46CEF80440CEF800C000F0C8
:1041A00005F8FFE7FFE7FFE70CB010BD80B58CB066
:1041B000DDF83CC0DDF838C00B900A9109920893F5
:1041C0000A980590012006900490FFE70598099948
:1041D000884209D3FFE705980999B0FBF1F00590F3
:1041E000049801300490F1E708980499884203D9B3
:1041F000FFE708980490FFE79DF83C00C007C0BBAC
:10420000FFE70E98A0B3FFE79DF83C008007002869
:1042100007D5FFE7089820B9FFE730208DF80F0099
:1042200003E020208DF80F00FFE7FFE70E99002044
:10423000029041B1FFE704990E9A0020914238BFE5
:1042400001200290FFE70298C00780B1FFE70E98B7
:1042500001380E900B989DF80F1000F07DF80B9828
:10426000C068B0F1FF3F01DCFFE700E0DEE7FFE7F9
:10427000FFE70B98C06800286CD4FFE7FFE70898B9
:10428000022804D3FFE70898013808900BE00A9849
:104290000699B0FBF1F0079007980999884201D27E
:1042A000FFE705E0FFE70999069848430690E6E72F
:1042B000FFE70A980699B0FBF1F007900798069976
:1042C0000A9A00FB11200A900B98079A47F2457151
:1042D000C0F60001895C00F03FF80B98C068B0F1AF
:1042E000FF3F01DCFFE709E009990698B0FBF1F018
:1042F0000690FFE706980028DBD1FFE79DF83C0019
:10430000C00730B3FFE70E9810B3FFE7FFE70E9941
:104310000020019041B1FFE704990E9A00209142DC
:1043200038BF01200190FFE70198C00778B1FFE78F
:104330000E9801380E900B98202100F00DF80B9884
:10434000C068B0F1FF3F01DCFFE700E0DFE7FFE717
:10435000FFE7FFE70CB080BD80B584B003908DF817
:104360000B10039880680190019801300399496807
:1043700088420FD8FFE79DF80B0003990968019A5E
:10438000885401980130039988600399C868013006
:10439000C860FFE7039841688068884215D1FFE74D
:1043A0000398016882680069FEF78EFB03998968AB
:1043B000884205D0FFE703994FF0FF30C86003E063
:1043C000039900208860FFE7FFE704B080BD00008C
:1043D00080B58AB00990089107920020059009984D
:1043E000C0680390FFE70998006904900498039956
:1043F000884206D9FFE704990398C0430844069011
:1044000008E0099881680398049A801AC043084418
:104410000690FFE7069809998968039A891A8842E5
:1044200003D2FFE70698019005E009988068039998
:10443000401A0190FFE70198069006980799884274
:1044400003D2FFE70698009002E007980090FFE78C
:1044500000980690099840680399084402900298D1
:104460000899069AFBF70CFF0699059808440590F1
:10447000069908980844089006990798401A0790EA
:10448000069903980844039003980999896888421B
:1044900003D1FFE700200390FFE7BFF35F8F03988E
:1044A0000999C860FFE7079800289CD1FFE70598A5
:1044B0000AB080BD80B588B0079006910592079834
:1044C000C0680390079880680399401A0290029888
:1044D0000599884212D9FFE7079840680399084474
:1044E000019001980699059AFBF7CAFEBFF35F8F0A
:1044F0000398059908440799C8601FE00298049042
:104500000798406803990844019001980699049A15
:10451000FBF7B6FE05980299401A04900798406888
:10452000019001980699029A1144049AFBF7A8FE9B
:10453000BFF35F8F04980799C860FFE708B080BD9C
:1045400082B08DF8070000919DF9070000280AD479
:10455000FFE7009800019DF907104EF20042CEF2ED
:10456000000288540BE0009800019DF8071001F04C
:104570000F014EF61452CEF200028854FFE702B04B
:104580007047000082B00090009818B9FFE7002043
:10459000019033E09DF8000050B1FFE79DF8001056
:1045A00047F25570C0F60000405C0130019025E0F4
:1045B0009DF8010050B1FFE79DF8011047F25570DA
:1045C000C0F60000405C0930019017E09DF8020041
:1045D00050B1FFE79DF8021047F25570C0F6000099
:1045E000405C1130019009E09DF8031047F25570CE
:1045F000C0F60000405C19300190FFE7019802B05E
:104600007047000081B040F2C870C2F20000009014
:10461000009800680099401A18BF012001B0704747
:1046200080B588B084460D980C98DDF82CE0DDF854
:1046300028E0CDF81CC00691059204938DF80F0078
:104640000798143000F064FD0598079908620498F3
:10465000079948620A98079988620B980799C86277
:104660000799886ACA6A232101F036F9079B186AFC
:10467000596A9A6ADB6A1A44043A46F2FD03C0F6A4
:10468000000300F06FFC0799C8619DF80F000799BF
:1046900081F836009DF80F00079981F835000798DA
:1046A0000021029181630D98079AD0630D98079AB3
:1046B000106407980163079880F834100798016721
:1046C00007984167079B03F144006A4651601160F7
:1046D00046F24D32C0F60002194601F06BFF029817
:1046E00008B080BD80B586B084460898CDF814C067
:1046F0000491039202938DF807009DF80700059935
:1047000048720599487A00F0FE00487204980599AD
:10471000C86103980599086205990020886202998A
:10472000059A51620090FFE7009800280CDCFFE733
:104730000598009900EBC100143000F0F1FCFFE790
:10474000009801300090EFE706B080BD80B582B0E0
:10475000019000200090FFE7009800280CDCFFE7A4
:104760000198009900EBC100143000F0B7FDFFE79D
:10477000009801300090EFE702B080BD80B582B0B4
:104780000190FBF7E3FC00900198006F20B1FFE778
:104790000198016F8847FFE70098FBF7DBFC02B048
:1047A00080BD000083B00290019101980A2815D1C4
:1047B000FFE7029800684CF6CD42CCF6CC42A0FB55
:1047C0000231C90801EB8101A0EB41000090029980
:1047D0000868A0FB0220C008086009E00298006891
:1047E00000F00F0000900299086800090860FFE7D8
:1047F000009803B07047000085B0ADF81200ADF826
:104800001010002003908DF80B00BDF8120040F24C
:10481000E062C2F20002117802EB41014880107898
:10482000411C11700A2803D3FFE70020019008E023
:1048300040F2E062C2F200021078411C1170019057
:10484000FFE7019940F2E060C2F200000170407899
:1048500009280AD8FFE740F2E061C2F20001487877
:1048600001304870C0B2009006E040F2E060C2F251
:10487000000040780090FFE7009840F2E061C2F24B
:104880000001487000208DF80A00FFE79DF80A003B
:1048900040F2E061C2F20001497888421BDAFFE78A
:1048A0009DF80A1040F2E060C2F2000000EB410007
:1048B0004088BDF81010884206DAFFE79DF80B002B
:1048C00001308DF80B00FFE7FFE79DF80A0001308B
:1048D0008DF80A00DAE79DF80B1000200829C8BF00
:1048E000012005B07047000080B58CB00B900A9194
:1048F0000992ADF8223002A80190FDF713F9019951
:10490000BDF8220002900A980390022006900998B0
:1049100005900B98FDF77AF80CB080BD80B5FFF7D5
:1049200043FA002080BD000080B582B0019000F005
:10493000FFF9FFF7F3FF02B080BD000082B080B541
:10494000A4B0279326928DF88F0022919DF88F00B6
:10495000B0F1FF3F01DCFFE70CE026A82190229A8E
:10496000219B01A80090802102F036FA0098FCF704
:1049700073FFFFE724B0BDE8804002B0704700003D
:1049800083B0029040F2FC60C2F20000006802991D
:104990004968084401900298019988422DD0FFE7A8
:1049A0000198408848BBFFE7019840F2F861C2F2E5
:1049B00000010968884220D0FFE740F29C70C2F2F3
:1049C000000000680199884207D1FFE7029840F291
:1049D0009C71C2F200010860FFE7019840680299EB
:1049E0004860029840F2FC61C2F200010968401A76
:1049F000019A526811448860FFE740F2FC60C2F2FD
:104A000000000068029989680844009000980299A3
:104A1000884224D0FFE70098408800BBFFE740F2BF
:104A20009C70C2F2000000680299884207D1FFE73B
:104A3000009840F29C71C2F200010860FFE7029802
:104A4000406800994860009840F2FC61C2F20001A1
:104A50000968401A029A526811448860FFE703B05F
:104A60007047000080B590B0DDF850C0DDF84CC054
:104A7000DDF848C00F900E910D920C93139806909C
:104A8000129803901498420647F65511C0F600019B
:104A900047F66610C0F60000002A48BF0846059099
:104AA0009DF85000C006002805D5FFE7149820F0B7
:104AB00001001490FFE71498C1072020002918BFB7
:104AC00030208DF82F0000208DF82E009DF850002A
:104AD0008007002823D5FFE70D98B0F1FF3F07DCE2
:104AE000FFE72D208DF82E000D9840420D9015E027
:104AF0009DF850004007002804D5FFE72B208DF8D3
:104B00002E000AE09DF850000007002804D5FFE7BA
:104B100020208DF82E00FFE7FFE7FFE7FFE70020EA
:104B200004900D9840B9FFE7049A501C04900DF1D1
:104B30001E013020885414E0FFE70D9880B1FFE794
:104B4000059802900C990DA8FFF72CFE01460298DB
:104B5000405C049A511C04910DF11E018854ECE74D
:104B6000FFE704981399884203DDFFE70498139048
:104B7000FFE713990398401A03909DF8500010F036
:104B8000110F21D1FFE79DF82E0040B1FFE70398F8
:104B9000012804DBFFE7039801380390FFE7FFE7F4
:104BA0000398411E039101280DDBFFE70F980E9932
:104BB000884204D2FFE70F9920200870FFE70F9882
:104BC00001300F90ECE7FFE79DF82E0088B1FFE77A
:104BD0000F980E99884205D2FFE79DF82E000F9995
:104BE0000870FFE70398013803900F9801300F9089
:104BF000FFE79DF85000C006002816D4FFE7FFE746
:104C00000398411E039101280EDBFFE70F980E99D0
:104C1000884205D2FFE79DF82F000F990870FFE743
:104C20000F9801300F90EBE7FFE7FFE70498139927
:104C30004A1E139288420DDAFFE70F980E998842B8
:104C400004D2FFE70F9930200870FFE70F9801307A
:104C50000F90EBE7FFE70499481E0490002001291C
:104C6000019006DBFFE70698002818BF012001909D
:104C7000FFE70198C00780B1FFE70F980E998842BF
:104C800007D2FFE704990DF11E00405C0F990870F0
:104C9000FFE70F9801300F90DDE7FFE70398411E13
:104CA000039101280DDBFFE70F980E99884204D28B
:104CB000FFE70F9920200870FFE70F9801300F9051
:104CC000ECE70F9810B080BD80B584B06946142021
:104CD00048600A20086047F65A30C0F6000044F6E3
:104CE0002911C0F6000100224FF4806301F0C6F9DB
:104CF0000390039801F0E0FA04B080BD80B582B063
:104D000047F67830C0F600000190FFE7019847F6BB
:104D10007C31C0F60001884208D2FFE701980068A4
:104D20008047FFE7019804300190EFE702B080BDB3
:104D300080B582B047F67C30C0F600000190FFE7F6
:104D4000019847F68031C0F60001884208D2FFE79B
:104D5000019800688047FFE7019804300190EFE771
:104D600002B080BD80B582B0FBF7F0F9019040F24F
:104D7000C471C2F200010888013008800198FBF775
:104D8000E9F902B080BD000080B582B0FBF7DEF922
:104D9000019040F2C470C2F2000001880139018024
:104DA000B0F90000002814DCFFE740F2C471C2F241
:104DB0000001002008800198FBF7CCF940F2B070A8
:104DC000C2F20000006818B1FFE700F0BDFEFFE787
:104DD00003E00198FBF7BEF9FFE702B080BD0000D9
:104DE00080B582B00190019808B9FFE759E00198B9
:104DF00040F2FC61C2F200010968884209D3FFE772
:104E0000019840F2F861C2F200010968884201D3BA
:104E1000FFE746E001980C38009040F20070C2F2C3
:104E200000004FF0FF3100F0ABFF0098408830B138
:104E3000FFE700980088B0F5F55F01D0FFE7FFE7D6
:104E400000990020488000994FF4F55008800098A0
:104E500040F29C71C2F200010968884207D2FFE764
:104E6000009840F29C71C2F200010860FFE70098D0
:104E7000436840F2FC61C2F200010968421A40F640
:104E80007C41C2F200010868D21A10440860009800
:104E9000FFF776FD40F20070C2F2000000F036FF2E
:104EA000FFE702B080BD000080B5FDF7C3FB40F214
:104EB0000000C2F20000006848F21F51C5F2EB1179
:104EC000A0FB01104009FEF733F84FF0202044F218
:104ED0000001C2F2000100F0E9FFFFF70FFF80BD03
:104EE00080B582B00190FFF73DFF019A47F6AF1100
:104EF000C0F600010020FDF765FEFFF745FF02B098
:104F000080BD000080B584B00390039828300290E3
:104F100003980430019040F2B470C2F200000068BF
:104F200070B1FFE740F2B470C2F20000016802986D
:104F300088470090009810B9FFE704B080BDFFE7F4
:104F4000039800784007002801D5FFE700E0FFE75D
:104F500003980078C006002801D4FFE7FFE7FFE7C9
:104F6000FEE7000087B00690059104920393049831
:104F700004300190019820F0070001900198443816
:104F800001900198029000200090FFE700981028FF
:104F90000DD8FFE70299009A4BF6EF60CDF6AD60B1
:104FA00041F82200FFE7009801300090EEE70598F5
:104FB000029948620299002088620299C8620299A7
:104FC0000863029948630399029A91630699029AC9
:104FD000D163029A4FF080711164029908600198C0
:104FE00007B0704780B582B0FBF7B0F8019040F28F
:104FF000BC71C2F200010878013008700198FBF71B
:10500000A9F802B080BD000080B582B0FBF79EF821
:10501000019040F2BC71C2F20001087801380870BA
:105020000198FBF797F802B080BD000080B582B010
:1050300001900198006814380090009801F010F970
:10504000002002B080BD000080B586B005900491BC
:105050008DF80F20049801F04FF99DF80F000146DC
:10506000009120B1FFE70098012806D032E00598B2
:105070000499143100F098F82DE00598006802902A
:10508000FFE702980599884218D0FFE70298143884
:105090000190049890F83500019991F835108842F4
:1050A00007DAFFE7019814300499143100F07CF816
:1050B00004E0FFE7029800680290E2E70298059991
:1050C000884206D1FFE705980499143100F06CF886
:1050D000FFE700E0FFE7002006B080BD80B582B0AA
:1050E00001900198143000F003F8002002B080BD58
:1050F00081B00090009840600099086001B070474E
:1051000081B00090009840600099086001B070473D
:1051100081B00090009840600099086001B070472D
:1051200081B00090009840600099086001B070471D
:1051300082B0019000910098019909684860019837
:10514000006800990860009801990860019800992A
:10515000486002B07047000082B001900091009852
:1051600001990968486001980068009908600098F2
:105170000199086001980099486002B070470000EA
:1051800082B00190009100980199096848600198E7
:1051900000680099086000980199086001980099DA
:1051A000486002B07047000082B001900091009802
:1051B0000199496808600198406800994860009822
:1051C0000199486001980099086002B0704700009A
:1051D00082B0019000910098019949680860019897
:1051E00040680099486000980199486001980099CA
:1051F000086002B07047000082B0019000910098F2
:1052000001994968086001984068009948600098D1
:105210000199486001980099086002B07047000049
:1052200081B0009000990868401AB0FA80F04009F7
:1052300001B0704781B0009000990868401AB0FA38
:1052400080F0400901B0704781B000900099086873
:10525000401AB0FA80F0400901B0704781B0009068
:1052600000980168406848600099086849680860CB
:10527000009840600099086001B0704781B00090CC
:1052800000980168406848600099086849680860AB
:10529000009840600099086001B0704781B00090AC
:1052A000009801684068486000990868496808608B
:1052B000009840600099086001B0704781B000908C
:1052C000009801684068486000990868496808606B
:1052D000009840600099086001B0704781B000906C
:1052E000009801684068486000990868496808604B
:1052F000009840600099086001B0704780B588B0A0
:105300000690069818B9FFE70020079038E1069844
:10531000C11C21F00301884201D0FFE700E0FFE754
:105320000698033020F003000690069840F2A8711A
:10533000C2F200010968884203D9FFE70020079004
:105340001EE106980B2803D8FFE70C200690FFE724
:1053500040F20070C2F200004FF0FF3100F010FD8B
:1053600040F29C70C2F20000006840F2FC61C2F2A0
:1053700000010968401A0590FFE7059840F2A871FE
:10538000C2F200010968069A891A884280F0EF800B
:10539000FFE740F2FC60C2F2000000680599084493
:1053A000039003984088002840F0D680FFE70398D8
:1053B00040680599401A0C3806998842C0F0CC80A4
:1053C000FFE7039840680599401A0C380699183190
:1053D000884255D3FFE70598069908440C3004909D
:1053E00040F2FC60C2F20000006804990844029098
:1053F00002994FF4F55008800299002048800398E4
:105400004068029948600598029988600498039959
:1054100048600399012048800298406840F2A871D2
:10542000C2F2000109680C3188420BD0FFE70498F2
:1054300040F2FC61C2F200010968029A526811440C
:105440008860FFE7069840F67C41C2F200010A68D6
:1054500010440C30086040F2A070C2F200000068F6
:10546000096888420BD2FFE740F67C40C2F2000098
:10547000006840F2A071C2F200010860FFE727E077
:10548000039901204880039A506840F2FC61C2F2FF
:1054900000010968891A421840F67C41C2F20001F5
:1054A00008681044086040F2A070C2F20000006872
:1054B000096888420BD2FFE740F67C40C2F2000048
:1054C000006840F2A071C2F200010860FFE7FFE748
:1054D00003994FF4F5500880039840F29C71C2F292
:1054E0000001096888422DD1FFE7FFE740F29C7078
:1054F000C2F20000006841880020019079B1FFE706
:1055000040F29C70C2F20000006840F2F861C2F202
:1055100000010968401A18BF01200190FFE70198B7
:10552000C00770B1FFE740F2FC60C2F20000006803
:1055300040F29C71C2F200010A685268104408608F
:10554000D4E7FFE740F20070C2F2000000F0DEFB9B
:1055500003980C30079013E0FFE740F2FC60C2F2C2
:1055600000000068059908444068059005E740F28E
:105570000070C2F2000000F0C9FB00200790FFE7B6
:10558000079808B080BD000080B586B004900391F4
:105590008DF80B200499052000F0F8F9019001988E
:1055A00018B9FFE70198059028E09DF80B000199D4
:1055B00048720198FFF792FD0398019908840198B9
:1055C000008C8000FFF79AFE0199C8610198C069BC
:1055D00030B9FFE7019800F013FA002005900DE0C4
:1055E000019900204884019988840199C884019810
:1055F0002830FFF77DFD01980590FFE7059806B07C
:1056000080BD000080B588B006900591049200200E
:10561000019000F04BFE0390FAF798FD0290069877
:10562000408C50B9FFE7049838B9FFE70298FAF7C1
:1056300091FD6FF0010007908BE0FFE70698408C2A
:1056400000284FD1FFE7039900200863049848B968
:10565000FFE70298FAF77EFD03996FF001000863F7
:10566000079076E0069A02F114000399527AFFF748
:10567000EBFC049801280EDBFFE700F0B5FE01907B
:1056800003984430002104AA00F03EFF0398443000
:1056900000F0B0FFFFE70298FAF75CFD00F054FA63
:1056A0000398006B20B1FFE70398006B079050E070
:1056B000FAF74CFD02900498012812DBFFE700F096
:1056C00093FE0199401A019001990498401A0490A0
:1056D0000498B0F1FF3F03DCFFE700200490FFE7F0
:1056E000FFE7ABE70699C869C98C50F82100059916
:1056F00008600699C88C0130C8840699C88C098C4A
:10570000884204DBFFE706990020C884FFE706987B
:10571000408C012805DBFFE70699488C0138488456
:10572000FFE706982830FFF77BFD60B9FFE7069892
:105730002830FFF77BFC0298FAF70CFD00F004FA22
:105740000020079005E00298FAF704FD002007907A
:10575000FFE7079808B080BD80B582B00190009146
:1057600001980099002200F003F802B080BD00000B
:1057700080B588B00690059104920020019000F059
:1057800095FD0390FAF7E2FC02900699488C098C8B
:1057900088420AD1FFE7049838B9FFE70298FAF780
:1057A000D9FC6FF00200079092E0FFE70699488C61
:1057B000098C88424DD1FFE70399002008630498C3
:1057C00038B9FFE70298FAF7C5FC6FF002000790BE
:1057D0007EE0069A02F128000399527AFFF734FC22
:1057E000049801280EDBFFE700F0FEFD019003980E
:1057F0004430002104AA00F087FE0398443000F0F2
:10580000F9FEFFE70298FAF7A5FC00F09DF903986E
:10581000006B20B1FFE70398006B079058E0FAF7A0
:1058200095FC02900498012812DBFFE700F0DCFDF4
:105830000199401A019001990498401A0490049823
:10584000B0F1FF3F03DCFFE700200490FFE7FFE734
:10585000ACE70598069AD169928C41F82200069926
:10586000888C013088840699888C098C884204DBF6
:10587000FFE7069900208884FFE70698408C4FF6E2
:10588000FE71884205DCFFE70699488C01304884A8
:1058900006E00298FAF75EFC6FF00200079017E04E
:1058A00006981430FFF7BCFC60B9FFE70698143087
:1058B000FFF7BCFB0298FAF74DFC00F045F9002019
:1058C000079005E00298FAF745FC00200790FFE7F3
:1058D000079808B080BD000088B007900691059237
:1058E000079803909DF818000090059804283DD370
:1058F000FFE79DF81C008007C0BBFFE707980190F9
:10590000009840EA00200290029840EA004002908D
:10591000FFE70598102818D3FFE7029801990A1DA0
:1059200001920860029801990A1D0192086002988C
:1059300001990A1D01920860029801990A1D0192BD
:105940000860059810380590E3E7FFE705980428FC
:1059500009D3FFE7029801990A1D01920860059892
:1059600004380590F2E701980390FFE7FFE70598F8
:10597000411E059130B1FFE7009803994A1C03923C
:105980000870F4E7079808B07047000080B588B049
:105990008DF81B0005919DF81B0000F059F802904E
:1059A0000298C068FFF7AAFC0490049818B9FFE7B2
:1059B0000020079021E004980299CA680021019113
:1059C000FFF78AFF01989DF81B10049A1172049941
:1059D000487204980599082200F03AFAFAF7B6FBE3
:1059E00003900298043004990C31FFF7A1FB03984F
:1059F000FAF7B0FB04980790FFE7079808B080BD5E
:105A000080B582B00190019900200872FAF79EFBE0
:105A1000009001980C30FFF731FC0098FAF79AFBE0
:105A20000198FFF7DDF902B080BD000080B582B0BB
:105A30000190019900200872FAF788FB0090019804
:105A40000C30FFF71BFC0098FAF784FB02B080BD16
:105A500083B08DF8070000200090FFE7009803282E
:105A60001ADCFFE70098010140F20400C2F20000D6
:105A7000405C9DF80710884209D1FFE7009940F289
:105A80000400C2F2000000EB0110029007E0FFE703
:105A9000009801300090E1E700200290FFE70298B3
:105AA00003B0704780B588B007908DF81B10059241
:105AB000002003909DF81B00FFF7CAFF0290FFF73C
:105AC00051F9029840680390FFE703980299043166
:105AD00088420CD0FFE703980C380190019808B178
