:020000040800F2
:10000000901D002029010008212B00082D02000866
:100010008D280008350E0008E947000800000000A0
:10002000000000000000000000000000593200083D
:1000300051140008000000007B010008B1320008E4
:100040004301000843010008430100084301000880
:100050004301000843010008430100084301000870
:10006000430100084301000843010008A10F0008F4
:100070004301000843010008430100084301000850
:100080004301000843010008430100084301000840
:100090004301000843010008430100084301000830
:1000A0004301000843010008430100084301000820
:1000B0004301000843010008430100084301000810
:1000C0004301000843010008430100084301000800
:1000D0008942000843010008430100086115000837
:1000E00043010008430100084301000843010008E0
:1000F000430100084301000843010008F9370008E4
:1001000043010008430100084301000843010008BF
:1001100043010008DFF80CD000F0C4F800480047A5
:10012000C9020008901D0020064880470648004785
:10013000FEE7FEE7FEE7FEE7FEE7FEE7FEE7FEE797
:10014000FEE7FEE72934000815010008EFF31080F0
:1001500072B6704780F310887047424A1368012BCB
:1001600004D04FF0010313603F4A10603F4A116012
:100170003F484FF0805101607047EFF3108272B634
:100180003848016851B34FF00001016036480168FA
:1001900091B1EFF309811EF0100F08BF21ED108B14
:1001A00021E9F00F4FF000041EF0100F08BF0124EA
:1001B00041F8044D006801602C490968096808C9C4
:1001C000B1E8F00F002B18BFB1EC108B81F3098858
:1001D0004EF0100E002B18BF2EF0100E82F3108878
:1001E0004EF0040E704721490860EFF3148222F0AC
:1001F000040282F314881C494FF00000086019497A
:100200004FF0010008601B481B49D0F8002041EA6C
:100210000201016016484FF08051016017480068E4
:10022000006880F3088861B662B670471EF0040F5C
:100230000CBFEFF30880EFF3098020E9F00F40F8DE
:1002400004ED40F804ED1EF0040F0CBF80F30888A5
:1002500080F3098800B505F01DF85DF804EB4EF059
:10026000040E704730050020140300201C030020FA
:1002700004ED00E020ED00E00000FFFF08ED00E0ED
:10028000D2B201E000F8012B491EFBD270470022D8
:10029000F6E710B513460A4604461946FFF7F0FF85
:1002A000204610BD064C074D06E0E06840F0010313
:1002B00094E8070098471034AC42F6D3FFF72EFFBE
:1002C0007C7400089C74000880B506F01BFF0020B9
:1002D00080BD000040F65801C4F20201086820F019
:1002E000100008607047000082B00090009801285C
:1002F00011D1FFE740F65400C4F20200006848B98B
:10030000FFE740F60801C4F20201086840F004006B
:100310000860FFE720E0009802281CD1FFE740F6C4
:100320000800C4F202000068400700280FD5FFE76C
:1003300040F65400C4F20200006820B1FFE700203C
:100340008DF807000CE001208DF8070008E0002080
:100350008DF8070004E0FFE700208DF80700FFE7B5
:100360009DF8070002B0704782B08DF807008DF845
:100370000610002000909DF8070009281BDCFFE70D
:100380009DF807000090009800EB4001072000FA5C
:1003900001F240F61001C4F20201086890430860BF
:1003A0009DF80600009A02EB420200FA02F2086889
:1003B0001043086034E09DF8070011281CDCFFE7BB
:1003C0009DF807000A380090009800EB40010720D4
:1003D00000FA01F240F60C01C4F2020108689043F1
:1003E00008609DF80600009A02EB420200FA02F251
:1003F00008681043086012E0009800EB40010720F5
:1004000000FA01F240F65C01C4F202010868904370
:1004100008609DF80620086810430860FFE7FFE7C2
:1004200002B0704780B582B08DF80700009102F0ED
:10043000DBFC9DF8070040B9FFE702F0DFFC009805
:1004400002F0BCFCFFF746FF05E0009802F0E0FC7C
:1004500000F0A6F9FFE702B080BD000040F60801F9
:10046000C4F20201086820F0020008607047000032
:1004700040F60801C4F20201086840F0020008607A
:100480007047000040F60801C4F20201086840F419
:10049000807008607047000081B0009040F608014D
:1004A000C4F20201086820F400600860009A08683D
:1004B0001043086001B0704781B000900098B0F51B
:1004C000801F09D1FFE7009A40F60801C4F202013B
:1004D0000868104308602EE000986FF4801188428D
:1004E00009D1FFE7009A40F60801C4F2020108684A
:1004F000104008601EE00098B0F5004F09D1FFE7FA
:10050000009A40F60801C4F202010868104308602E
:100510000FE000986FF40041884209D1FFE7009A8C
:1005200040F60801C4F20201086810400860FFE7C5
:10053000FFE7FFE7FFE701B07047000081B08DF8EB
:1005400002008DF801108DF800209DF802000128AE
:1005500012D1FFE740F60000C4F2020000689DF8E7
:100560000110084204D0FFE701208DF8030015E0D8
:1005700000208DF8030011E040F65800C4F202009C
:1005800000689DF80010084204D0FFE701208DF8B4
:10059000030003E000208DF80300FFE79DF803004F
:1005A00001B0704780B590B043F60000C4F202007D
:1005B00003210791002204924FF4005304F090FBB2
:1005C000049A079943F20040C4F202000190082304
:1005D000069304F085FB0198049A0799202304F000
:1005E0007FFB0198049A0799802304F079FB019816
:1005F000049A07990123089304F072FB0198049A66
:10060000079902230A9304F06BFB4FF4805002F029
:1006100015FC04980799FFF705FF04984FF4F04183
:1006200002F0ACFB0CA8029000F08CF80298049940
:10063000089A8DF830208DF831200E914FF420214A
:100640000D914FF4A0010F9100F056F80F20039088
:1006500005210B91FFF788FE0398049900F00AF931
:100660000B9904200990FFF77FFE0899099800F084
:1006700001F90B9906200590FFF776FE05980A9977
:1006800000F0F8F806980B99FFF76EFE06980799A8
:1006900000F0F0F808980B99FFF766FE08980999A2
:1006A00000F0E8F80A980B99FFF75EFE0A980B999C
:1006B00000F0E0F8FFF7E6FE4FF48010FFF7FCFED5
:1006C00000F064F8FFE7022040212022FFF736FF08
:1006D00008B9FFE7F7E70120FFF706FEFFE7022072
:1006E000FFF702FE08B1FFE7F9E74FF4A00000F0C2
:1006F00071F810B080BD000080B582B00190019803
:10070000007818B1FFE700F037F802E000F02AF8AF
:10071000FFE70198407818B1FFE7FFF7A9FE02E074
:10072000FFF79CFEFFE70198406800F093F80198FE
:100730008068FFF7B1FE0198C06800F03BF802B096
:1007400080BD000081B000900099002008700099E1
:10075000487000994860009988600099C86001B0AD
:100760007047000040F60401C4F20201086820F45A
:10077000807008607047000040F60401C4F2020176
:10078000086840F4807008607047000040F6080177
:10079000C4F20201086840F00100086070470000E0
:1007A00040F65801C4F20201086840F010000860E9
:1007B0007047000081B0009040F62C01C4F20201A5
:1007C000086820F470000860009A08681043086008
:1007D00001B0704782B000900098B0F5A00F09D129
:1007E000FFE7009A40F60801C4F2020108681043CE
:1007F000086026E000986FF4A001884209D1FFE765
:10080000009A40F60801C4F202010868104008602E
:1008100016E00098B0F5800F11D1FFE740F6080010
:10082000C4F2020000680099084204D0FFE70120EA
:100830008DF8070009E000208DF8070005E0FFE7CC
:10084000FFE700208DF80700FFE79DF8070002B0E2
:100850007047000081B0009040F60801C4F2020128
:10086000086820F460200860009A08681043086057
:1008700001B0704781B08DF803008DF802109DF82B
:10088000020005281ADCFFE79DF8020000EB80015A
:100890001F2000FA01F240F63401C4F20201086898
:1008A000904308609DF803009DF8022002EB82024D
:1008B00000FA02F20868104308603FE09DF8020069
:1008C0000B281DDCFFE79DF8020000EB8000A0F183
:1008D0001E011F2000FA01F240F63001C4F20201AD
:1008E0000868904308609DF803009DF8022002EB21
:1008F00082021E3A00FA02F20868104308601CE007
:100900009DF8020000EB8000A0F13C011F2000FADE
:1009100001F240F62C01C4F202010868904308601D
:100920009DF803009DF8022002EB82023C3A00FA97
:1009300002F2086810430860FFE7FFE701B0704764
:1009400080B502F01DFC00F0CFFA00F0B7FF80BDCB
:1009500082B08DF80700002000909DF8070040F25B
:100960008011C2F2000181F8780002B070470000E7
:1009700080B584B08DF80F009DF80F0040F248015B
:10098000C2F200010979884201D1FFE73AE040F262
:100990004800C2F200000179417100790138014636
:1009A000029104280ED80299DFE801F0030405083B
:1009B0000B0008E007E002F033F804E001F012FB5E
:1009C000FFE700E0FFE79DF80F00013801460191C5
:1009D00004280ED80199DFE801F0030405080B0094
:1009E00008E007E002F002F804E001F0F3FA01E0A9
:1009F00000E0FFE79DF80F0040F24801C2F200015D
:100A00000871FFE704B080BD80B547F24740C0F6EB
:100A100000000321002204F07FFF40F2F821C2F21F
:100A20000001086080BD000080B584B040F2F8206D
:100A3000C2F20000006803A9002204F0ABFF10BB63
:100A4000FFE70398029006281BD80299DFE801F01F
:100A50000407100D13160A0000F050FA12E000F01F
:100A600065FA0FE001F0BCF80CE001F0F1FA09E0E2
:100A700001F0DCFA06E001F0E3FA03E001F0DEFA4F
:100A800000E0FFE7FFE740F24800C2F20000007913
:100A90000146019105280ED80199DFE801F0030411
:100AA0000C05080B08E007E001F0CCFF04E001F0C2
:100AB0009BFA01E000E0FFE704B080BD80B582B0A2
:100AC000002001908DF8030040F26050C2F2000057
:100AD000B0F81C014921414348F26910C6F61600DE
:100AE000A1FB0020091A00EB510080090190BDF81C
:100AF00004004FF42F6104F06FF820B1FFE70120EC
:100B00008DF8030003E000208DF80300FFE79DF857
:100B1000030040F28011C2F2000181F83000019818
:100B2000486302B080BD000080B582B00020019013
:100B30008DF8030040F26050C2F20000B0F81E01D0
:100B40004921414348F26910C6F61600A1FB002076
:100B5000091A00EB510080090190BDF8040040F62D
:100B6000D86104F039F820B1FFE701208DF80300C7
:100B700003E000208DF80300FFE79DF8030040F23A
:100B80008011C2F2000181F83C000198086402B0B3
:100B900080BD000082B0002001908DF8030040F27B
:100BA0006050C2F20000B0F816014921414348F2FA
:100BB0006910C6F61600A1FB0020091A00EB5100CF
:100BC0008009019040F20420C2F20000007901285F
:100BD00004D0FFE700208DF803000CE001986328A3
:100BE00004D8FFE700208DF8030003E001208DF812
:100BF0000300FFE7FFE79DF8030040F28011C2F217
:100C0000000181F824000198886202B0704700005A
:100C100080B543F20040C4F20200102100F07EFFD4
:100C200080BD000080B543F20040C4F202001021F4
:100C300000F07EFF80BD000080B5FFF7F3FF40F2BB
:100C40000421C2F200010120087180BD80B5FFF7C8
:100C5000DFFF40F20421C2F200010020087180BDD4
:100C600080B540F2E73000F05DF880BD80B500202F
:100C700000F058F880BD000080B540F20420C2F2B8
:100C800000000079012812D1FFE740F28010C2F283
:100C9000000090F87800012809D1FFE7FFF7E0FF96
:100CA00040F20C21C2F2000101200871FFE780BD73
:100CB00080B5FFF7DBFF40F20C21C2F200010020FB
:100CC000087180BD80B582B040F24C10C2F20000C5
:100CD000C068322824D1FFE740F20C20C2F20000A5
:100CE00000790146019120B1FFE70198012801D068
:100CF00014E014E040F28010C2F2000090F82400EA
:100D000040B1FFE740F28010C2F2000090F8780096
:100D100018B9FFE7FFF7CCFFFFE700E0FFE7FFE7C9
:100D200002B080BD80B582B00190019802F0F8FB5E
:100D300002B080BD80B590B00120029002F07EF834
:100D400005A800902C21FFF7A2FA0820C4F20200A7
:100D5000039000F0EBFA0099039840F64C02C4F2BD
:100D60000202059240F26052C2F200020692002294
:100D70000192079278230893099280230A934FF4F3
:100D800080730B934FF480630C9320230D934FF4E7
:100D900040530E930F9200F011FA0199039800F05E
:100DA000C7F90398022100F047FA0398042100F0E4
:100DB00043FA02980B218DF810108DF811008DF870
:100DC00012008DF8130004A801F0B4FE039800F09F
:100DD000A5F910B080BD000080B582B001900198E7
:100DE00002F08AFB02B080BD80B501F04BFDFFF739
:100DF000A1FFFFF7D7FB02F0C9FB02F029FC02F0CC
:100E000067FC02F0AFFC02F035FD00F095FC03F04A
:100E100085FA00F0FDFF80BD80B582B00190019899
:100E200002F074FB02B080BD80B502F0D3FC80BD3F
:100E300070470000FFE7FEE780B584B003900291A1
:100E400000208DF807000090FFE700980299884283
:100E50000ED2FFE79DF807000399009A895C00F025
:100E600085F88DF80700FFE7009801300090ECE767
:100E70009DF8070004B080BD80B588B000200790C1
:100E800001A801F0FFFF41F20400C4F20200006873
:100E900010F4E06F03D1FFE70398079003E0039895
:100EA00040000790FFE7079808B080BD80B543F287
:100EB0000040C4F202004FF4004100F02FFE80BD5C
:100EC00080B543F20040C4F202004FF4004100F04C
:100ED0002FFE80BD80B5FFF7F3FF40F21421C2F270
:100EE00000010120087180BD80B5FFF7DFFF40F2EF
:100EF0001421C2F200010020087180BD80B582B0CB
:100F000040F24800C2F20000007901460191032836
:100F100004D3FFE70198032804D004E00320FFF77F
:100F200027FD01E000E0FFE702B080BD80B582B0A0
:100F300040F24800C2F200000079032813D1FFE715
:100F400040F27010C2F20000007B014601910228BD
:100F500004D0FFE70198042803D1FFE701F022FD48
:100F600000E0FFE700E0FFE702B080BD81B08DF850
:100F700003008DF802109DF803009DF80210414017
:100F800047F2F620C0F60000405C01B07047000058
:100F900082B00190009100980199486002B07047BA
:100FA00080B586B004F0E6F90020C4F20200042106
:100FB00000F0EEF8002847D0FFE70020C4F202005E
:100FC000042100F0DDF800200590FFE705980528D2
:100FD00039D8FFE7002004900390FFE70398092821
:100FE00014D8FFE7039800EB400140F26050C2F2D2
:100FF000000000EB8100059930F8111004980844B6
:101000000490FFE7039801300390E7E704984CF65B
:10101000CD41CCF6CC41A0FB0110C208059B40F2AB
:101020006051C2F2000101F1F00020F81320059A8E
:1010300030F8120001EB4201A1F80801FFE7059822
:1010400001300590C2E7FFE70020C4F20200022150
:1010500000F09EF800285BD0FFE70020C4F20200F9
:10106000022100F08DF800200290FFE70298052889
:1010700046D8FFE7002001900090FFE7009809287C
:1010800016D8FFE7009800EB400140F26050C2F232
:10109000000000EB8100029900EB4100B0F87810ED
:1010A000019808440190FFE7009801300090E5E7BF
:1010B00001984CF6CD41CCF6CC41A0FB0110C10803
:1010C000029B40F26050C2F2000000F1FC0222F8E4
:1010D0001310029B32F8131000EB4303A3F808111E
:1010E000029B00EB4301B1F8F00032F813201044EA
:1010F0004008A1F81401FFE7029801300290B5E71B
:1011000040F28060C2F20000006804F0C7FF00E017
:10111000FFE704F041F906B080BD000081B0009007
:101120000099086840F00100086001B070470000B5
:1011300082B00190009100980199086102B0704757
:1011400082B0019000910199086820F020000860A9
:10115000009A019908681043086002B070470000C7
:1011600082B0019000910199086820F01000086099
:10117000009A019908681043086002B070470000A7
:1011800082B00190009100980199486002B07047C8
:1011900083B001900091019800680099084204D141
:1011A000FFE700208DF80B0003E001208DF80B0015
:1011B000FFE79DF80B0003B07047000080B582B0D8
:1011C0000190009101980099096800F087F8019852
:1011D0000099496800F05AF8019800998968FFF76A
:1011E000BFFF01980099C968FFF7D2FE01980099E6
:1011F000096900F063F801980099496900F036F830
:1012000001980099896900F071F801980099C969FD
:1012100000F044F801980099096AFFF791FF0198DE
:101220000099496A00F072F801980099896A00F003
:101230000DF802B080BD000082B001900091009ACC
:10124000019908681043086002B0704782B00190AD
:1012500000910199086820F480400860009A019983
:1012600008681043086002B07047000082B0019027
:1012700000910199086820F080000860009A0199A7
:1012800008681043086002B07047000082B0019007
:10129000009100980199C86002B0704782B0019037
:1012A00000910199086820F440600860009A019953
:1012B00008681043086002B07047000082B00190D7
:1012C00000910199086820F040000860009A019997
:1012D00008681043086002B07047000082B00190B7
:1012E000009100980199886002B0704782B0019027
:1012F00000910199086820F440700860009A0199F3
:1013000008681043086002B07047000082B0019086
:1013100000910199086820F440500860009A0199F2
:1013200008681043086002B07047000081B0009068
:101330000099086820F0010008600099002008600A
:1013400000994860009988600099C8600098082159
:10135000C4F20201884208D1FFE70421C4F202016D
:10136000086840F00F0008606FE000981C21C4F28C
:101370000201884208D1FFE70421C4F20201086893
:1013800040F0F00008605FE000983021C4F20201F4
:10139000884208D1FFE70421C4F20201086840F442
:1013A000706008604FE000984421C4F20201884256
:1013B00008D1FFE70421C4F20201086840F470403C
:1013C00008603FE000985821C4F20201884208D129
:1013D000FFE70421C4F20201086840F470200860AD
:1013E0002FE000986C21C4F20201884208D1FFE787
:1013F0000421C4F20201086840F4700008601FE094
:1014000000988021C4F20201884208D1FFE704213C
:10141000C4F20201086840F0706008600FE00098B4
:101420009421C4F20201884208D1FFE70421C4F2EA
:101430000201086840F070400860FFE7FFE7FFE73F
:10144000FFE7FFE7FFE7FFE7FFE701B070470000B6
:101450007047000082B0002001908DF8030040F238
:101460006050C2F20000B0F814014921414348F233
:101470006910C6F61600A1FB0020091A00EB510006
:101480008009019040F21C20C2F20000007901287E
:1014900004D0FFE700208DF803000DE0019800095B
:1014A000AE2804D8FFE700208DF8030003E00120F8
:1014B0008DF80300FFE7FFE79DF8030040F280117D
:1014C000C2F2000108700198486002B07047000045
:1014D00080B540F2E730FFF77FFC80BD80B500208B
:1014E000FFF77AFC80BD000080B5FFF7F1FF40F206
:1014F0001C21C2F200010120087180BD80B5FFF7F8
:10150000EDFF40F21C21C2F200010020087180BDF5
:1015100080B500F061F900F0A3FDFFF711FA80BD7E
:1015200080B500F07BF9FFF7C3FB01F05BFEFFF72E
:10153000E5FF01F09DF9FFF789FB01F0F9FD01F0EE
:1015400013FC80BD80B500F073F900F07BFF01F063
:101550009FF9FFF7B7FB01F04FFE01F0E9F880BDFE
:1015600080B582B04FF4805000F032F878B1FFE7D8
:101570004FF48050019000F021F8019800F040F8FD
:1015800040F68801C2F2000101200870FFE74FF425
:10159000806000F01DF878B1FFE74FF480600090A4
:1015A00000F00CF8009800F02BF840F25451C2F211
:1015B000000101200870FFE702B080BD81B00090FB
:1015C000009840F21441C4F20101086001B0704774
:1015D00082B0009040F21440C4F20100006800990B
:1015E000084204D0FFE701208DF8070003E0002047
:1015F0008DF80700FFE79DF8070002B07047000074
:1016000081B00090009840F21441C4F201010860DA
:1016100001B0704784B003900291019200200090C5
:1016200040F20040C4F201000090029850B9FFE778
:101630000199009808440090039A00990868904323
:101640000860FFE704B0704780B582B0019001994F
:101650000868097900F04EF801990868497900F0A6
:1016600009F8019A106891791279FFF7D3FF02B057
:1016700080BD000083B0029001910020009040F2F4
:101680000040C4F201000090029A40F20841C4F206
:101690000101086890430860029A40F20C41C4F2CC
:1016A00001010868904308600198102811D1FFE7F4
:1016B000029A40F20841C4F2010108681043086030
:1016C000029A40F20C41C4F201010868104308601C
:1016D0000EE040F20040C4F2010000900199009831
:1016E00008440090029A0099086810430860FFE7D8
:1016F00003B0704783B0029001910020009040F247
:101700000041C4F201010091029A08689043086008
:10171000029A40F20441C4F2010108689043086053
:101720000199009808440090029A009908681043B3
:10173000086003B07047000080B58AB043F600002F
:10174000C4F202000090002201924FF480530593EE
:10175000114603F0C5FA0098019A4FF48063049390
:10176000114603F0BDFA0120069001F07FFB0C202A
:101770000290312100F00EF90A20292100F00AF927
:10178000019A0299059B069808938DF824208DF8FC
:1017900025108DF8260008A80390FFF755FF039841
:1017A000049910228DF825200891FFF74DFF049829
:1017B000FFF726FF0598FFF723FF069827218DF8EE
:1017C0001C108DF81D008DF81E008DF81F0007A855
:1017D00001F0B0F90AB080BD7047000080B53C2030
:1017E00000F09EFF80BD000080B5002000F098FF53
:1017F00080BD000080B540F28010C2F2000090F879
:101800007800012809D1FFE7FFF7E8FF40F2500117
:10181000C2F2000101200871FFE780BD80B5FFF72B
:10182000E3FF40F25001C2F200010020087180BDC8
:1018300080B582B040F24C10C2F20000C06832287D
:101840001CD1FFE740F25000C2F2000000790146CF
:10185000019120B1FFE70198012801D00CE00CE0D4
:1018600040F28010C2F2000090F8780018B9FFE74B
:10187000FFF7D4FFFFE700E0FFE7FFE702B080BD1E
:1018800080B544F20000C4F202004FF4005100F0B1
:1018900045F980BD80B544F20000C4F202004FF467
:1018A000005100F045F980BD80B5FFF7F3FF40F22D
:1018B0002421C2F200010120087180BD80B5FFF72C
:1018C000DFFF40F22421C2F200010020087180BD38
:1018D00084B0039002910192002000909DF80400D2
:1018E000000700281BD5FFE70398406A0090019885
:1018F00000F0070081000F2000FA01F100988843F2
:1019000000900298019901F00701890000FA01F1A5
:101910000098084300900098039948621AE00398E1
:10192000006A0090019800F0070081000F2000FA83
:1019300001F10098884300900298019901F0070195
:10194000890000FA01F1009808430090009803997B
:101950000862FFE704B0704784B0039002910192DF
:10196000002000900398C06A009001984100032075
:1019700000FA01F10098884300900298019949000B
:1019800000FA01F100980843009000980399C8629A
:1019900004B0704782B08DF8070000919DF80700F1
:1019A00000F00301CA003F2101FA02F300F0FC013C
:1019B0000422C4F2010288589843885000999DF887
:1019C000070000F00303DB0001FA03F300F0FC0161
:1019D00088581843885002B07047000083B00190C7
:1019E000ADF8021001980069BDF80210084204D059
:1019F000FFE701208DF80B0003E000208DF80B00BD
:101A0000FFE79DF80B0003B07047000085B004901D
:101A100003910292002001900090049800680190C8
:101A2000039800F00300009002984100032000FAA0
:101A300001F101988843019000980299490000FA49
:101A400001F10198084301900198049908600398F6
:101A500001280CD0FFE70398112808D0FFE703986E
:101A6000022804D0FFE70398122817D1FFE7049853
:101A7000406801900299012000FA01F10198884321
:101A800001900398C0F30010029900FA01F1019847
:101A900008430190019804994860FFE705B070473A
:101AA00080B584B003900291002001900090FFE780
:101AB000029800680199C84068B3FFE7029800687F
:101AC000019A01219140084000900098F8B1FFE789
:101AD000039802994969019AFFF7FAFE039802995F
:101AE0004968019AFFF792FF039802998968019A61
:101AF00000F028F803980299C968019A00F040F8AC
:101B0000039802990969019AFFF726FFFFE70198F8
:101B100001300190CCE704B080BD000082B001909C
:101B2000ADF80210BDF802000199886202B070475A
:101B300082B00190ADF80210BDF8020001998861F1
:101B400002B0704784B0039002910192002000908F
:101B50000398C068009001984100032000FA01F149
:101B600000988843009002980199490000FA01F119
:101B700000980843009000980399C86004B070472B
:101B800084B0039002910192002000900398806835
:101B900000900199012000FA01F10098884300901B
:101BA0000298019900FA01F100980843009000980A
:101BB0000399886004B0704781B0009000994FF697
:101BC000FF70086000990020C86000994860009A82
:101BD0000F215161009988600099086101B0704738
:101BE00080B50120FEF7C4FE80BD000080B588B03E
:101BF00040F26800C2F20000007C102840F004812E
:101C0000FFE740F26800C2F20000B0F87800002858
:101C100001DCFFE7F9E040F26800C2F20000C07C9E
:101C20000146079120B1FFE70798012803D00FE094
:101C3000FFF7F4FD0DE040F27010C2F20000007BEF
:101C4000022803D1FFE7FFF7D5FD00E0FFE700E042
:101C5000FFE740F26800C2F20000007D01460691F5
:101C600020B1FFE70698012803D00FE0FFF720F826
:101C70000DE040F27010C2F20000007B022803D198
:101C8000FFE7FEF7F9FF00E0FFE700E0FFE740F2C3
:101C90006800C2F20000807D0146059120B1FFE797
:101CA0000598012803D00FE001F09CFA0DE040F206
:101CB0007010C2F20000007B022803D1FFE701F0A0
:101CC00075FA00E0FFE700E0FFE740F26800C2F2CB
:101CD0000000C07D0146049120B1FFE7049801286F
:101CE00003D00FE0FFF70AFC0DE040F27010C2F2E3
:101CF0000000007B022803D1FFE7FFF7F5FB00E0BF
:101D0000FFE700E0FFE740F26800C2F20000007E5B
:101D10000146039120B1FFE70398012803D00FE0AB
:101D200000F0A6FD0DE040F27010C2F20000007B52
:101D3000022803D1FFE700F091FD00E0FFE700E09B
:101D4000FFE740F26800C2F20000407E01460291C7
:101D500020B1FFE70298012803D00FE001F004F85A
:101D60000DE040F27010C2F20000007B022803D1A7
:101D7000FFE700F0EFFF00E0FFE700E0FFE740F2E1
:101D80006800C2F20000807E0146019120B1FFE7A9
:101D90000198012803D00FE001F0CAF90DE040F2EC
:101DA0007010C2F20000007B022803D1FFE701F0AF
:101DB000B5F900E0FFE700E0FFE740F26800C2F29B
:101DC0000000807E0146009120B1FFE700980128C5
:101DD00003D00FE0FEF73AFF0DE040F27010C2F2C0
:101DE0000000007B022803D1FFE7FEF725FF00E09B
:101DF000FFE700E0FFE740F2F820C2F200000068D1
:101E0000002103F071FE00E0FFE708B080BD000094
:101E100080B58CB043F20040C4F2020007904FF44A
:101E200000710191FFF77AFE019B0798012106914D
:101E30000022089202F054FF43F60000C4F20200B0
:101E40000A9008210291FFF769FE029B0699089A01
:101E50000A9802F045FF07984FF400410491FFF7FC
:101E60005DFE049B06990798089A02F039FF44F238
:101E70000000C4F2020003904FF400510991FFF7F3
:101E80004DFE03980699089A099B02F029FF0499D0
:101E90000798FFF743FE049B06990798089A02F0FB
:101EA0001FFF0A9804210B91FFF738FE0699089A44
:101EB0000A980B9B02F014FF0A9802210591FFF784
:101EC0002DFE059B0699089A0A9802F009FF0599CC
:101ED0000A98FFF723FE06990798089A102302F044
:101EE000FFFE05990A98FFF719FE06990798089AC8
:101EF000402302F0F5FE089A0A984FF40063114659
:101F000002F0EEFE0798089A0B9B114602F0E8FEDD
:101F1000089A099B43F60040C4F20200114602F001
:101F2000DFFE0A980B99FFF703FE0CB080BD00009E
:101F300080B582B040F26801C2F20001019101F166
:101F40000E00B1F878100531FEF776FF019981F89F
:101F50007A0091F8770091F87A10884209D0FFE76B
:101F600040F26800C2F2000090F8770008B1FFE785
:101F70002EE040F26800C2F20000807B04280BD102
:101F8000FFE740F26800C2F20000C07B062803D1E0
:101F9000FFE700F08FF914E040F26800C2F20000A1
:101FA000807B02280BD1FFE740F26800C2F20000FC
:101FB000C07B062803D1FFE7FFF718FE00E007E02B
:101FC000FFE740F26801C2F2000100204860FFE72D
:101FD00002B080BD40F26001C2F200010020086042
:101FE00070470000704700007047000083B0029007
:101FF00001910198B0F86A00029988800020009051
:10200000FFE700980199B1F86A1088420CD2FFE707
:102010000198009A10444079029911448871FFE7B1
:10202000009801300090ECE703B0704780B50220C3
:10203000FEF79EFC00F0E0FA80BD00007047000053
:1020400080B50420FEF794FC00F0D6FA80BD0000B5
:1020500080B50120FEF78CFC00F0CEFA80BD0000B8
:102060007047000080B582B00190009101980099FE
:1020700002F098F902B080BD80B584B003900020D2
:102080000290029B591C029140F2E401C2F200014D
:102090004A1CA521D15403990978029B03F1010C34
:1020A000CDF808C0D15403994978029B03F1010C83
:1020B000CDF808C0D15403998978029B03F1010C33
:1020C000CDF808C0D15403994979029B03F1010C62
:1020D000CDF808C0D15403998988029B03F1010C03
:1020E000CDF808C0D1540190FFE701980399898881
:1020F000884212D2FFE70398019908448079029A36
:10210000511C029140F2E401C2F2000111444870F6
:10211000FFE7019801300190E7E70298411E40F285
:10212000E400C2F2000000900230FEF785FE014696
:1021300000980130029A815402990131029102996A
:10214000FFF790FF04B080BD80B582B08DF8070026
:1021500040F26800C2F2000000210160007B0146ED
:102160000091072800F29B800099DFE801F0041439
:102170001E283241718A9DF80700A52803D0FFE789
:1021800000F090F806E040F26801C2F20001012080
:102190000873FFE784E09DF8070040F26801C2F28F
:1021A00000018873022008737AE09DF8070040F26E
:1021B0006801C2F20001C8730320087370E09DF843
:1021C000070040F26801C2F200010874042008739D
:1021D00066E09DF8070040F26801C2F20001487411
:1021E0009DF807000002A1F878000520087357E069
:1021F0009DF8071040F26800C2F2000081749DF85B
:102200000720B0F878101144A0F87810B0F87800E2
:1022100038B9FFE740F26801C2F2000107200873F5
:1022200015E040F26800C2F20000B0F878006428BF
:1022300009DCFFE740F26801C2F20001002088607B
:102240000620087302E000F02DF8FFE7FFE727E023
:102250009DF8070040F26801C2F200018A68531C31
:102260008B600A44D0748868B1F87810884207D12E
:10227000FFE740F26801C2F2000107200873FFE7A0
:102280000EE09DF8070040F26801C2F2000181F8FB
:102290007700012081F87B0000F004F800E0FFE700
:1022A00002B080BD40F26801C2F200010020087354
:1022B0007047000080B584B040F24800C2F20000D0
:1022C000007901460391042804D0FFE7039805280C
:1022D0000AD00AE040F26800C2F20000007CB02898
:1022E00001DBFFE7ABE00AE009E040F26800C2F280
:1022F0000000007C102801D0FFE7A0E0FFE740F2DB
:102300006800C2F20000007C1038014602913128BA
:1023100000F294800299DFE801F019494C91919103
:10232000919191919191919191919191919191919D
:10233000919191919191919191919191919191918D
:10234000919191919191919191914F7240F2680088
:10235000C2F20000B0F87800002801DCFFE76EE070
:1023600040F26800C2F20000C07C0146019140B119
:10237000FFE7019801280DD0FFE70198022812D04D
:1023800012E040F2F820C2F200000068032103F0DE
:10239000ABFB0AE040F2F820C2F200000068042122
:1023A00003F0A2FB01E000E0FFE748E000F024F9C1
:1023B00045E000F021F942E040F26800C2F200007E
:1023C000B0F87800012801DCFFE738E040F268004F
:1023D000C2F20000C07C70B9FFE740F26800C2F2B0
:1023E0000000007D18B9FFE7FFF718FA02E0FFF7D9
:1023F00001FAFFE700E0FFE700F0FEF81FE040F21F
:102400006800C2F20000B0F87800012801DCFFE7A4
:1024100015E040F26800C2F20000C07C50B9FFE74E
:1024200040F26800C2F20000007D08B9FFE700E05A
:10243000FFE700E0FFE700F0DFF800E0FFE704B0AF
:1024400080BD000080B540F24800C2F20000007973
:102450000438012801D8FFE714E040F25800C2F226
:1024600000000168013101600068C82809D3FFE756
:1024700040F25801C2F200010020086000F04CF860
:10248000FFE7FFE740F26800C2F2000000684F2853
:102490000FD8FFE740F26800C2F200000168013186
:1024A00001600068502803D3FFE7FFF7FBFEFFE75A
:1024B000FFE740F26800C2F200004068C0087C28D4
:1024C00016D8FFE740F26800C2F20000416801310F
:1024D00041604068B0F57A7F09D3FFE740F2F82009
:1024E000C2F200000068012103F0FEFAFFE7FFE7F7
:1024F00040F26800C2F2000090F87B0050B1FFE7A4
:1025000040F26801C2F20001002081F87B00FFF771
:102510000FFDFFE780BD000080B582B0642003F0AE
:10252000B5F80190019906200870019902204870C1
:1025300001991020887001990B20888040F250008A
:10254000C2F2000000790199887140F20C20C2F2B9
:10255000000000790199C87101990020087240F2C9
:102560007010C2F20000407B0199487240F258504E
:10257000C2F2000000790199887240F21C20C2F278
:10258000000000790199C87240F2EC20C2F200000C
:1025900000790199087340F20030C2F2000000791E
:1025A0000199487340F24450C2F200000079019949
:1025B000887340F20420C2F2000000790199C873C8
:1025C00040F28012C2F2000292F83C0092F84830C9
:1025D00092F8541092F8602040EA430040EA8200EA
:1025E00040EAC100019908740198FFF745FD019880
:1025F00002F0D0FD02B080BD80B58AB0642003F047
:1026000045F8099040F26800C2F20000C17B099AC7
:102610001170817B099A5170017C099A9170099A15
:1026200000219180007C01460791102811D0FFE71E
:102630000798112830D0FFE7079812284BD0FFE702
:1026400007984038022859D3FFE70798B22823D0CB
:102650005DE0099840F26801C2F200010E31FFF717
:10266000C5FC40F24800C2F2000000790146069124
:10267000042804D0FFE70698052804D007E009994C
:102680000120887107E009990220887103E0099907
:1026900000208871FFE73BE00998063047F22141AE
:1026A000C0F600016A4611610021D16002239360E7
:1026B0005160116047F23241C0F6000147F22A42F0
:1026C000C0F6000247F21843C0F6000303F072FDA3
:1026D000099988801CE009990420888000200890CE
:1026E00040F25001C2F2000109798DF820108DF8F6
:1026F000220009990898C1F8060009E0099840F2FB
:102700006801C2F200010E31FFF770FC00E0FFE744
:102710000998FFF7B1FC099802F03CFD0AB080BDB2
:1027200080B582B00190019801F05CF802B080BDE4
:1027300080B584B040F24C10C2F20000C06832286C
:1027400075D1FFE740F24C50C2F20000007901461B
:10275000039120B1FFE7039801280DD018E040F263
:102760008010C2F2000090F85400012803D1FFE766
:1027700000F0FCFCFFE70CE040F28010C2F2000029
:1027800090F8540018B9FFE700F0FAFCFFE700E00A
:10279000FFE740F21420C2F20000007901460291E6
:1027A00020B1FFE7029801280CD017E040F270102A
:1027B000C2F20000007B022803D1FFE7FEF78AFB8C
:1027C000FFE70CE040F27010C2F20000007B02282C
:1027D00003D0FFE7FEF788FBFFE700E0FFE740F2EA
:1027E0002420C2F2000000790146019120B1FFE7E8
:1027F000019801280DD018E040F28010C2F20000CC
:1028000090F83000012803D1FFE7FFF74DF8FFE70C
:102810000CE040F28010C2F2000090F8300018B9CD
:10282000FFE7FFF74BF8FFE700E0FFE7FFE704B043
:1028300080BD000080B543F60000C4F20200022112
:10284000FFF776F980BD000080B543F60000C4F2C2
:1028500002000221FFF762F980BD000080B5FFF79A
:10286000E9FF40F2EC21C2F200010120087180BDB5
:1028700080B5FFF7E9FF40F2EC21C2F20001002031
:10288000087180BD80B500F0E5FB80BDFFE7FEE785
:1028900080B540F24C10C2F20000C068322869D105
:1028A000FFE7FEF7D7FD00F003FA00F0E7FBFEF7C5
:1028B00071F9FEF703F9FEF737F901F091FC02F028
:1028C00003FA012817D1FFE740F28011C2F200019C
:1028D000C86D0130C8653D280CD3FFE701F05CFCF2
:1028E000022004F025FC40F28011C2F20001002019
:1028F000C865FFE7FFE702F0EDF901281DD1FFE70A
:1029000040F26C10C2F20000007870B9FFE740F2AC
:102910006C11C2F200010120087040F28011C2F275
:1029200000010020C1F8800003E00120FEF710F84C
:10293000FFE7022004F008FC1BE040F28011C2F225
:102940000001D1F880000130C1F8800015280FD3B4
:10295000FFE740F26C11C2F200010020087040F263
:102960008011C2F20001C1F88000FDF7F1FFFFE71E
:10297000FFE7FFE780BD000080B582B08DF807005B
:1029800040F27011C2F2000100910020086000F0D6
:1029900039F800999DF8070048730320087302B0C6
:1029A00080BD000080B540F27011C2F2000100202D
:1029B000086040F25000C2F20000007901280BD1FB
:1029C000FFE700F023F840F27011C2F2000100208E
:1029D00048730420087308E040F2F820C2F20000B7
:1029E0000068062103F080F8FFE780BD40F2701117
:1029F000C2F200010020086001220A73486088606A
:102A00007047000080B5FEF78BFD80BD80B5FEF7F6
:102A100087FDFEF7EFFEFEF70FF900F07FFB80BDAC
:102A200080B582B040F27011C2F200010091002026
:102A300001900860FFF7E6FF00990198487308735A
:102A400002B080BD80B582B040F27010C2F20000CA
:102A5000007B0146019104285FD80199DFE801F06D
:102A600003041B293B0059E040F28010C2F2000031
:102A700090F83000012804D1FFE70120FFF77CFF28
:102A800008E040F27011C2F200010020086002204C
:102A90000873FFE742E040F28010C2F2000090F8B5
:102AA0003000012804D1FFE70120FFF765FFFFE7B1
:102AB00034E040F28010C2F2000090F8300048B9D3
:102AC000FFE740F2F820C2F200000068062103F0A0
:102AD0000BF8FFE722E040F27010C2F2000001683C
:102AE000013101600068B0F57A7F15D3FFE740F24D
:102AF0007011C2F2000100200860FEF78FFEFEF7A1
:102B0000A5F800F015FB40F2F820C2F200000068C2
:102B1000062102F0E9FFFFE700E0FFE702B080BD19
:102B20007047000080B54FF00060002100F058F8B9
:102B300080BD000084B003900020029001900F201F
:102B400000900398C078C0B3FFE74EF60C50CEF269
:102B500000000068C043C0F3022002900298C0F158
:102B60000400019000980299C840009003984078B2
:102B7000019988400290039880780099014002985A
:102B80000843029002980001029002980399097884
:102B90004EF20042CEF2000288540398027802F00E
:102BA0001F01012088404EF20011CEF2000141EADF
:102BB000D20121F0030108600FE00398027802F0CF
:102BC0001F01012088404EF28011CEF2000141EA3F
:102BD000D20121F003010860FFE704B07047000054
:102BE00082B001900091019800994FF68072C1F671
:102BF000FF72114008434EF60851CEF20001086002
:102C000002B0704780B586B040F2A520C1F6FF70D3
:102C1000059000200490009042F20001C4F20201ED
:102C2000086820F080000860086840F040000860F4
:102C3000059A4FF22000C1F6FF7004A990479DF855
:102C40001000052828D8FFE7059A4FF23020C1F67A
:102C5000FF7004A990479DF8130003909DF812009F
:102C60000004000A02909DF81100000401900398EE
:102C70000299084301990843049041F60401C4F203
:102C80000001086800F07F400090049A009810430B
:102C900000900098086000E0FFE742F20001C4F2F3
:102CA0000201086840F08000086006B080BD0000A6
:102CB00082B0002001908DF8030040F26050C2F213
:102CC0000000B0F81A014921414348F26910C6F6E4
:102CD0001600A1FB0020091A00EB510080090190A9
:102CE00040F20030C2F200000079012804D0FFE772
:102CF00000208DF803000DE001980009AE2804D8EB
:102D0000FFE700208DF8030003E001208DF80300A9
:102D1000FFE7FFE79DF8030040F28011C2F20001D7
:102D200008730198086102B07047000080B543F253
:102D30000040C4F202001021FEF7F0FE80BD00004A
:102D400080B543F20040C4F202001021FEF7F0FE0D
:102D500080BD000080B5FFF7F3FF40F20031C2F202
:102D600000010120087180BD80B5FFF7DFFF40F250
:102D70000031C2F200010020087180BD83B00290D2
:102D800001910020009041F22C01C4F20201086878
:102D90000090009820F480600090009820F4784023
:102DA0000090029A009810430090019A00981043F6
:102DB00000900098086003B07047000082B0019056
:102DC0000020009041F22C01C4F20201086800903A
:102DD000009820F00F000090019A00981043009096
:102DE0000098086002B0704741F28001C4F202010D
:102DF000086840F0010008607047000041F22C01B3
:102E0000C4F20201086820F4807008607047000076
:102E100082B001900020009041F22C01C4F2020126
:102E200008680090009820F4F8700090019A0098CB
:102E3000104300900098086002B0704781B0009085
:102E4000009A41F21401C4F20201086810430860BC
:102E500001B0704781B00090009A41F21C01C4F2A9
:102E6000020108681043086001B0704781B000900B
:102E7000009A41F21801C4F2020108681043086088
:102E800001B0704787B00690002005900490039031
:102E90000290019041F20400C4F202000168002295
:102EA000C0F63C0211400391006800F480300290AB
:102EB0009DF80F000007002806D4FFE703990220C1
:102EC00000EB9140039006E003996FF4F77000EB7C
:102ED00091400390FFE70298C8B9FFE741F2400034
:102EE000C4F202000068C00740B1FFE7039840F653
:102EF0000011C0F23D014843049007E0039841F2FD
:102F00000021C0F27A0148430490FFE719E041F242
:102F10000400C4F2020000688003002808D5FFE71F
:102F2000039840F60011C0F23D014843049007E0C9
:102F3000039841F20021C0F27A0148430490FFE770
:102F4000FFE741F20400C4F20200006800F00C0048
:102F500005900598009040B1FFE7009804280BD039
:102F6000FFE7009808280ED011E0069941F20020F2
:102F7000C0F27A00086011E0069941F20020C0F228
:102F80007A0008600AE004980699086006E006994D
:102F900041F20020C0F27A000860FFE741F204012C
:102FA000C4F202010868C0B200090590059A47F210
:102FB000E610C0F60000825C0192069B1A68DDF8FC
:102FC00004C022FA0CF25A600A68C2F30222059287
:102FD000059A825C0192069B5A68DDF804C022FAC9
:102FE0000CF29A600968C1F3C22105910599405C11
:102FF000019006994868019AD040C86041F22C00BF
:10300000C4F20200016801F00F010591059A47F230
:10301000B611C0F60001895C0191069A5168019BC6
:10302000B1FBF3F151610068C0F3041005900598FD
:1030300000F00F0147F2C610C0F6000030F8110092
:10304000019004980199B0FBF1F00699086107B06E
:103050007047000080B58020FFF7F0FE4FF48070CD
:10306000FFF7ECFE4FF40070FFF7E8FE4FF48060CE
:10307000FFF7E4FE0120FFF7F9FE80BD82B00020DB
:1030800001908DF8030040F26050C2F20000B0F8E9
:1030900018014921414348F26910C6F61600A1FB08
:1030A0000020091A00EB51008009019040F24450C1
:1030B000C2F200000079012804D0FFE700208DF85B
:1030C00003000CE00198632804D8FFE700208DF886
:1030D000030003E001208DF80300FFE7FFE79DF800
:1030E000030040F28011C2F2000108760198C86125
:1030F00002B0704780B543F20040C4F202004021A4
:10310000FEF716FD80BD000080B543F20040C4F21A
:1031100002004021FEF702FD80BD000080B5FFF7F0
:10312000E9FF40F24451C2F200010120087180BD64
:1031300080B5FFF7E9FF40F24451C2F200010020E0
:10314000087180BD80B543F60000C4F2020008217A
:10315000FEF7E4FC80BD000080B543F60000C4F239
:1031600002000821FEF7E4FC80BD000080B5FFF7F7
:10317000F3FF40F24C51C2F200010120087180BD02
:1031800080B5FFF7DFFF40F24C51C2F20001002092
:10319000087180BD80B54FF4AF70FDF73DFE80BD76
:1031A00080B50020FDF738FE80BD000080B540F2FC
:1031B0004450C2F200000079012812D1FFE740F22A
:1031C0008010C2F2000090F87800012809D1FFE7D2
:1031D000FFF7E0FF40F25851C2F2000101200871F0
:1031E000FFE780BD80B5FFF7DBFF40F25851C2F228
:1031F00000010020087180BD80B582B040F24C1003
:10320000C2F20000C068322823D1FFE740F25850D4
:10321000C2F2000000790146019120B1FFE7019858
:10322000012801D013E013E040F28010C2F2000048
:10323000007E40B1FFE740F28010C2F2000090F83B
:10324000780018B9FFE7FFF7CDFFFFE700E0FFE7E1
:10325000FFE702B080BD00007047000080B582B07B
:10326000009000980138B0F1807F03D3FFE7012080
:10327000019019E0009801384EF21401CEF20001DD
:1032800008604FF0FF300F2101F04AFB4EF21801A9
:10329000CEF20001002008604EF21002CEF20002D1
:1032A000072111600190FFE7019802B080BD000086
:1032B00080B502F05FF803F065FA02F06DF880BDAA
:1032C00080B586B0002004908DF80F00029041F286
:1032D0000001C4F20201086840F001000860FFE745
:1032E00041F20000C4F202000068C0F340008DF813
:1032F0000F00029801300290FFE79DF80F100020A8
:10330000C907019039B9FFE70298B0F5A06018BF6E
:1033100001200190FFE70198C0070028E0D1FFE7F6
:1033200041F20000C4F202000068C0F340008DF8D2
:103330000F009DF80F00C00750B9FFE740F20001F1
:10334000C2F2000141F20020C0F27A00086069E098
:1033500042F20001C4F20201086820F00700086090
:10336000086840F00300086041F20401C4F2020161
:10337000009108680860086840F400500860086818
:1033800040F4A0600860FFF73DFC009A10684FF61B
:10339000FF71CFF2C0710840106041F24001C4F2E9
:1033A0000201086820F00100086010680590059887
:1033B0000590049840F00100049005980023C0F6A1
:1033C0003C0318430590059810600498086041F28A
:1033D0000001C4F20201086840F080700860FFE755
:1033E00041F20000C4F2020000688001002801D40C
:1033F000FFE7F5E741F20401C4F20201086820F09A
:1034000003000860086840F002000860FFE741F22E
:103410000400C4F20200006800F00C00082801D08B
:10342000FFE7F4E706B080BD80B54EF68851CEF2D6
:103430000001086840F47000086041F20002C4F224
:103440000202106840F00100106041F20401C4F271
:10345000020108684CF20C03CFF67F0318400860A5
:1034600010684FF6FF73CFF6F663184010601068CF
:1034700020F48020106008684FF6FF72CFF2C0720F
:103480001040086041F22C01C4F202014FF4605078
:10349000086041F24001C4F20201086840F00100F6
:1034A000086041F20801C4F202010020C0F29F400E
:1034B000086041F21C01C4F20201086840F080502B
:1034C0000860086820F08050086042F20001C4F2F1
:1034D0000201086840F080000860086820F01000D1
:1034E0000860FFF7EDFE4EF60851CEF200014FF0F6
:1034F0000060086080BD000081B00090009842F636
:103500003441C4F20101086001B0704781B00090FD
:10351000009842F63C41C4F20101086001B07047D6
:1035200081B00090009842F64041C4F20101086069
:1035300001B0704780B58AB004A80390FEF73CFB49
:1035400003990220059008904FF4807004900320A6
:103550000190099043F20040C4F202000290FEF78D
:103560009FFA019A029803994FF480630493099299
:10357000FEF796FA019A029803994FF400630493B8
:103580000992FEF78DFA0AB080BD000080B58EB0BA
:103590004FF40060FFF76AFC01200190FFF766FC22
:1035A000FFF7C8FF40F2E730ADF82C0040F2000012
:1035B000C2F20000006844F6D351C1F26201A0FBE0
:1035C00001208009A0FB01014FF0FF3000EB9110BA
:1035D000ADF8280000200290ADF82E00ADF82A00CA
:1035E00042F60040C4F2010005900AA900F026FA54
:1035F00006A8039000F0AEFD019B029A039905987E
:103600004FF0600CADF818C0ADF81A30ADF82020BE
:1036100000F078FB05980821049100F0F1FB039974
:10362000059800F00BFC0499059800F089FC0399BB
:10363000059800F0A3FC0499059800F02FFD05986B
:1036400000F056FB059800F09BFD0EB080BD000019
:1036500080B586B00120FFF7FDFB4FF6FF70ADF897
:103660000C00FDF709FC44F6D351C1F26201A0FB46
:1036700001208009A0FB01014FF0FF3000EB911009
:10368000ADF808000020ADF80E00ADF80A004FF0CC
:103690008040019002A900F0D1F9019800F028FBC8
:1036A00006B080BD80B588B002A80190FEF784FA0C
:1036B00001990220039006900120029003200790B8
:1036C00043F60000C4F20200FEF7EAF908B080BD3C
:1036D00080B58CB0002000900B90FFF7E3FF022034
:1036E000FFF7B8FB40F2E730ADF82000FDF7C4FB70
:1036F0000146009844F6D352C1F26202A1FB0231A6
:103700008909A1FB02124FF0FF3101EB9211ADF8D4
:103710001C10ADF82200ADF81E0040F20040C4F2CB
:103720000000029007A900F089F903A8019000F0B9
:1037300011FD009A019902986023ADF80C30012325
:10374000ADF80E30ADF8142000F078FB0298082197
:1037500000F0F6FB029800F0CBFA029800F010FDA2
:103760000CB080BD80B58AB00420FFF773FB312018
:10377000ADF81C00FDF780FB0138ADF81800002003
:103780000090ADF81E00ADF81A0040F60000C4F23B
:103790000000019006A900F051F9009901986022FB
:1037A000ADF808200122ADF80A20ADF8101002A9EA
:1037B00000F0E4FB0198082100F070FC019800F093
:1037C000B3F840F64001C4F200010A2008600AB0D4
:1037D00080BD000080B540F60000C4F2000000F09B
:1037E00087FA80BD81B00090009840F63441C4F261
:1037F0000001086001B0704780B540F60040C4F297
:103800000000022100F052FA80B1FFE740F60040CC
:10381000C4F20000022100F03FFA43F20040C4F27B
:1038200002004FF40071FEF779F921E040F6004004
:10383000C4F20000012100F039FAC0B1FFE740F600
:103840000040C4F20000012100F026FA40F63440A6
:10385000C4F20000006848B1FFE743F20040C4F240
:1038600002004FF40071FEF763F9FFE7FFE7FFE79F
:1038700080BD000080B586B00820FFF7EBFA01207C
:103880000090FFF7F3FA6320ADF80C00FDF7F4FAAF
:1038900044F6D351C1F26201A0FB01208009A0FBD4
:1038A00001014FF0FF3000EB9110ADF8080000204F
:1038B000ADF80E00ADF80A0040F60040C4F200007A
:1038C000019002A900F0BAF80198032100F0D8F99C
:1038D00000992F2000F006F8019800F009FA06B0D0
:1038E00080BD000080B582B08DF807008DF806100D
:1038F0009DF807008DF8000000208DF801000120E0
:103900008DF802009DF80600012804D1FFE7012090
:103910008DF8030003E000208DF80300FFE7684600
:10392000FFF708F902B080BD81B0009000990868E7
:1039300040F08000086001B07047000082B0019044
:10394000ADF80210BDF802000199888502B07047F9
:1039500082B001908DF803109DF80300C00730B1CC
:10396000FFE70199086840F40060086005E00199EC
:10397000086820F400600860FFE702B070470000AC
:1039800082B001908DF803109DF80300C00730B19C
:10399000FFE70199086840F48050086005E001994C
:1039A000086820F480500860FFE702B0704700000C
:1039B00082B001908DF803109DF80300C00730B16C
:1039C000FFE70199086840F40050086005E001999C
:1039D000086820F400500860FFE702B0704700005C
:1039E00082B001908DF803109DF80300C00730B13C
:1039F000FFE70199086840F48040086005E00199FC
:103A0000086820F480400860FFE702B070470000BB
:103A100083B002900191002000900298006800900D
:103A2000009820F0700000900199009808430090E1
:103A300000980299086003B07047000080B582B01A
:103A400001900091019841F20001C4F20001884206
:103A50000BD0FFE7019800994988FFF7D9FF01983B
:103A60000099C98800F0FAF800E0FFE70198009992
:103A70008988FFF763FF01980099098800F090F8A2
:103A8000019842F60041C4F20101884208D0FFE7E4
:103A9000019843F20041C4F20101884206D1FFE7D8
:103AA00001980099097A00F08FF800E0FFE701988B
:103AB000012100F07FF8019841F20001C4F20001F9
:103AC000884208D0FFE701980099497A01F0010186
:103AD000FFF73EFF00E0FFE7019842F60041C4F225
:103AE000010188421DD0FFE7019843F20041C4F272
:103AF0000101884215D0FFE70198B0F1804F10D046
:103B0000FFE7019840F20041C4F20001884208D06A
:103B1000FFE7019840F60001C4F20001884208D195
:103B2000FFE701980099497B01F0010100F020F8BE
:103B300000E0FFE70198B0F1804F16D1FFE7019850
:103B40000099897A01F00101FFF71AFF01980099A5
:103B5000C97A01F00101FFF72BFF01980099097B59
:103B600001F00101FFF73CFF00E0FFE702B080BD7C
:103B700082B001908DF803109DF80300C00730B1AA
:103B8000FFE70199086840F40040086005E00199EA
:103B9000086820F400400860FFE702B070470000AA
:103BA00082B00190ADF80210BDF8020001990885BD
:103BB00002B0704782B00190ADF80210BDF802006B
:103BC0000199888202B0704782B001908DF803108D
:103BD0009DF803000199088602B0704782B00190F9
:103BE000ADF80210BDF80210012000FA01F20199AF
:103BF000086A9043086202B07047000082B00190EA
:103C0000ADF80210BDF80210012000FA01F201998E
:103C1000086A1043086202B07047000082B0019049
:103C2000ADF80210BDF80210042000FA01F201996B
:103C3000086A9043086202B07047000082B00190A9
:103C4000ADF80210BDF80210042000FA01F201994B
:103C5000086A1043086202B07047000082B0019009
:103C6000ADF802100199086820F440700860BDF8B2
:103C70000220019908681043086002B070470000F4
:103C800082B00190ADF80210BDF802200199888938
:103C90001043888102B0704782B001900091009873
:103CA000C0430199086102B07047000085B00390DD
:103CB0000291002001900090039800690299084049
:103CC000019003988089029908400090019838B1CA
:103CD000FFE7009820B1FFE701208DF8130003E013
:103CE00000208DF81300FFE79DF8130005B0704722
:103CF00081B000900099086840F00100086001B0B0
:103D00007047000080B586B00590049100210191B4
:103D1000ADF80E1002910598FFF760FF019A059823
:103D2000406802900598008BADF80E00BDF80E00BB
:103D300020F07000ADF80E00BDF80E0020F003007A
:103D4000ADF80E0004980188BDF80E000843ADF8E8
:103D50000E0005980499098900F0DEF9049840885E
:103D600028B1FFE705980021FFF748FF04E0059818
:103D70000021FFF733FFFFE7059842F60041C4F248
:103D80000101884208D0FFE7059843F20041C4F2E0
:103D90000101884227D1FFE705980499498900224B
:103DA00000F09CF90498808828B1FFE7059800216D
:103DB000FFF744FF04E005980021FFF72FFFFFE71E
:103DC000029820F480700290029820F40070029013
:103DD000049881890298084302900498C189029846
:103DE00008430290FFE7029805994860BDF80E006D
:103DF000059908830498C0880599486306B080BD7A
:103E000082B00190ADF802100020ADF800000198DA
:103E1000008BADF80000BDF8000020F00800ADF800
:103E20000000BDF80210BDF800000843ADF8000026
:103E3000BDF800000199088302B0704780B586B0D4
:103E4000059004910020ADF80E000290059808211D
:103E50000191FFF7C3FE019A05984068029005980A
:103E6000C069ADF80E00BDF80E0020F07000ADF88E
:103E70000E00BDF80E0020F00300ADF80E0004980F
:103E80000188BDF80E000843ADF80E0005980499AE
:103E9000098900F041F90498408828B1FFE70598A6
:103EA0000821FFF7ABFE04E005980821FFF796FE16
:103EB000FFE7059842F60041C4F20101884208D0AC
:103EC000FFE7059843F20041C4F20101884229D17D
:103ED000FFE7059804994989082200F0FFF8049843
:103EE000808828B1FFE705980821FFF7A7FE04E0C6
:103EF00005980821FFF792FEFFE7029820F4805012
:103F00000290029820F4005002900498818902984F
:103F100040EA011002900498C189029840EA011019
:103F20000290FFE7029805994860BDF80E000599D8
:103F3000C8610498C0880599C86306B080BD0000B8
:103F400082B00190ADF802100020ADF80000019899
:103F5000C069ADF80000BDF8000020F00800ADF821
:103F60000000BDF80210BDF800000843ADF80000E5
:103F7000BDF800000199C86102B0704780B586B0F5
:103F8000059004910020ADF80E00029005980C21D8
:103F90000191FFF723FE019A059840680290059869
:103FA000C069ADF80E00BDF80E0020F4E040ADF899
:103FB0000E00BDF80E0020F44070ADF80E0004981D
:103FC0000188BDF80E0040EA0120ADF80E0005980A
:103FD0000499098900F0A0F80498408828B1FFE707
:103FE00005980C21FFF70AFE04E005980C21FFF765
:103FF000F5FDFFE7059842F60041C4F20101884251
:1040000029D1FFE70598049949890C2200F066F848
:104010000498808828B1FFE705980C21FFF70EFE71
:1040200004E005980C21FFF7F9FDFFE7029820F462
:1040300080400290029820F4003002900498818918
:10404000029840EA811002900498C189029840EADF
:104050000120029014E0059843F20041C4F20101EE
:1040600088420BD1FFE7029820F480400290049828
:104070008189029840EA8110029000E0FFE7FFE7A3
:10408000029805994860BDF80E000599C86104982A
:10409000C0880599086406B080BD000082B0019018
:1040A000ADF802100020ADF800000198C069ADF82D
:1040B0000000BDF8000020F40060ADF80000BDF87D
:1040C0000210BDF8000040EA0120ADF80000BDF884
:1040D00000000199C86102B07047000084B00390ED
:1040E0000291ADF806200398006A0090BDF8061012
:1040F000082000FA01F10098884300900298BDF86A
:10410000061000FA01F10098084300900098039906
:10411000086204B07047000084B003900291ADF8CB
:1041200006200398006A0090BDF80610022000FAED
:1041300001F10098884300900298BDF8061000FA3B
:1041400001F100980843009000980399086204B0B8
:104150007047000081B0009000990020088000990D
:104160004880009988800099C8800099088100994A
:104170004881009988810099C88101B0704700008A
:1041800081B000900099B1F8440040F40040A1F8DB
:10419000440001B07047000080B582B0002001905B
:1041A0008DF8030043F60000C4F202004FF4806172
:1041B000FDF714FC012804D1FFE700208DF803006F
:1041C00003E001208DF80300FFE79DF8030040F2B3
:1041D0008011C2F2000181F8540002B080BD0000DD
:1041E00080B582B0002001908DF8030043F60040B6
:1041F000C4F202004FF40051FDF7F0FB012804D196
:10420000FFE700208DF8030003E001208DF8030094
:10421000FFE79DF8030040F28011C2F2000181F82F
:10422000480002B080BD000081B00090009810F1FD
:10423000030F04D8FFE7009801300090FFE70098D3
:1042400001B0704780B58AB004A80390FDF7B4FCB4
:1042500003990220059040200490012001900990CC
:1042600043F60000C4F202000290FDF719FC019A27
:104270000298039900230593802304930992FDF784
:104280000FFC0AB080BD000080B582B043F600008C
:10429000C4F2010040F2255100F0E4F9D8B3FFE781
:1042A00043F60000C4F2010000F01CF98DF807008D
:1042B00040F26C20C2F200000088B0F5007F0FD100
:1042C000FFE740F26C21C2F200010020088040F2BA
:1042D0008460C2F200004FF40071FBF7D8FFFFE7E3
:1042E0009DF8070040F26C23C2F200031A88511CAB
:1042F000198040F28461C2F2000188549DF80700E1
:1043000000F082F843F60000C4F2010040F22551AB
:1043100000F08EF9FFE702B080BD000080B588B0E4
:104320004FF48040FEF7A2FDFFF78CFF04A8019038
:1043300000F02EFA01994FF4E13004900020ADF81E
:104340001400ADF81600ADF81800ADF81C000C20F4
:10435000ADF81A0043F60000C4F20100029000F02C
:104360000FF90298802100F0B1F83020C4F2020069
:10437000FCF7D4FE029840F2255100F025F92420E4
:104380008DF80C0001208DF80D008DF80E008DF8D1
:104390000F0003A8FEF7CEFB029800F0B7F808B0B4
:1043A00080BD000080B584B0039002910020019090
:1043B000FFE70198029988420AD2FFE70398019922
:1043C000405C00F007F8FFE7019801300190F0E74A
:1043D00004B080BD80B582B08DF807009DF807104D
:1043E00043F60000C4F2010000F084F8FFE743F652
:1043F0000000C4F20100402100F092F808B9FFE784
:10440000F5E702B080BD000080B582B08DF80700EE
:104410009DF80700FDF798FE02B080BD80B58EB014
:104420000D900C9100200B900A9009900890079035
:104430000D98079001A8FEF725FD079843F60001A7
:10444000C4F20101884210D0FFE7079845F200014D
:10445000C4F20101884208D0FFE7079845F2004105
:10446000C4F20101884203D1FFE704980A9002E0F8
:1044700003980A90FFE70A98192148430C9989008C
:10448000B0FBF1F00990099848F21F51C5F2EB1109
:10449000A0FB01026FF00F0000EA52000B90099B95
:1044A0000B980009642200FB12300890089A322011
:1044B00000EB0210A0FB0110C0F343110B9808435E
:1044C0000B900B980D9908810EB080BD82B00190C1
:1044D000ADF80210BDF802200199888A1043888245
:1044E00002B0704781B00090009880886FF35F2021
:1044F00001B0704782B00190ADF80210BDF8020023
:104500006FF35F200199888002B0704781B00090FE
:104510000099888940F40050888101B070470000FC
:1045200083B00190ADF8021001980088BDF8021028
:104530000840000420B1FFE701208DF80B0003E0E4
:1045400000208DF80B00FFE79DF80B0003B07047CB
:1045500083B00290ADF80610002000900298808A87
:104560000090009820F440700090BDF8061000986C
:104570000843009000980299888203B070470000B9
:1045800080B582B001900091019800990968FFF709
:1045900045FF01980099898800F00EF9019800996B
:1045A000C98800F0DDF801980099098900F0C0F889
:1045B00001980099498900F0A3F801980099898928
:1045C000FFF7C6FF02B080BD86B00590ADF81210AF
:1045D00000200390029001900090059800909DF8B3
:1045E000120040090390BDF8120000F01F00029075
:1045F00002990120884001900398012804D1FFE727
:1046000000980C3000900CE00398022804D1FFE7DA
:1046100000981030009003E0009814300090FFE7FD
:10462000FFE7019A009908681043086006B07047D8
:1046300083B00290ADF806100020ADF80400ADF88C
:1046400002009DF80700ADF80400BDF80410012039
:104650008840ADF80200BDF80200C043029908800E
:1046600003B0704786B00490ADF80E1000200290A1
:10467000019000909DF80E0040090090BDF80E00DA
:1046800000F01F00019001990120884001900098DE
:10469000012806D1FFE7049881890198084001901C
:1046A00010E00098022806D1FFE70498018A0198DB
:1046B0000840019005E00498818A01980840019023
:1046C000FFE7FFE79DF80F00029002990120884064
:1046D000029004980188029808400290019838B12D
:1046E000FFE7029820B1FFE701208DF8170003E0F3
:1046F00000208DF81700FFE79DF8170006B07047FF
:1047000083B00290ADF806100020009002988089D6
:104710000090009820F00C000090BDF80610009862
:104720000843009000980299888103B07047000008
:1047300083B00290ADF806100020009002988089A6
:104740000090009820F4C0600090BDF8061000981A
:104750000843009000980299888103B070470000D8
:1047600083B00290ADF80610002000900298008AF5
:104770000090009820F440500090BDF8061000987A
:104780000843009000980299088203B07047000027
:1047900081B0009000994FF41650086000990020F5
:1047A00088800099C88000990881009A0C21518165
:1047B0000099888101B0704783B00290ADF806106F
:1047C00000200090029880890090009820F480508A
:1047D0000090BDF8061000980843009000980299D8
:1047E000888103B070470000FFE7FEE780B584B022
:1047F00047F24B40C0F600000022114601F012FCC7
:1048000040F28061C2F200010860FCF7EDFAFCF7AB
:104810007FFEFCF7F9F8FCF707FBFFE740F280604A
:10482000C2F2000000684FF0FF3101F071FCFCF7AC
:10483000FFFAFCF787FEFCF7F7F840F24C10C2F2E3
:10484000000003900068FFF7EFFC01460398016049
:104850004168013141608068082808D8FFE740F2CC
:104860004C11C2F2000188680130886006E040F215
:104870004C11C2F2000100208860FFE740F24C10AA
:10488000C2F20000C068622808D8FFE740F24C116D
:10489000C2F20001C8680130C86006E040F24C1165
:1048A000C2F200010020C860FFE740F24C10C2F2E3
:1048B0000000006940F2E631884208D8FFE740F284
:1048C0004C11C2F2000108690130086126E040F293
:1048D0004C11C2F2000102910020086140F2480030
:1048E000C2F2000001900068FFF79EFC019A0146A9
:1048F000029811604069012808D8FFE740F24C1186
:10490000C2F2000148690130486106E040F24C11F2
:10491000C2F2000100204861FFE7FFE77EE70000E8
:1049200082B08DF8070000919DF9070000280AD495
:10493000FFE7009800019DF907104EF20042CEF209
:10494000000288540BE0009800019DF8071001F068
:104950000F014EF61452CEF200028854FFE702B067
:104960007047000082B00090009818B9FFE700205F
:10497000019033E09DF8000050B1FFE79DF8001072
:1049800047F2F610C0F60000405C0130019025E0CF
:104990009DF8010050B1FFE79DF8011047F2F610B5
:1049A000C0F60000405C0930019017E09DF802005D
:1049B00050B1FFE79DF8021047F2F610C0F6000074
:1049C000405C1130019009E09DF8031047F2F610A9
:1049D000C0F60000405C19300190FFE7019802B07A
:1049E0007047000081B040F22430C2F20000009015
:1049F000009800680099401A18BF012001B0704764
:104A000080B588B084460D980C98DDF82CE0DDF870
:104A100028E0CDF81CC00691059204938DF80F0094
:104A20000798143000F03CFD059807990862049837
:104A3000079948620A98079988620B980799C86293
:104A40000799886ACA6A232101F00EF9079B186A40
:104A5000596A9A6ADB6A1A44043A46F28D43C0F6F0
:104A6000000300F047FC0799C8619DF80F00079903
:104A700081F836009DF80F00079981F835000798F6
:104A80000021029181630D98079AD0630D98079ACF
:104A9000106407980163079880F83410079801673D
:104AA00007984167079B03F144006A465160116013
:104AB00046F2DD62C0F60002194601F043FF02989B
:104AC00008B080BD80B586B084460898CDF814C083
:104AD0000491039202938DF807009DF80700059951
:104AE00048720599487A00F0FE00487204980599CA
:104AF000C8610398059908620599002088620299A7
:104B0000059A51620090FFE7009800280CDCFFE74F
:104B10000598009900EBC100143000F0C9FCFFE7D4
:104B2000009801300090EFE706B080BD80B582B0FC
:104B3000019000200090FFE7009800280CDCFFE7C0
:104B40000198009900EBC100143000F08FFDFFE7E1
:104B5000009801300090EFE702B080BD80B582B0D0
:104B60000190FBF7F3FA00900198006F20B1FFE786
:104B70000198016F8847FFE70098FBF7EBFA02B056
:104B800080BD000083B00290019101980A2815D1E0
:104B9000FFE7029800684CF6CD42CCF6CC42A0FB71
:104BA0000231C90801EB8101A0EB4100009002999C
:104BB0000868A0FB0220C008086009E002980068AD
:104BC00000F00F0000900299086800090860FFE7F4
:104BD000009803B07047000085B0ADF81200ADF842
:104BE0001010002003908DF80B00BDF8120040F269
:104BF0002C22C2F20002117802EB410148801078A9
:104C0000411C11700A2803D3FFE70020019008E03F
:104C100040F22C22C2F200021078411C1170019067
:104C2000FFE7019940F22C20C2F2000001704078A9
:104C300009280AD8FFE740F22C21C2F20001487887
:104C400001304870C0B2009006E040F22C20C2F261
:104C5000000040780090FFE7009840F22C21C2F25B
:104C60000001487000208DF80A00FFE79DF80A0057
:104C700040F22C21C2F20001497888421BDAFFE79A
:104C80009DF80A1040F22C20C2F2000000EB410017
:104C90004088BDF81010884206DAFFE79DF80B0047
:104CA00001308DF80B00FFE7FFE79DF80A000130A7
:104CB0008DF80A00DAE79DF80B1000200829C8BF1C
:104CC000012005B07047000040F25450C2F20000CD
:104CD0000078704740F68800C2F200000078704704
:104CE00080B58CB00B900A910992ADF8223002A8E1
:104CF0000190FCF761FF0199BDF8220002900A982B
:104D0000039002200690099805900B98FCF7C8FEC6
:104D10000CB080BD80B5FFF769FD002080BD0000AC
:104D200080B582B0019000F0DDF9FFF7F3FF02B02B
:104D300080BD000083B0029040F24820C2F2000023
:104D400000680299496808440190029801998842D4
:104D50002DD0FFE70198408848BBFFE7019840F25B
:104D60004421C2F200010968884220D0FFE740F2E6
:104D7000E820C2F2000000680199884207D1FFE7ED
:104D8000029840F2E821C2F200010860FFE70198B2
:104D9000406802994860029840F24821C2F200013E
:104DA0000968401A019A526811448860FFE740F28E
:104DB0004820C2F200000068029989680844009007
:104DC00000980299884224D0FFE70098408800BBF1
:104DD000FFE740F2E820C2F2000000680299884232
:104DE00007D1FFE7009840F2E821C2F20001086015
:104DF000FFE70298406800994860009840F2482117
:104E0000C2F200010968401A029A5268114488608F
:104E1000FFE703B07047000080B590B0DDF850C0E8
:104E2000DDF84CC0DDF848C00F900E910D920C9348
:104E300013980690129803901498420647F2F631A0
:104E4000C0F6000147F20740C0F60000002A48BF44
:104E5000084605909DF85000C006002805D5FFE7DC
:104E6000149820F001001490FFE71498C107202047
:104E7000002918BF30208DF82F0000208DF82E005B
:104E80009DF850008007002823D5FFE70D98B0F16A
:104E9000FF3F07DCFFE72D208DF82E000D984042E4
:104EA0000D9015E09DF850004007002804D5FFE75D
:104EB0002B208DF82E000AE09DF8500000070028F6
:104EC00004D5FFE720208DF82E00FFE7FFE7FFE77E
:104ED000FFE7002004900D9840B9FFE7049A501CAA
:104EE00004900DF11E013020885414E0FFE70D9866
:104EF00080B1FFE7059802900C990DA8FFF742FEDC
:104F000001460298405C049A511C04910DF11E0167
:104F10008854ECE7FFE704981399884203DDFFE724
:104F200004981390FFE713990398401A03909DF893
:104F3000500010F0110F21D1FFE79DF82E0040B175
:104F4000FFE70398012804DBFFE70398013803908B
:104F5000FFE7FFE70398411E039101280DDBFFE700
:104F60000F980E99884204D2FFE70F99202008700D
:104F7000FFE70F9801300F90ECE7FFE79DF82E0058
:104F800088B1FFE70F980E99884205D2FFE79DF898
:104F90002E000F990870FFE70398013803900F98CF
:104FA00001300F90FFE79DF85000C006002816D48E
:104FB000FFE7FFE70398411E039101280EDBFFE79F
:104FC0000F980E99884205D2FFE79DF82F000F99A0
:104FD0000870FFE70F9801300F90EBE7FFE7FFE75E
:104FE000049813994A1E139288420DDAFFE70F982E
:104FF0000E99884204D2FFE70F9930200870FFE72E
:105000000F9801300F90EBE7FFE70499481E0490DA
:1050100000200129019006DBFFE70698002818BF51
:1050200001200190FFE70198C00780B1FFE70F98CA
:105030000E99884207D2FFE704990DF11E00405CEB
:105040000F990870FFE70F9801300F90DDE7FFE739
:105050000398411E039101280DDBFFE70F980E997D
:10506000884204D2FFE70F9920200870FFE70F98CD
:1050700001300F90ECE70F9810B080BD80B584B080
:105080006946142048600A20086047F25340C0F681
:10509000000044F62151C0F60001002240F6F673EC
:1050A00001F0B4F90390039801F0CEFA04B080BD8A
:1050B00080B582B047F27040C0F600000190FFE773
:1050C000019847F27441C0F60001884208D2FFE718
:1050D000019800688047FFE7019804300190EFE7EE
:1050E00002B080BD80B582B047F27440C0F60000C7
:1050F0000190FFE7019847F27841C0F6000188422D
:1051000008D2FFE7019800688047FFE70198043064
:105110000190EFE702B080BD80B582B0FBF716F8D2
:10512000019040F22031C2F200010888013008806D
:105130000198FBF70FF802B080BD000080B582B087
:10514000FBF704F8019040F22030C2F20000018821
:1051500001390180B0F90000002814DCFFE740F2BB
:105160002031C2F20001002008800198FAF7F2FF16
:1051700040F20C30C2F20000006818B1FFE700F006
:10518000ABFEFFE703E00198FAF7E4FFFFE702B0A8
:1051900080BD000080B582B00190019808B9FFE79A
:1051A00059E0019840F24821C2F2000109688842A2
:1051B00009D3FFE7019840F24421C2F200010968D7
:1051C000884201D3FFE746E001980C38009040F296
:1051D0004C20C2F200004FF0FF3100F099FF009820
:1051E000408830B1FFE700980088B0F5F55F01D046
:1051F000FFE7FFE700990020488000994FF4F55041
:105200000880009840F2E821C2F200010968884253
:1052100007D2FFE7009840F2E821C2F200010860DF
:10522000FFE70098436840F24821C2F20001096894
:10523000421A40F68401C2F200010868D21A1044F2
:1052400008600098FFF776FD40F24C20C2F20000A3
:1052500000F024FFFFE702B080BD000080B5FDF73D
:1052600061FC40F20000C2F20000006848F21F51E9
:10527000C5F2EB11A0FB01104009FDF7EFFF4FF065
:10528000202044F20001C2F2000100F0D7FFFFF736
:105290000FFF80BD80B584B0039003982830029042
:1052A00003980430019040F21030C2F20000006810
:1052B00070B1FFE740F21030C2F2000001680298BE
:1052C00088470090009810B9FFE704B080BDFFE761
:1052D000039800784007002801D5FFE700E0FFE7CA
:1052E00003980078C006002801D4FFE7FFE7FFE736
:1052F000FEE7000087B0069005910492039304989E
:1053000004300190019820F0070001900198443882
:1053100001900198029000200090FFE7009810286B
:105320000DD8FFE70299009A4BF6EF60CDF6AD601D
:1053300041F82200FFE7009801300090EEE7059861
:10534000029948620299002088620299C862029913
:105350000863029948630399029A91630699029A35
:10536000D163029A4FF0807111640299086001982C
:1053700007B0704780B582B0FAF7E8FE019040F2BE
:105380001831C2F200010878013008700198FAF76C
:10539000E1FE02B080BD000080B582B0FAF7D6FE13
:1053A000019040F21831C2F200010878013808700B
:1053B0000198FAF7CFFE02B080BD000080B582B040
:1053C00001900198006814380090009801F010F9DD
:1053D000002002B080BD000080B586B00590049129
:1053E0008DF80F20049801F04FF99DF80F00014649
:1053F000009120B1FFE70098012806D032E005981F
:105400000499143100F098F82DE005980068029096
:10541000FFE702980599884218D0FFE702981438F0
:105420000190049890F83500019991F83510884260
:1054300007DAFFE7019814300499143100F07CF882
:1054400004E0FFE7029800680290E2E702980599FD
:10545000884206D1FFE705980499143100F06CF8F2
:10546000FFE700E0FFE7002006B080BD80B582B016
:1054700001900198143000F003F8002002B080BDC4
:1054800081B00090009840600099086001B07047BA
:1054900081B00090009840600099086001B07047AA
:1054A00081B00090009840600099086001B070479A
:1054B00081B00090009840600099086001B070478A
:1054C00082B00190009100980199096848600198A4
:1054D0000068009908600098019908600198009997
:1054E000486002B07047000082B0019000910098BF
:1054F000019909684860019800680099086000985F
:105500000199086001980099486002B07047000056
:1055100082B0019000910098019909684860019853
:105520000068009908600098019908600198009946
:10553000486002B07047000082B00190009100986E
:10554000019949680860019840680099486000988E
:105550000199486001980099086002B07047000006
:1055600082B0019000910098019949680860019803
:105570004068009948600098019948600198009936
:10558000086002B07047000082B00190009100985E
:10559000019949680860019840680099486000983E
:1055A0000199486001980099086002B070470000B6
:1055B00081B0009000990868401AB0FA80F0400964
:1055C00001B0704781B0009000990868401AB0FAA5
:1055D00080F0400901B0704781B0009000990868E0
:1055E000401AB0FA80F0400901B0704781B00090D5
:1055F0000098016840684860009908684968086038
:10560000009840600099086001B0704781B0009038
:105610000098016840684860009908684968086017
:10562000009840600099086001B0704781B0009018
:1056300000980168406848600099086849680860F7
:10564000009840600099086001B0704781B00090F8
:1056500000980168406848600099086849680860D7
:10566000009840600099086001B0704781B00090D8
:1056700000980168406848600099086849680860B7
:10568000009840600099086001B0704780B588B00C
:105690000690069818B9FFE70020079038E10698B1
:1056A000C11C21F00301884201D0FFE700E0FFE7C1
:1056B0000698033020F003000690069840F2FC2183
:1056C000C2F200010968884203D9FFE70020079071
:1056D0001EE106980B2803D8FFE70C200690FFE791
:1056E00040F24C20C2F200004FF0FF3100F010FDFC
:1056F00040F2E820C2F20000006840F24821C2F205
:1057000000010968401A0590FFE7059840F2FC2166
:10571000C2F200010968069A891A884280F0EF8077
:10572000FFE740F24820C2F20000006805990844F3
:10573000039003984088002840F0D680FFE7039844
:1057400040680599401A0C3806998842C0F0CC8010
:10575000FFE7039840680599401A0C3806991831FC
:10576000884255D3FFE70598069908440C30049009
:1057700040F24820C2F200000068049908440290F8
:1057800002994FF4F5500880029900204880039850
:1057900040680299486005980299886004980399C6
:1057A00048600399012048800298406840F2FC213B
:1057B000C2F2000109680C3188420BD0FFE704985F
:1057C00040F24821C2F200010968029A526811446D
:1057D0008860FFE7069840F68401C2F200010A687B
:1057E00010440C30086040F2F420C2F2000000685F
:1057F000096888420BD2FFE740F68400C2F200003D
:10580000006840F2F421C2F200010860FFE727E0DF
:10581000039901204880039A506840F24821C2F25F
:1058200000010968891A421840F68401C2F2000199
:1058300008681044086040F2F420C2F200000068DA
:10584000096888420BD2FFE740F68400C2F20000EC
:10585000006840F2F421C2F200010860FFE7FFE7B0
:1058600003994FF4F5500880039840F2E821C2F202
:105870000001096888422DD1FFE7FFE740F2E820E8
:10588000C2F20000006841880020019079B1FFE772
:1058900040F2E820C2F20000006840F24421C2F267
:1058A00000010968401A18BF01200190FFE7019824
:1058B000C00770B1FFE740F24820C2F20000006864
:1058C00040F2E821C2F200010A6852681044086000
:1058D000D4E7FFE740F24C20C2F2000000F0DEFB0C
:1058E00003980C30079013E0FFE740F24820C2F223
:1058F00000000068059908444068059005E740F2FB
:105900004C20C2F2000000F0C9FB00200790FFE726
:10591000079808B080BD000080B586B00490039160
:105920008DF80B200499052000F0F8F901900198FA
:1059300018B9FFE70198059028E09DF80B00019940
:1059400048720198FFF792FD039801990884019825
:10595000008C8000FFF79AFE0199C8610198C06928
:1059600030B9FFE7019800F013FA002005900DE030
:10597000019900204884019988840199C88401987C
:105980002830FFF77DFD01980590FFE7059806B0E8
:1059900080BD000080B588B006900591049200207B
:1059A000019000F04BFE0390FAF7D0FB02900698AE
:1059B000408C50B9FFE7049838B9FFE70298FAF72E
:1059C000C9FB6FF0010007908BE0FFE70698408C61
:1059D00000284FD1FFE7039900200863049848B9D5
:1059E000FFE70298FAF7B6FB03996FF0010008632E
:1059F000079076E0069A02F114000399527AFFF7B5
:105A0000EBFC049801280EDBFFE700F0B5FE0190E7
:105A100003984430002104AA00F03EFF039844306C
:105A200000F0B0FFFFE70298FAF794FB00F054FA99
:105A30000398006B20B1FFE70398006B079050E0DC
:105A4000FAF784FB02900498012812DBFFE700F0CC
:105A500093FE0199401A019001990498401A04900C
:105A60000498B0F1FF3F03DCFFE700200490FFE75C
:105A7000FFE7ABE70699C869C98C50F82100059982
:105A800008600699C88C0130C8840699C88C098CB6
:105A9000884204DBFFE706990020C884FFE70698E8
:105AA000408C012805DBFFE70699488C01384884C3
:105AB000FFE706982830FFF77BFD60B9FFE70698FF
:105AC0002830FFF77BFC0298FAF744FB00F004FA59
:105AD0000020079005E00298FAF73CFB00200790B1
